:1000000010308A0000280000FF00030E8301A100C9
:100010000A08A0008A010408A2007708A300780853
:10002000A4007908A5007A08A6007B08A70083131E
:1000300083128C308400001D1F280C1956288B1E3B
:1000400023280B1959280B1E27288B184D288B1D88
:100050002B280B184A288C308400801E31288C1ADB
:1000600050288C308400001C37280C185328220894
:1000700084002308F7002408F8002508F900260862
:10008000FA002708FB0020088A00210E8300FF0EDB
:100090007F0E09008A110A12982A8A110A12912ADF
:1000A0008A110A12D32A8A110A123D2B8A110A12C6
:1000B000422B8A110A12B12B0A108A100A118207E8
:1000C000F834033408340234F83403344034003450
:1000D00020340034F8340334C83403344834023450
:1000E000783402344834023448340234F834033467
:1000F0007834003440340034F83403347834023433
:1001000048340234C8340334F834033448340234F5
:10011000C83403340834003408340034F834033469
:10012000F834033448340234F83403347834023475
:1001300048340234F83403340A108A100A11820752
:10014000F834033408340234F8340334F834033414
:100150000034013480340034C83403344834023469
:1001600078340234F83403344834023448340234E6
:10017000F834033440340034C03403347834023467
:1001800048340234C83403347834023448340234F6
:10019000F8340334F83403340034023400340234C5
:1001A000F834033448340234F8340334F834033474
:1001B00048340234C8340334FB0000307A078A0024
:1001C0007B08E53E03188A0A82000034E034D83404
:1001D000E034003400340034C0347034C0340034AF
:1001E0000034003480340034803418340034003457
:1001F00080340034803418340034003480340034C7
:100200008034F83407340034C0340034C034F83457
:1002100007340034E0340034E0341834003400345F
:10022000C0340034C0341834003400348034003416
:10023000803400340034003480340034803400349E
:10024000003400348034003480340034003400340E
:10025000C0340034C034003400340034E03400349E
:10026000E034003400340034C0340034C03400348E
:1002700000340034803400348034003400340034DE
:10028000803400348034003400340034803400344E
:100290008034003400340034C0340034C0340034BE
:1002A00000340034E0340034E034003400340034EE
:1002B000C0340034C034003400340034803400349E
:1002C000803400340034003480340034803400340E
:1002D0000034013480340034803401340034033479
:1002E000C0340034C034033400340734E034003404
:1002F000E034073400340F34C0340034C0340F34D9
:1003000000341F348034003480341F3400343F34D0
:100310008034003480343F3400347F3480340034FF
:1003200080347F340034FF34C0340034C034FF34B0
:1003300000347F34E0340034E0347F3400343F3420
:10034000C0340034C0343F3400341F3480340034AF
:1003500080341F3400340F348034003480340F3440
:1003600000340734803400348034073400340334DC
:10037000C0340034C034033400340134E034003479
:10038000E034013400340034C0340034C03400346C
:1003900000340034803400348034003400340034BD
:1003A000803400348034003400340034803400342D
:1003B0008034003400340034C0340034C03400349D
:1003C00000340034E0340034E034003400340034CD
:1003D000C0340034C034003400340034803400347D
:1003E00080340034003400348034003480340034ED
:1003F000003400348034003480340034003400345D
:10040000C0340034C034003400340034E0340034EC
:10041000E034003400340034C0340034C0340034DC
:10042000003400348034003480340034003400342C
:10043000803400348034003400340034803400349C
:10044000803400340034F834C7340034C03400340D
:100450000034F834E7340034E03400340034D83465
:10046000C0340034C03400340034D8348034003414
:100470008034003400341834803400348034003444
:10048000003400348034F8348734003400340034CD
:10049000C034F834C734003400340A108A140A1106
:1004A0008207F034013408340234F8340334003461
:1004B00000344834023448340234F834033400340D
:1004C00000340834003408340034F8340334003481
:1004D000003440340034A0340034F83400340A10BE
:1004E0008A140A118207C834033448340234783439
:1004F000023400340034F834033408340234F8345D
:100500000334003400344034003420340034F834F0
:100510000334003400347834003440340034F83488
:1005200003340130BE07BD0A8B108A110A12372826
:10053000FF308316860083120608B30034083306A2
:10054000F1003308B400711DA82A0230B500B601CD
:10055000F11DAD2A0330B500B601711EBA2A043070
:10056000B500360BB52AB601BA2AB608031DBA2A59
:100570000130B600F11ECF2A0530B500B6014A0B96
:10058000C42AFF30CA00CF2A4A08FF3C031DCA2AEA
:10059000CA01CF2ACA08031DCF2A0130CA000B1096
:1005A0008A110A1237288C1ED32A1A08CD004E0849
:1005B0000319F92A013A0319002B033A0319072BEF
:1005C000013A03190C2B073A0319112B013A0319AD
:1005D000162B033A03191B2B013A0319202B0F3A50
:1005E0000319252B013A03192A2B033A0319312B3E
:1005F000382B4D08533C031DFF2A0130CE00392B08
:100600004D08543C031D062B0230CE00392B4D08FB
:10061000B7000330CE00392B4D08B8000430CE00AF
:10062000392B4D08B9000530CE00392B4D08BA00E2
:100630000630CE00392B4D08BB000730CE00392BD9
:100640004D08BC000830CE00392B4D08BD000930E4
:10065000CE00392B4D08453C031D302B0A30CE000F
:10066000392B4D08443C031D372B0B30CE00392B62
:10067000392B8C128A110A123728A80A0C108A11F9
:100680000A123728F401F301F2012808F100740876
:100690008316A3007308A2007208A1007108A000CD
:1006A000A701A601FF30A500FF30A400831220306F
:1006B0008316AC00A801A901AA01AB012308FA0026
:1006C0002208F9002108F8002008F700831203101F
:1006D000771C7A2B83162408A80725080318250FF2
:1006E000A90726080318260FAA0727080318270FAB
:1006F000AB0783128316AB0CAA0CA90CA80CFA0C3E
:10070000F90CF80CF70CAC0B872B892B8312831296
:10071000672B83127A08F4007908F3007808F20056
:100720007708F10015087107A9007208AA001608D9
:100730000318160FAA077308AB0000300318013026
:10074000AB077408AC00003003180130AC07A801F7
:100750008E018F018E010130AD000C118A110A1239
:1007600037280130AE000B118A110A123728A80170
:10077000AC01AB01AA01A901AD01B3013308B4007A
:100780000630B2000230B500B6010130BE00BF0134
:100790001F30C9000130CA00CC01CB01CE018A1143
:1007A0000A1622280830F8000430F700F70BD62B81
:1007B0008711D5115508831687000330F70083127F
:1007C000F70BE02BDE0D0712031CEC2B551655081A
:1007D000831687008312F12B551255088316870064
:1007E00083120000D5155508831687008312871DD4
:1007F000F72BF80BD42B0430F700F70BFD2B8711E8
:10080000D511550883168700000083125516550828
:10081000831687000330F7008312F70B0D2C03308B
:10082000F700F70B112CD515550883168700831296
:10083000871D182CF8010330F700F70B1D2C071A41
:1008400078148711D5115508831687008312071273
:100850005512550883168700831208000830DB0004
:100860007708DC0055165508831687000330F7001B
:100870008312F70B392CD515550883168700831280
:10088000871D402C071A0314071E0310F80D0430AF
:10089000F700F70B492CD5115508831687008312F2
:1008A0008711DB0B322C5516550883168700033051
:1008B000F7008312F70B5A2C07125C080319652CFA
:1008C000551255088316870083120000D515550868
:1008D000831687008312871D6B2C0430F700F70BFB
:1008E0006F2C8711D5115508831687000330F70048
:1008F0008312F70B792C07125512550883168700BF
:1009000083120800D6015516550883168700043057
:10091000F7008312F70B8A2CD5155508831687002C
:100920000330F7008312F70B932C0712551255086A
:10093000831687000430F7008312F70B9D2C871174
:10094000D511550883168700D0308312DE00D223DC
:10095000DE01D22355165508831687000430F700B0
:100960008312F70BB12CD515550883168700033079
:10097000F7008312F70BBA2C871DBC2C07125512F7
:100980005508831687000430F7008312F70BC62C36
:100990008711D511550883168700D1308312DE00E8
:1009A000D223F7012E247808D60055125508831655
:1009B000870000008312D51555088316870083121F
:1009C000871DE02C0430F700F70BE42CE72C000027
:1009D00055165508831687000430F7008312F70B6D
:1009E000EF2CD6130430F700F70BF42CF72C551628
:1009F0005508831687000430F7008312F70BFE2C8E
:100A0000D5155508831687000330F7008312F70BBE
:100A1000072D071255125508831687000430F7007A
:100A20008312F70B112D8711D511550883168700F6
:100A3000D0308312DE00D223DE01D2235608DE003E
:100A4000D223551255088316870000008312D5154E
:100A50005508831687008312871D2C2D0430F7005C
:100A6000F70B302D332D00005516550883168700DF
:100A70000430F7008312F70B3B2D0430F700F70B1F
:100A80003F2D422D55165508831687000430F70078
:100A90008312F70B492DD5155508831687000330AF
:100AA000F7008312F70B522D0712551255088316C3
:100AB00087000430F7008312F70B5C2D8711D511E6
:100AC000550883168700D0308312DE00D22307300A
:100AD000DE00D2231030DE00D223551255088316D3
:100AE000870000008312D5155508831687008312EE
:100AF000871D782D0430F700F70B7C2D7F2D00002B
:100B000055165508831687000430F7008312F70B3B
:100B1000872D8A110A1649285B08DC00F030DC05B5
:100B200003105C0CDD005C0CF700F70CF70C1F30B9
:100B3000F7057708DD075B080F395D07F800080047
:100B40005B08F8015A020318A82D5A08F700B42DC3
:100B5000F7010830DC00DA0DF70D5B0877020318A7
:100B6000F700F80DDC0BAB2D0800F701F8015A086F
:100B700003105B18F707F70CF80CDB18F707F70CF6
:100B8000F80C5B19F707F70CF80CDB19F707F70CF3
:100B9000F80C5B1AF707F70CF80CDB1AF707F70CE1
:100BA000F80C5B1BF707F70CF80CDB1BF707F70CCF
:100BB000F80C08005D08DE00DF01E001E101E5015D
:100BC0006508073C031C742E6008F7006108F800F4
:100BD000F901FA0177080F39E200FA01610CF90016
:100BE000600CF8005F0CF700F90CF80CF70CF90C2E
:100BF000F80CF70CF90CF80CF70C0F30F905770826
:100C00000F39E3005F08F7006008F8006108F90099
:100C1000FA0177080F39E4006208043C0318122E29
:100C20000330E2076308043C0318182E0330E3077F
:100C30006408043C03181E2E0330E407E901E801B0
:100C4000E7016208E6006708E9006608E800E601D7
:100C5000E701EE01ED01EC016308EB00F7016B0D1C
:100C6000F8006C0DF9006D0DFA00F80DF90DFA0D94
:100C7000F80DF90DFA0DF80DF90DFA0DF030F80533
:100C80007708E6047808E7047908E8047A08E904B4
:100C9000EE01ED01EC016408EB006D08FA006C0850
:100CA000F9006B08F800F7017708E6047808E70414
:100CB0007908E8047A08E9045E08F700F801F90108
:100CC000FA0177086604DE0078086704DF00790817
:100CD0006804E0007A086904E1000310DE0DDF0D0E
:100CE000E00DE10DE50AE02DFA01610CF900600C60
:100CF000F8005F0CF700F90CF80CF70CF90CF80C85
:100D0000F70CF90CF80CF70C0F30F90577080F39D0
:100D1000E3005F08F7006008F8006108F900FA01D5
:100D200077080F39E400630EE600F030E60564084A
:100D30000F396604F8000800DC133F30DA05551659
:100D40005508831687000430F7008312F70BA62E90
:100D5000D5155508831687000330F7008312F70B6B
:100D6000AF2E071255125508831687000430F7007E
:100D70008312F70BB92E8711D511550883168700FA
:100D8000D0308312DE00D223DE01D2235C08DD00E6
:100D9000DA257808DD00DE00D2235B08DD00DA25E5
:100DA0007808DD00DE00D2235A08DD00DA25780855
:100DB000DD00DE00D2235908DD00DA257808DD00E9
:100DC000DE00D2235608DD00DA257808DD00DE00DB
:100DD000D2235708DD00DA257808DD00DE00D223B3
:100DE0005808DD00DA257808DD00DE00D223551230
:100DF00055088316870000008312D5155508831601
:100E000087008312871D022F0430F700F70B062F8F
:100E1000092F000055165508831687000430F70087
:100E20008312F70B112F8A110A16172B0830F800BE
:100E3000D7015608F7007708D706F70CF80B1B2FD9
:100E40000C1E202FFE30831698058312571C2B2F63
:100E5000831618148312560899000800563084002F
:100E6000831300080319412F0630F800F701F70B30
:100E7000372FF80B362F7B30F700F70B3D2F800B09
:100E8000342F08008318472F5E3084008313F70146
:100E9000F801F901FA01DE01DF01E001E1015D087D
:100EA0005C045B045A040319852F2030E200031010
:100EB000D60DD70DD80DD90DDE0DDF0DE00DE10DEE
:100EC0005D086102031D6E2F5C086002031D6E2F1A
:100ED0005B085F02031D6E2F5A085E02031C7F2F02
:100EE0005A08DE025B08031C5B0FDF025C08031C70
:100EF0005C0FE0025D08031C5D0FE1020314F70DB7
:100F0000F80DF90DFA0DE20B572F5E088000840AE8
:100F10005F088000840A60088000840A61088000FD
:060F20008A110A16DD2D06
:101000003508023C031D4E282F08D6002F083C3C13
:10101000031D0B28D601D0010130CF00D2010130D1
:10102000D100D4010130D3002F08DA000530DB00F5
:101030008A11A0258A15F708031D2728D00103303F
:10104000CF00D2010330D100D4010330D3002F08E8
:10105000DA000F30DB008A11A0258A15F708031D7E
:101060003728D0010730CF00D2010730D100440823
:101070005602031D3E28FC30D000CF013C0856022A
:10108000031D4528FF30D200D1013D085602031D43
:101090004D28FF30D400F130D3005C2C3508043CDF
:1010A000031DAF282F08103C031D5728AF032F083E
:1010B000DA000330DB008A11B5258A150330780287
:1010C000FA01F9000310F90DFA0D7908DA008A1116
:1010D000DC208A15F7005A0A8A11DC208A15FA00EA
:1010E0007708CF007A08D0002F08DA000330DB0041
:1010F0008A11B5258A1502307802FA01F900031029
:10110000F90DFA0D7908DA008A11DC208A15F7004A
:101110005A0A8A11DC208A15FA007708D1007A0869
:10112000D2002F08DA000330DB008A11B5258A15BA
:1011300001307802FA01F9000310F90DFA0D79086F
:10114000DA008A11DC208A15F7005A0A8A11DC209D
:101150008A15FA007708D3007A08D4005C2C350889
:10116000033C031D4E2B8030D200D1012F08343AAE
:1011700003190C29013A03192229033A03193929C1
:101180000E3A03195029013A03196629033A031943
:101190007D29383A03199429013A0319AA29073AF3
:1011A0000319C129023A0319D829013A0319EE2972
:1011B0000F3A0319052A343A03191C2A1B3A03195A
:1011C0002C2A013A0319432A033A03195A2A063AE8
:1011D0000319702A013A0319872A033A03199E2A30
:1011E0003A3A0319B42A013A0319CB2A033A0319EC
:1011F000E22A0E3A0319F82A013A03190F2B033A8F
:101200000319262B083A03193C2B033A0319402BE8
:10121000013A0319442B482B4008DA000630DB0062
:101220008A11B5258A157808DA005A0A8A115C20D5
:101230008A15FA005A088A115C208A15D3007A08A8
:10124000D4004D2B4008DA000630DB008A11B525AA
:101250008A1502307807DA005A0A8A115C208A154A
:10126000FA005A088A115C208A15D3007A08D40043
:101270004D2B4008DA000630DB008A11B5258A15AF
:1012800004307807DA005A0A8A115C208A15FA00BD
:101290005A088A115C208A15D3007A08D4004D2B95
:1012A0004108DA000630DB008A11B5258A15780876
:1012B000DA005A0A8A115C208A15FA005A088A1143
:1012C0005C208A15D3007A08D4004D2B4108DA003F
:1012D0000630DB008A11B5258A1502307807DA005E
:1012E0005A0A8A115C208A15FA005A088A115C2071
:1012F0008A15D3007A08D4004D2B4108DA00063055
:10130000DB008A11B5258A1504307807DA005A0AFD
:101310008A115C208A15FA005A088A115C208A1505
:10132000D3007A08D4004D2B4208DA000630DB00E7
:101330008A11B5258A157808DA005A0A8A115C20C4
:101340008A15FA005A088A115C208A15D3007A0897
:10135000D4004D2B4208DA000630DB008A11B52597
:101360008A1502307807DA005A0A8A115C208A1539
:10137000FA005A088A115C208A15D3007A08D40032
:101380004D2B4208DA000630DB008A11B5258A159C
:1013900004307807DA005A0A8A115C208A15FA00AC
:1013A0005A088A115C208A15D3007A08D4004D2B84
:1013B0004308DA000630DB008A11B5258A15780863
:1013C000DA005A0A8A115C208A15FA005A088A1132
:1013D0005C208A15D3007A08D4004D2B4308DA002C
:1013E0000630DB008A11B5258A1502307807DA004D
:1013F0005A0A8A115C208A15FA005A088A115C2060
:101400008A15D3007A08D4004D2B4308DA00063041
:10141000DB008A11B5258A1504307807DA005A0AEC
:101420008A115C208A15FA005A088A115C208A15F4
:10143000D3007A08D4004D2B3F080E3C031C242A0D
:10144000D401A030D300262AD401D3013F081E3C8A
:1014500003182B2ABF014D2B4508DA000630DB00AC
:101460008A11B5258A1504307807DA005A0A8A11DC
:101470009C208A15FA005A088A119C208A15CF00F0
:101480007A08D0004D2B4508DA000630DB008A11BF
:10149000B5258A1502307807DA005A0A8A119C208D
:1014A0008A15FA005A088A119C208A15CF007A08FA
:1014B000D0004D2B4508DA000630DB008A11B52537
:1014C0008A157808DA005A0A8A119C208A15FA00CF
:1014D0005A088A119C208A15CF007A08D0004D2B1B
:1014E0004608DA000630DB008A11B5258A1504307B
:1014F0007807DA005A0A8A119C208A15FA005A08DD
:101500008A119C208A15CF007A08D0004D2B4608FE
:10151000DA000630DB008A11B5258A15023078071B
:10152000DA005A0A8A119C208A15FA005A088A1190
:101530009C208A15CF007A08D0004D2B4608DA008F
:101540000630DB008A11B5258A157808DA005A0AB8
:101550008A119C208A15FA005A088A119C208A1543
:10156000CF007A08D0004D2B4708DA000630DB00A8
:101570008A11B5258A1504307807DA005A0A8A11CB
:101580009C208A15FA005A088A119C208A15CF00DF
:101590007A08D0004D2B4708DA000630DB008A11AC
:1015A000B5258A1502307807DA005A0A8A119C207C
:1015B0008A15FA005A088A119C208A15CF007A08E9
:1015C000D0004D2B4708DA000630DB008A11B52524
:1015D0008A157808DA005A0A8A119C208A15FA00BE
:1015E0005A088A119C208A15CF007A08D0004D2B0A
:1015F0004808DA000630DB008A11B5258A15043068
:101600007807DA005A0A8A119C208A15FA005A08CB
:101610008A119C208A15CF007A08D0004D2B4808EB
:10162000DA000630DB008A11B5258A15023078070A
:10163000DA005A0A8A119C208A15FA005A088A117F
:101640009C208A15CF007A08D0004D2B4808DA007C
:101650000630DB008A11B5258A157808DA005A0AA7
:101660008A119C208A15FA005A088A119C208A1532
:10167000CF007A08D0004D2BD0014030CF004D2B49
:10168000D0014030CF004D2BD0014030CF004D2B4A
:10169000D401D301D001CF014D2B5C2C3508053C82
:1016A000031D5C2CD001CF01D201D101D401D301A3
:1016B00049082F020E3ED70049081E3C031C642B2C
:1016C0001E304907D900672B1E304902D90059083E
:1016D0002F020E3ED80057083B3C0318712B3C30BC
:1016E000D70258083B3C0318772B3C30D8025708E8
:1016F0000E3C031CD52B57080B3C03188F2B0310F3
:10170000570DDA005A0A8A114D228A15FA005A0832
:101710008A114D228A15CF007A08D000D52B5708A0
:10172000073C0318A32B0310570DDA005A0A8A113D
:101730004D228A15FA005A088A114D228A15D100C5
:101740007A08D200D52B5708033C0318B72B031097
:10175000570DDA005A0A8A114D228A15FA005A08E2
:101760008A114D228A15D3007A08D400D52B031094
:10177000570DDA005A0A8A114D228A15FA005A08C2
:101780008A114D228A15D1007A08D2000310570D14
:10179000DA005A0A8A114D228A15FA005A088A116B
:1017A0004D228A15D3007A08D40058080E3C031C39
:1017B000422C58080B3C0318ED2B0310580DDA008F
:1017C0005A0A8A116F228A15FA005A088A116F2262
:1017D0008A15CF007A08D000422C5808073C03181D
:1017E000102C0310580DDA005A0A8A116F228A153C
:1017F000FA005A088A116F228A15CF007A08D000A1
:101800000310580DDA005A0A8A116F228A15FA005D
:101810005A088A116F228A15D3007A08D400422C04
:101820005808033C0318242C0310580DDA005A0AF8
:101830008A116F228A15FA005A088A116F228A15B6
:10184000CF007A08D000422C0310580DDA005A0A53
:101850008A116F228A15FA005A088A116F228A1596
:10186000CF007A08D0000310580DDA005A0A8A1106
:101870006F228A15FA005A088A116F228A15D3003E
:101880007A08D400CB0A0319CC0ACC08031D4C2CCF
:101890004B08783C0318502CCC01CB014A08C907EF
:1018A000C908031D562C3C30C9005C2C49083D3C3E
:0E18B000031D5C2C0130C9008A110A16022E9D
:1020000003081F3983008316031787114030031319
:102010009900E6309800D03083129800FF30D50048
:10202000831603170908C039890003131F129F1272
:102030000030031788008312870188018901031388
:102040000A12B72B0A16153090005515550883163D
:102050008700831297010430970083169B019C012F
:1020600001309D000108C0390338810083128B15AF
:102070003C308316960483120B1683160C140C1531
:1020800083128B1683168C16C03083128B040A12AF
:10209000822C0A16F030D0000F30CF000F30D20063
:1020A0000F30D100D401FF30D3005008D7004F08C3
:1020B000D6005208D9005108D8005408DB00530854
:1020C000DA00E8308316890083128910E83083161D
:1020D0008900831209111030DC00DC080319D228B2
:1020E0005A080139F700FA0177087A0403197E28A3
:1020F000E83083168900831209148328E830831698
:102100008900831209100310DB0CDA0CE830831607
:10211000890083128914E83083168900831289109C
:1021200058080139F700FA0177087A0403199E2844
:10213000E8308316890083120914A328E830831637
:102140008900831209100310D90CD80CE8308316CB
:10215000890083128914E83083168900831289105C
:1021600056080139F700FA0177087A040319BE28E6
:10217000E8308316890083120914C328E8308316D7
:102180008900831209100310D70CD60CE83083168F
:10219000890083128914E83083168900831289101C
:1021A000DC036D28E8308316890083120915E830B6
:1021B0008316890083120911551655088316870066
:1021C0000430F7008312F70BE328D5155508831662
:1021D00087000330F7008312F70BEC280712551223
:1021E0005508831687000430F7008312F70BF62892
:1021F0008711D511550883168700D0308312DE0071
:102200000A12D2230A16DE010A12D2230A16551622
:102210005508831687000430F7008312F70B0E2948
:10222000D5155508831687000330F7008312F70B86
:102230001729871D1929071255125508831687007B
:102240000430F7008312F70B23298711D5115508A5
:1022500083168700D1308312DE000A12D2230A16B9
:102260000130F7000A122E240A1678087F39D600AA
:10227000DB000A128C250A167808BD000130F70031
:102280000A122E240A1678087F39D600DB000A12BB
:102290008C250A167808BC00F7010A122E240A16AB
:1022A00078083F39D600DB000A128C250A16780818
:1022B000BB00551255088316870000008312D51500
:1022C0005508831687008312871D64290430F700A0
:1022D000F70B68296B2900005516550883168700EF
:1022E0000430F7008312F70B73295516550883162F
:1022F00087000430F7008312F70B7C29D5155508A9
:10230000831687000330F7008312F70B8529071225
:1023100055125508831687000430F7008312F70B17
:102320008F298711D511550883168700D030831265
:10233000DE000A12D2230A160330DE000A12D2236C
:102340000A1655165508831687000430F7008312C5
:10235000F70BA829D5155508831687000330F70019
:102360008312F70BB129871DB3290712551255089F
:10237000831687000430F7008312F70BBD298711FD
:10238000D511550883168700D1308312DE000A125A
:10239000D2230A160130F7000A122E240A167808F2
:1023A0000739D600DB000A128C250A167808BA0015
:1023B0000130F7000A122E240A1678083F39D60099
:1023C000DB000A128C250A167808B7000130F700E6
:1023D0000A122E240A1678081F39D600DB000A12CA
:1023E0008C250A167808B800F7010A122E240A165E
:1023F0007808D600DB000A128C250A167808B90086
:10240000551255088316870000008312D51555080C
:10241000831687008312871D0B2A0430F700F70B01
:102420000F2A122A0000551655088316870004301B
:10243000F7008312F70B1A2A3B08DA000C30DB0096
:102440000A12A0250A167708C4004408DA000530ED
:10245000DB000A12B5250A167808C4003C08DA0029
:102460000C30DB000A12A0250A167808C4073B08C6
:10247000DA000A30DB000A12A0250A167808C0002C
:102480003B08DA000A30DB000A12A0250A1677089A
:10249000C1003C08DA000A30DB000A12A0250A1647
:1024A0007808C2003C08DA000A30DB000A12A025D6
:1024B0000A167708C3003708DA000A30DB000A1270
:1024C000A0250A167808C5003708DA000A30DB00B4
:1024D0000A12A0250A167708C6003808DA000A3062
:1024E000DB000A12A0250A167808C7003808DA00AF
:1024F0000A30DB000A12A0250A167708C8004E0829
:102500000B3C031D562BD701D6010F30D900F030FC
:10251000D800DB01DA01E8308316890083128910C4
:10252000E83083168900831209111030DC00DC08C2
:102530000319FC2A5A080139F700FA0177087A04CE
:102540000319A82AE8308316890083120914AD2ADA
:10255000E83083168900831209100310DB0CDA0CB3
:10256000E8308316890083128914E83083168900C5
:102570008312891058080139F700FA0177087A04A4
:102580000319C82AE8308316890083120914CD2A5A
:10259000E83083168900831209100310D90CD80C77
:1025A000E8308316890083128914E8308316890085
:1025B0008312891056080139F700FA0177087A0466
:1025C0000319E82AE8308316890083120914ED2ADA
:1025D000E83083168900831209100310D70CD60C3B
:1025E000E8308316890083128914E8308316890045
:1025F00083128910DC03972AE8308316890083123E
:102600000915E8308316890083120911CE013708B5
:10261000D6003808D7003908D8003A08D9003B0856
:10262000DA003C08DB003D08DC000A129C2E0A168A
:102630004F30D6000A1216270A166430D6000A1246
:102640002E270A164B30D6000A1216270A166430B7
:10265000D6000A122E270A16E83083168900831244
:102660008910E8308316890083120911E830831637
:102670008900831209103030D600D60803194C2B7C
:10268000E8308316890083128914E83083168900A4
:1026900083128910D6033D2BE830831689008312FC
:1026A0000915E83083168900831209113E082C3C75
:1026B000031DB72C55165508831687000430F70004
:1026C0008312F70B612BD51555088316870003304D
:1026D000F7008312F70B6A2B071255125508831661
:1026E00087000430F7008312F70B742B8711D51184
:1026F000550883168700D0308312DE000A12D223D9
:102700000A16DE010A12D2230A1655165508831638
:1027100087000430F7008312F70B8C2BD515550872
:10272000831687000330F7008312F70B952B871D64
:10273000972B071255125508831687000430F700AF
:102740008312F70BA12B8711D5115508831687002B
:10275000D1308312DE000A12D2230A160130F700AC
:102760000A122E240A1678087F39D600DB000A12D6
:102770008C250A167808BD000130F7000A122E24B5
:102780000A1678087F39D600DB000A128C250A1653
:102790007808BC00F7010A122E240A1678083F397F
:1027A000D600DB000A128C250A167808BB005512E9
:1027B00055088316870000008312D5155508831627
:1027C00087008312871DE22B0430F700F70BE62BFE
:1027D000E92B000055165508831687000430F700D2
:1027E0008312F70BF12B551655088316870004301A
:1027F000F7008312F70BFA2BD515550883168700BF
:102800000330F7008312F70B032C071255125508FB
:10281000831687000430F7008312F70B0D2C871105
:10282000D511550883168700D0308312DE000A12B6
:10283000D2230A160330DE000A12D2230A165516D6
:102840005508831687000430F7008312F70B262CF7
:10285000D5155508831687000330F7008312F70B50
:102860002F2C871D312C071255125508831687000F
:102870000430F7008312F70B3B2C8711D511550854
:1028800083168700D1308312DE000A12D2230A1683
:102890000130F7000A122E240A1678080739D600EC
:1028A000DB000A128C250A167808BA000130F700FE
:1028B0000A122E240A1678083F39D600DB000A12C5
:1028C0008C250A167808B7000130F7000A122E246A
:1028D0000A1678081F39D600DB000A128C250A1662
:1028E0007808B800F7010A122E240A167808D600D4
:1028F000DB000A128C250A167808B9005512550813
:102900008316870000008312D515550883168700AB
:102910008312871D892C0430F700F70B8D2C902C27
:10292000000055165508831687000430F7008312FF
:10293000F70B982C3B08DA000C30DB000A12A025BC
:102940000A167708C4004408DA000530DB000A12D2
:10295000B5250A167808C4003C08DA000C30DB0004
:102960000A12A0250A167808C4070130BE003D08E7
:102970003B3C03189A2DBD01BC0A3C083B3C0318A4
:10298000762DBC0155165508831687000430F700D4
:102990008312F70BC92CD515550883168700033011
:1029A000F7008312F70BD22C071255125508831625
:1029B00087000430F7008312F70BDC2C8711D51148
:1029C000550883168700D0308312DE000A12D22306
:1029D0000A16DE010A12D2230A1655165508831666
:1029E00087000430F7008312F70BF42CD515550837
:1029F000831687000330F7008312F70BFD2C871D29
:102A0000FF2C071255125508831687000430F70073
:102A10008312F70B092D8711D511550883168700EE
:102A2000D1308312DE000A12D2230A160130F700D9
:102A30000A122E240A1678087F39D600DB000A1203
:102A40008C250A167808BD000130F7000A122E24E2
:102A50000A1678087F39D600DB000A128C250A1680
:102A60007808BC00F7010A122E240A1678083F39AC
:102A7000D600DB000A128C250A167808BB00551216
:102A800055088316870000008312D5155508831654
:102A900087008312871D4A2D0430F700F70B4E2D57
:102AA000512D000055165508831687000430F70095
:102AB0008312F70B592D3B08DA000C30DB000A12A9
:102AC000A0250A167708C4004408DA000530DB00A8
:102AD0000A12B5250A167808C4003C08DA000C3042
:102AE000DB000A12A0250A167808C4073B08DA00A2
:102AF0000A30DB000A12A0250A167808C0003B083D
:102B0000DA000A30DB000A12A0250A167708C10095
:102B10003C08DA000A30DB000A12A0250A16780801
:102B2000C2003C08DA000A30DB000A12A0250A16AF
:102B30007708C3002D0BBE2EAD01E8308316890047
:102B400083128910E8308316890083120911E83056
:102B500083168900831209103030D600D608031975
:102B6000BD2DE8308316890083128914E83083165E
:102B7000890083128910D603AE2DE83083168900B0
:102B800083120915E8308316890083120911BF0AE0
:102B90000130AE003C30AF0083102C08D9002B0868
:102BA000D8002A08D7002908D600DD01DC01013051
:102BB000DB00E030DA000A12422F0A167708003CE8
:102BC000D6000130D7000030031C0130D702FA01D3
:102BD0003208F700F71BFA035607B0005708B10098
:102BE0007A0803187A0FB107AD08031DBE2EAF088F
:102BF0000319BE2E2E0BBD2E30088100AE010A1225
:102C00008A1500280A168A115008D7004F08D600E6
:102C10005208D9005108D8005408DB005308DA00E4
:102C2000E8308316890083128910E8308316890002
:102C3000831209111030DC00DC080319812E5A08B8
:102C40000139F700FA0177087A0403192D2EE830CC
:102C50008316890083120914322EE8308316890006
:102C6000831209100310DB0CDA0CE830831689009C
:102C700083128914E830831689008312891058085A
:102C80000139F700FA0177087A0403194D2EE8306C
:102C90008316890083120914522EE83083168900A6
:102CA000831209100310D90CD80CE8308316890060
:102CB00083128914E830831689008312891056081C
:102CC0000139F700FA0177087A0403196D2EE8300C
:102CD0008316890083120914722EE8308316890046
:102CE000831209100310D70CD60CE8308316890024
:102CF00083128914E8308316890083128910DC035B
:102D00001C2EE8308316890083120915E8308316DB
:102D1000890083120911B608031DBC2E2F08013C3F
:102D20000318BC2EE8308316890083128910E8301E
:102D30008316890083120911E830831689008312F3
:102D400009103030D600D6080319B22EE8308316A9
:102D5000890083128914E830831689008312891050
:102D6000D603A32EE8308316890083120915E830B4
:102D70008316890083120911AF03F42D7F2A6300A3
:04400E00E22CFF3F62
:00000001FF
;PIC16F887
;CRC=ACB1  CREATED="14-Apr-14 19:58"
