:1000000010308A0000280000FF00030E8301A100C9
:100010000A08A0008A010408A2007708A300780853
:10002000A4007908A5007A08A600831383128C30F7
:100030008400001D1D280C1952288B1E21280B1925
:1000400055280B1E25288B1849288B1D29280B188D
:1000500046288C308400801E2F288C1A4C288C3027
:100060008400001C35280C184F282208840023081F
:10007000F7002408F8002508F9002608FA002008EF
:100080008A00210E8300FF0E7F0E09008A110A12DA
:100090008E2D8A110A12872D8A110A12F52D8A11C6
:1000A0000A125F2E8A110A12642E8A110A12D32EA6
:1000B0000A108A100A118207F83403340834023413
:1000C000F83403344034003420340034F83403343A
:1000D000C8340334483402347834023448340234A7
:1000E00048340234F8340334783400344034003473
:1000F000F83403347834023448340234C8340334D6
:10010000F834033448340234C83403340834003437
:1001100008340034F8340334F834033448340234F7
:10012000F83403347834023448340234F834033475
:100130000A108A100A118207F83403340834023492
:10014000F8340334F8340334003401348034003498
:10015000C83403344834023478340234F834033475
:100160004834023448340234F83403344034003420
:10017000C03403347834023448340234C83403348D
:100180007834023448340234F8340334F834033415
:100190000034023400340234F83403344834023476
:1001A000F8340334F834033448340234C8340334A4
:1001B0000A108A100A11DF3E03188A0A82000034EE
:1001C000E0340034C03400348034003480340034EF
:1001D00080340034C0340034E0340034C03400349F
:1001E000803400348034003480340034C03400342F
:1001F000E0340034C03400348034003480340034BF
:1002000080340034C0340034E0340034C03400346E
:10021000803400348034013480340334C0340734F3
:10022000E0340F34C0341F3480343F3480347F34A2
:100230008034FF34C0347F34E0343F34C0341F3462
:1002400080340F348034073480340334C0340134B4
:10025000E0340034C034003480340034803400345E
:1002600080340034C0340034E0340034C03400340E
:10027000803400348034003480340034C03400349E
:10028000E0340034C034003480340034803400342E
:100290008034F834C734F834E734D834C034D83430
:1002A000803418348034003480340034C0340A146C
:1002B0008A100A118207D834E0347034C034003414
:1002C000803400348034003480340034C03400344E
:1002D000E0340034C03400348034003480340034DE
:1002E00080340034C0340034E0340034C03400348E
:1002F000803400348034003480340034C03400341E
:10030000E0340034C03400348034003480340034AD
:1003100080340034C0340034E0340034C03400345D
:10032000803400348034003480340034C0340034ED
:10033000E0340034C034003480340034803400347D
:1003400080340034C0340034E0340034C03400342D
:10035000803400348034003480340034C0340034BD
:10036000E0340034C034003480340034803400344D
:1003700080340034C0340034E0340034C0340034FD
:10038000803400348034003480340034C03400348D
:10039000E0340034C0340034803400348034F83425
:1003A0008734F834C7340A148A100A11DA3E031865
:1003B0008A0A8200003400340034003418340034D7
:1003C00018340034F8340734F8340734183400345F
:1003D0001834003400340034003400340034003465
:1003E000003400340034003400340034003400346D
:1003F000003400340034003400340034003400345D
:10040000003400340034003400340034013400344B
:1004100003340034073400340F3400341F34003404
:100420003F3400347F340034FF3400347F340034F0
:100430003F3400341F3400340F34003407340034A8
:100440000334003401340034003400340034003408
:1004500000340034003400340034003400340034FC
:1004600000340034003400340034003400340034EC
:1004700000340034003400340034003400340034DC
:1004800000340034003400340034003400340034CC
:1004900000340034003400340034003400340034BC
:1004A000003400340A108A140A118207F03401342F
:1004B00008340234F834033400340034483402344D
:1004C00048340234F834033400340034083400343F
:1004D00008340034F8340334003400344034003439
:1004E000A0340034F83400340A108A140A11820748
:1004F000C8340334483402347834023400340034CD
:10050000F834033408340234F8340334003400344B
:100510004034003420340034F834033400340034E0
:100520007834003440340034F83403340A108A1428
:100530000A119D3E03188A0A8200003403340034F5
:10054000033400340F3400341F3400343F3400349B
:100550003F3480343F3480343F3480343F348034FF
:100560003F3480343F3480343F3480343F348034EF
:100570003F3400343C340034183400341034003438
:10058000003400340034003400348034003400344B
:1005900001340034013400340234003402340034B5
:1005A00002340034023400340234003402340034A3
:1005B0000234003402340034023400340234003493
:1005C0000234003402340034023400340234003483
:1005D0001A34003417340034113480341C3440345D
:1005E0003E3440343F34C0341F34C0341F34C03430
:1005F0001F3400341F340034033400340334003417
:10060000033400340334003403340034033400343E
:10061000033400340334003403340034033400342E
:10062000033400340334003403340A148A140A11E6
:1006300082070034FE340034FE340034F0340034D9
:10064000EE340034DE340034DE340034DF34803401
:10065000DF348034DF348034DD348034DD34803482
:10066000DD348034DF348034DF34E034DF34F034A0
:10067000FF348034FF347034FE34E034FF34C0344F
:10068000FF340034FF340034FE340034FE340034D0
:10069000FC340034FC340034FC340034FC340034CA
:1006A000FC340034FC340034FC340034FC340034BA
:1006B000FC340034FC340034FC340034FC340034AA
:1006C000FC340034FC340034E4340034E8340034C6
:1006D000EE340034FF348034FF348034FF3480340F
:1006E000FF348034FF340034FF340034E03400340D
:1006F000FC340034FE340034FE340034FE34003464
:10070000FE340034FE340034FE340034FE34003451
:10071000FC340034FC340034FE340034FE34003445
:10072000FE340A148A140A11983E03188A0A8200B9
:100730000034FE340034FE340034F0340034EE343F
:100740000034DE340034DE340034DF348034DF340F
:100750008034DF348034DD348034DD348034DD3483
:100760008034DF348034DF340034DC340034F83457
:100770000034F0340034E0340034E0340034E03449
:100780000034E1340034F2340034FE340034FC34FC
:100790000034FC340034FC340034FC340034FC34C9
:1007A0000034FC340034FC340034FC340034FC34B9
:1007B0000034FC340034FC340034FC340034FC34A9
:1007C0000034FC340034E4340034E8340034EE34D3
:1007D0000034FF348034FF348034FF348034FF34FD
:1007E0008034FF340034FF340034E0340034FC340F
:1007F0000034FE340034FE340034FE340034FE3461
:100800000034FE340034FE340034FE340034FC3452
:100810000034FC340034FE340034FE340034FE3442
:100820000A108A100A158207003403340034033496
:1008300000340F3400341F3400343F3400343F346C
:1008400080343F3480343F3480343F3480343F340C
:1008500080343F3480343F3480343F3480343F34FC
:1008600000343C3400341834003410340034003484
:100870000034003400340034803400340034013457
:1008800000340134003402340034023400340234C1
:1008900000340234003402340034023400340234B0
:1008A00000340234003402340034023400340234A0
:1008B0000034023400340234003402340034023490
:1008C00000340234003402340034023400340A3478
:1008D00000341E34003412348034213440343C342B
:1008E00040341F34C0341F3480341F3400341F346C
:1008F000003403340034033400340334003403344C
:10090000003403340034033400340334003403343B
:1009100000340334003403340A108A100A15933E5D
:1009200003188A0A82000034FE340034FE34003496
:10093000F0340034EE340034DE340034DE3400347D
:10094000DF348034DF348034DF348034DD3480348D
:10095000DD348034DD348034DF348034DF34E0341F
:10096000DF34F034FF348034FF347034FE34E0344C
:10097000FF34C034FF340034FF340034FE3400341C
:10098000FE340034FC340034FC340034FC340034D5
:10099000FC340034FC340034FC340034FC340034C7
:1009A000FC340034FC340034FC340034FC340034B7
:1009B000FC340034FC340034FC340034FC340034A7
:1009C000FC340034FC340034FC340034F43400349F
:1009D000E0340034EC340034FE348034FF348034AE
:1009E000FF348034FF340034EE340034E03400341B
:1009F000FE340034FE340034FE340034FE3400345F
:100A0000FE340034FC340034FC340034FE34003452
:100A1000FE340034FE340A148A100A1582070034AA
:100A2000FE340034FE340034F0340034EE3400344C
:100A3000DE340034DE340034DF348034DF3480349C
:100A4000DF348034DD348034DD348034DD34803490
:100A5000DF348034DF340034DC340034F8340034E4
:100A6000F0340034E0340034E0340034E034003456
:100A7000E1340034F2340034FE340034FC34003409
:100A8000FC340034FC340034FC340034FC340034D6
:100A9000FC340034FC340034FC340034FC340034C6
:100AA000FC340034FC340034FC340034FC340034B6
:100AB000FC340034FC340034FC340034FC340034A6
:100AC000FC340034F4340034E0340034EC340034CA
:100AD000FE348034FF348034FF348034FF340034FB
:100AE000EE340034E0340034FE340034FE3400349C
:100AF000FE340034FE340034FE340034FC34003460
:100B0000FC340034FE340034FE340034FE34013052
:100B1000BD07BC0A8B108A110A123528FF308316D4
:100B2000860083120608B20033083206F10032084C
:100B3000B300711D9F2D0230B4000130B500F11DCE
:100B4000A52D0330B4000130B500711EC02D043056
:100B5000B400B508031DAF2D0130B500C02D350B15
:100B6000B42D0230B500C02D3508023C031DBB2D4D
:100B70000330B500C02D3508033C031DC02DB50161
:100B8000F11EF12D0530B4000130B500CA08031D77
:100B9000CC2D0130CA00DD2D4A0BD12D0230CA0008
:100BA000DD2D4A08023C031DD82D0330CA00DD2D7F
:100BB0004A08033C031DDD2DCA01CA080319E42DB0
:100BC0004A08023C031DE62DC901F12D4A0BEB2D0D
:100BD0000130C900F12D4A08033C031DF12DFF30FF
:100BE000C9000B108A110A1235288C1EF52D1A081F
:100BF000CD004E0803191B2E013A0319222E033A89
:100C00000319292E013A03192E2E073A0319332E00
:100C1000013A0319382E033A03193D2E013A0319FC
:100C2000422E0F3A0319472E013A03194C2E033A6C
:100C30000319532E5A2E4D08533C031D212E01300B
:100C4000CE005B2E4D08543C031D282E0230CE00F2
:100C50005B2E4D08B6000330CE005B2E4D08B7006A
:100C60000430CE005B2E4D08B8000530CE005B2E60
:100C70004D08B9000630CE005B2E4D08BA00073093
:100C8000CE005B2E4D08BB000830CE005B2E4D0819
:100C9000BC000930CE005B2E4D08453C031D522E92
:100CA0000A30CE005B2E4D08443C031D592E0B30FC
:100CB000CE005B2E5B2E8C128A110A123528A70AF1
:100CC0000C108A110A123528F401F301F2012708E9
:100CD000F1007408FE007308FD007208FC00710842
:100CE000FB008316A301A201FF30A100FF30A0008A
:100CF000831220308316A800A401A501A601A70134
:100D00007E08FA007D08F9007C08F8007B08F700EF
:100D100083120310771C9C2E83162008A407210839
:100D20000318210FA50722080318220FA60723087E
:100D30000318230FA70783128316A70CA60CA50C74
:100D4000A40CFA0CF90CF80CF70CA80BA92EAB2E7E
:100D500083128312892E83127A08F4007908F30033
:100D60007808F2007708F10015087107A8007208EA
:100D7000A90016080318160FA9077308AA00003067
:100D800003180130AA077408AB00003003180130C3
:100D9000AB07A7018E018F018E010130AC000C1151
:100DA0008A110A1235280130AD000B118A110A127E
:100DB0003528A701AB01AA01A901A801AC01B20124
:100DC0003208B3000630B1000230B4000130B50083
:100DD0000130BD00BE011F30C8000130C900CA018A
:100DE000CC01CB01CE018A110A1622280830F80066
:100DF0000430F700F70BFA2E8711D511550883162A
:100E000087000330F7008312F70B042FDE0D071263
:100E1000031C102F55165508831687008312152FB3
:100E2000551255088316870083120000D515550802
:100E3000831687008312871D1B2FF80BF82E0430B2
:100E4000F700F70B212F8711D5115508831687005E
:100E50000000831255165508831687000330F700EB
:100E60008312F70B312F0330F700F70B352FD51511
:100E70005508831687008312871D3C2FF801033025
:100E8000F700F70B412F071A78148711D511550871
:100E900083168700831207125512550883168700A0
:100EA000831208000830DB007708DC00551655086F
:100EB000831687000330F7008312F70B5D2FD515DB
:100EC0005508831687008312871D642F071A0314A1
:100ED000071E0310F80D0430F700F70B6D2FD51126
:100EE00055088316870083128711DB0B562F551682
:100EF0005508831687000330F7008312F70B7E2F07
:100F000007125C080319892F5512550883168700AC
:100F100083120000D5155508831687008312871D9C
:100F20008F2F0430F700F70B932F8711D511550839
:100F3000831687000330F7008312F70B9D2F0712EB
:100F40005512550883168700831208005B08DC00E1
:100F5000F030DC0503105C0CDD005C0CF700F70CD6
:100F6000F70C1F30F7057708DD075B080F395D07C1
:100F7000F80008005B08F8015A020318C22F5A084B
:100F8000F700CE2FF7010830DC00DA0DF70D5B0813
:100F900077020318F700F80DDC0BC52F0800F701E6
:100FA000F8015A0803105B18F707F70CF80CDB1868
:100FB000F707F70CF80C5B19F707F70CF80CDB19BF
:100FC000F707F70CF80C5B1AF707F70CF80CDB1AAD
:100FD000F707F70CF80C5B1BF707F70CF80CDB1B9B
:080FE000F707F70CF80C0800FC
:10100000D60155165508831687000430F700831261
:10101000F70B0828D5155508831687000330F7000D
:101020008312F70B112807125512550883168700F3
:101030000430F7008312F70B1B288711D5115508D0
:1010400083168700D0308312DE008A11F6268A15B7
:10105000DE018A11F6268A15551655088316870073
:101060000430F7008312F70B3328D5155508831683
:1010700087000330F7008312F70B3C28871D3E28BA
:10108000071255125508831687000430F7008312A3
:10109000F70B48288711D511550883168700D130E2
:1010A0008312DE008A11F6268A15F7018A1152276B
:1010B0008A157808D6005512550883168700000057
:1010C0008312D5155508831687008312871D66285D
:1010D0000430F700F70B6A286D28000055165508F4
:1010E000831687000430F7008312F70B7528D61398
:1010F0000430F700F70B7A287D285516550883161B
:1011000087000430F7008312F70B8428D5155508A3
:10111000831687000330F7008312F70B8D28071220
:1011200055125508831687000430F7008312F70B19
:1011300097288711D511550883168700D030831260
:10114000DE008A11F6268A15DE018A11F6268A1536
:101150005608DE008A11F6268A15551255088316A0
:10116000870000008312D515550883168700831267
:10117000871DB8280430F700F70BBC28BF280000F3
:1011800055165508831687000430F7008312F70BB5
:10119000C7280430F700F70BCB28CE285516550882
:1011A000831687000430F7008312F70BD528D51576
:1011B0005508831687000330F7008312F70BDE28EB
:1011C000071255125508831687000430F700831262
:1011D000F70BE8288711D511550883168700D03002
:1011E0008312DE008A11F6268A150730DE008A1186
:1011F000F6268A151030DE008A11F6268A15551259
:1012000055088316870000008312D51555088316EC
:1012100087008312871D0A290430F700F70B0E2977
:101220001129000055165508831687000430F70071
:101230008312F70B19298A110A164A285D08DE0065
:10124000DF01E001E101E5016508073C031CB82965
:101250006008F7006108F800F901FA0177080F3912
:10126000E200FA01610CF900600CF8005F0CF70075
:10127000F90CF80CF70CF90CF80CF70CF90CF80C4D
:10128000F70C0F30F90577080F39E3005F08F70016
:101290006008F8006108F900FA0177080F39E400E6
:1012A0006208043C031856290330E2076308043C33
:1012B00003185C290330E3076408043C031862291F
:1012C0000330E407E901E801E7016208E600670886
:1012D000E9006608E800E601E701EE01ED01EC0136
:1012E0006308EB00F7016B0DF8006C0DF9006D0D54
:1012F000FA00F80DF90DFA0DF80DF90DFA0DF80DCB
:10130000F90DFA0DF030F8057708E6047808E704DF
:101310007908E8047A08E904EE01ED01EC016408BB
:10132000EB006D08FA006C08F9006B08F800F70193
:101330007708E6047808E7047908E8047A08E904FD
:101340005E08F700F801F901FA0177086604DE008B
:1013500078086704DF0079086804E0007A08690407
:10136000E1000310DE0DDF0DE00DE10DE50A24299B
:10137000FA01610CF900600CF8005F0CF700F90C41
:10138000F80CF70CF90CF80CF70CF90CF80CF70C3E
:101390000F30F90577080F39E3005F08F7006008A0
:1013A000F8006108F900FA0177080F39E400630ECC
:1013B000E600F030E60564080F396604F80008001E
:1013C000DC133F30DA0555165508831687000430C4
:1013D000F7008312F70BEA29D51555088316870005
:1013E0000330F7008312F70BF32907125512550843
:1013F000831687000430F7008312F70BFD2987114D
:10140000D511550883168700D0308312DE008A116B
:10141000F6268A15DE018A11F6268A155C08DD009B
:101420001E217808DD00DE008A11F6268A155B0889
:10143000DD001E217808DD00DE008A11F6268A15FF
:101440005A08DD001E217808DD00DE008A11F6262C
:101450008A155908DD001E217808DD00DE008A119A
:10146000F6268A155608DD001E217808DD00DE000C
:101470008A11F6268A155708DD001E217808DD003E
:10148000DE008A11F6268A155808DD001E2178082C
:10149000DD00DE008A11F6268A15551255088316DE
:1014A000870000008312D515550883168700831224
:1014B000871D582A0430F700F70B5C2A5F2A0000CA
:1014C00055165508831687000430F7008312F70B72
:1014D000672A8A110A16202B0830F800D70156080F
:1014E000F7007708D706F70CF80B712A0C1E762A3E
:1014F000FE30831698058312571C812A8316181410
:10150000831256089900080056308400831300089F
:101510000319972A0630F800F701F70B8D2AF80B0C
:101520008C2A7B30F700F70B932A800B8A2A08005D
:1015300083189D2A5E3084008313F701F801F901B6
:10154000FA01DE01DF01E001E1015D085C045B04FA
:101550005A040319DB2A2030E2000310D60DD70D00
:10156000D80DD90DDE0DDF0DE00DE10D5D08610236
:10157000031DC42A5C086002031DC42A5B085F02C5
:10158000031DC42A5A085E02031CD52A5A08DE022B
:101590005B08031C5B0FDF025C08031C5C0FE002AE
:1015A0005D08031C5D0FE1020314F70DF80DF90D42
:1015B000FA0DE20BAD2A5E088000840A5F08800005
:1015C000840A60088000840A610880008A110A1673
:1015D000F52D3408023C031D372B2E08D6002E08AB
:1015E0003C3C031DF42AD601D0010130CF00D201CA
:1015F0000130D100D4010130D3002E08DA000530CB
:10160000DB008A11BA278A15F708031D102BD001B9
:101610000330CF00D2010330D100D4010330D30016
:101620002E08DA000F30DB008A11BA278A15F70876
:10163000031D202BD0010730CF00D2010730D1008D
:1016400043085602031D272BFC30D000CF013B0876
:101650005602031D2E2BFF30D200D1013C0856024A
:10166000031D362BFF30D400F130D300B82F3408DF
:10167000043C031D0A2C3508013C031C782B013067
:101680002E02F7000310F70D7708DA005A0A8A11C4
:10169000D8208A15FA005A088A11D8208A15CF0056
:1016A0007A08D00001302E02F7000310F70D7708FA
:1016B000DA005A0A8A1157218A15FA005A088A1143
:1016C00057218A15D1007A08D20001302E02F70086
:1016D0000310F70D7708DA005A0A8A11D3218A1508
:1016E000FA005A088A11D3218A15D3007A08D40047
:1016F0003508013C0318092C4C08013C031CC02B85
:10170000031D862B4B08DF3C031CC02B01302E022F
:10171000F7000310F70D7708DA005A0A8A119622AB
:101720008A15FA005A088A1196228A15CF007A087B
:10173000D00001302E02F7000310F70D7708DA0011
:101740005A0A8A1115238A15FA005A088A11152394
:101750008A15D1007A08D20001302E02F70003105A
:10176000F70D7708DA005A0A8A1191238A15FA00D0
:101770005A088A1191238A15D3007A08D400F92BCC
:1017800001302E02F7000310F70D7708DA005A0A2D
:101790008A1110248A15FA005A088A1110248A1511
:1017A000CF007A08D00001302E02F7000310F70DA9
:1017B0007708DA005A0A8A118C248A15FA005A0826
:1017C0008A118C248A15D1007A08D20001302E02A9
:1017D000F7000310F70D7708DA005A0A8A110B2573
:1017E0008A15FA005A088A110B258A15D3007A083F
:1017F000D400CB0A0319CC0A4C08023C0318092C6C
:10180000FF3A031D072C4B08C03C0318092CCC01E0
:10181000CB01B82F3408033C031DA92E8030D20021
:10182000D1012E08343A0319672C013A03197D2C93
:10183000033A0319942C0E3A0319AB2C013A0319FD
:10184000C12C033A0319D82C383A0319EF2C013A6A
:101850000319052D073A03191C2D023A0319332DDC
:10186000013A0319492D0F3A0319602D343A03192F
:10187000772D1B3A0319872D013A03199E2D033A40
:101880000319B52D063A0319CB2D013A0319E22DA0
:10189000033A0319F92D3A3A03190F2E013A0319A5
:1018A000262E033A03193D2E0E3A0319532E013A00
:1018B00003196A2E033A0319812E083A0319972E49
:1018C000033A03199B2E013A03199F2EA32E3F08BA
:1018D000DA000630DB008A11CF278A157808DA0093
:1018E0005A0A8A1158208A15FA005A088A11582073
:1018F0008A15D3007A08D400A82E3F08DA000630F3
:10190000DB008A11CF278A1502307807DA005A0ADD
:101910008A1158208A15FA005A088A1158208A1507
:10192000D3007A08D400A82E3F08DA000630DB0086
:101930008A11CF278A1504307807DA005A0A8A11EB
:1019400058208A15FA005A088A1158208A15D3009F
:101950007A08D400A82E4008DA000630DB008A118D
:10196000CF278A157808DA005A0A8A1158208A1572
:10197000FA005A088A1158208A15D3007A08D40030
:10198000A82E4008DA000630DB008A11CF278A151E
:1019900002307807DA005A0A8A1158208A15FA00AC
:1019A0005A088A1158208A15D3007A08D400A82E24
:1019B0004008DA000630DB008A11CF278A15043090
:1019C0007807DA005A0A8A1158208A15FA005A084C
:1019D0008A1158208A15D3007A08D400A82E41080D
:1019E000DA000630DB008A11CF278A157808DA0082
:1019F0005A0A8A1158208A15FA005A088A11582062
:101A00008A15D3007A08D400A82E4108DA000630DF
:101A1000DB008A11CF278A1502307807DA005A0ACC
:101A20008A1158208A15FA005A088A1158208A15F6
:101A3000D3007A08D400A82E4108DA000630DB0073
:101A40008A11CF278A1504307807DA005A0A8A11DA
:101A500058208A15FA005A088A1158208A15D3008E
:101A60007A08D400A82E4208DA000630DB008A117A
:101A7000CF278A157808DA005A0A8A1158208A1561
:101A8000FA005A088A1158208A15D3007A08D4001F
:101A9000A82E4208DA000630DB008A11CF278A150B
:101AA00002307807DA005A0A8A1158208A15FA009B
:101AB0005A088A1158208A15D3007A08D400A82E13
:101AC0004208DA000630DB008A11CF278A1504307D
:101AD0007807DA005A0A8A1158208A15FA005A083B
:101AE0008A1158208A15D3007A08D400A82E3E08FF
:101AF0000E3C031C7F2DD401A030D300812DD401D6
:101B0000D3013E081E3C0318862DBE01A82E4408B2
:101B1000DA000630DB008A11CF278A1504307807F7
:101B2000DA005A0A8A1198208A15FA005A088A118E
:101B300098208A15CF007A08D000A82E4408DA0031
:101B40000630DB008A11CF278A1502307807DA00C9
:101B50005A0A8A1198208A15FA005A088A11982080
:101B60008A15CF007A08D000A82E4408DA00063083
:101B7000DB008A11CF278A157808DA005A0A8A1101
:101B800098208A15FA005A088A1198208A15CF00E1
:101B90007A08D000A82E4508DA000630DB008A114A
:101BA000CF278A1504307807DA005A0A8A1198205C
:101BB0008A15FA005A088A1198208A15CF007A08E7
:101BC000D000A82E4508DA000630DB008A11CF27A6
:101BD0008A1502307807DA005A0A8A1198208A1585
:101BE000FA005A088A1198208A15CF007A08D00086
:101BF000A82E4508DA000630DB008A11CF278A15A7
:101C00007808DA005A0A8A1198208A15FA005A08C8
:101C10008A1198208A15CF007A08D000A82E46088D
:101C2000DA000630DB008A11CF278A1504307807E6
:101C3000DA005A0A8A1198208A15FA005A088A117D
:101C400098208A15CF007A08D000A82E4608DA001E
:101C50000630DB008A11CF278A1502307807DA00B8
:101C60005A0A8A1198208A15FA005A088A1198206F
:101C70008A15CF007A08D000A82E4608DA00063070
:101C8000DB008A11CF278A157808DA005A0A8A11F0
:101C900098208A15FA005A088A1198208A15CF00D0
:101CA0007A08D000A82E4708DA000630DB008A1137
:101CB000CF278A1504307807DA005A0A8A1198204B
:101CC0008A15FA005A088A1198208A15CF007A08D6
:101CD000D000A82E4708DA000630DB008A11CF2793
:101CE0008A1502307807DA005A0A8A1198208A1574
:101CF000FA005A088A1198208A15CF007A08D00075
:101D0000A82E4708DA000630DB008A11CF278A1593
:101D10007808DA005A0A8A1198208A15FA005A08B7
:101D20008A1198208A15CF007A08D000A82ED001F9
:101D30004030CF00A82ED0014030CF00A82ED001D7
:101D40004030CF00A82ED401D301D001CF01A82E5E
:101D5000B82F3408053C031DB82FD001CF01D201A4
:101D6000D101D401D30148082E020E3ED700480805
:101D70001E3C031CBF2E1E304807D900C22E1E3049
:101D80004802D90059082E020E3ED80057083B3CA5
:101D90000318CC2E3C30D70258083B3C0318D22EF7
:101DA0003C30D80257080E3C031C302F57080B3C20
:101DB0000318EA2E0310570DDA005A0A8A1152222C
:101DC0008A15FA005A088A1152228A15CF007A0819
:101DD000D000302F5708073C0318FE2E0310570D74
:101DE000DA005A0A8A1152228A15FA005A088A1110
:101DF00052228A15D1007A08D200302F5708033CAE
:101E00000318122F0310570DDA005A0A8A115222B2
:101E10008A15FA005A088A1152228A15D3007A08C4
:101E2000D400302F0310570DDA005A0A8A115222BB
:101E30008A15FA005A088A1152228A15D1007A08A6
:101E4000D2000310570DDA005A0A8A1152228A155D
:101E5000FA005A088A1152228A15D3007A08D4004F
:101E600058080E3C031C9D2F58080B3C0318482FA4
:101E70000310580DDA005A0A8A1174228A15FA00E2
:101E80005A088A1174228A15CF007A08D0009D2F33
:101E90005808073C03186B2F0310580DDA005A0A34
:101EA0008A1174228A15FA005A088A1174228A1536
:101EB000CF007A08D0000310580DDA005A0A8A11B0
:101EC00074228A15FA005A088A1174228A15D300DE
:101ED0007A08D4009D2F5808033C03187F2F031065
:101EE000580DDA005A0A8A1174228A15FA005A0823
:101EF0008A1174228A15CF007A08D0009D2F031012
:101F0000580DDA005A0A8A1174228A15FA005A0802
:101F10008A1174228A15CF007A08D0000310580D58
:101F2000DA005A0A8A1174228A15FA005A088A11AC
:101F300074228A15D3007A08D400CB0A0319CC0A7C
:101F4000CC08031DA72F4B08783C0318AC2FCC01FD
:101F5000CB0149084807C800C808031DB22F3C3010
:101F6000C800B82F48083D3C031DB82F0130C800F9
:061F70008A110A161B2E67
:1020000003081F3983008316031787114030031319
:102010009900E6309800D03083129800FF30D50048
:10202000831603170908C039890003131F129F1272
:102030000030031788008312870188018901031388
:102040000A12D92E0A161530900055155508831618
:102050008700831297010430970083169B019C012F
:1020600001309D000108C0390338810083128B15AF
:102070003C308316960483120B1683160C140C1531
:1020800083128B1683168C16C03083128B040A12AF
:102090008A1500280A168A11F030D0000F30CF00C0
:1020A0000F30D2000F30D100D401FF30D3005008E0
:1020B000D7004F08D6005208D9005108D80054085C
:1020C000DB005308DA00E830831689008312891098
:1020D000E83083168900831209111030DC00DC0817
:1020E0000319D7282C0B7528D7285A080139F7006F
:1020F000FA0177087A0403198328E83083168900E7
:10210000831209148828E830831689008312091085
:102110000310DB0CDA0CE830831689008312891473
:10212000E830831689008312891058080139F700B6
:10213000FA0177087A040319A328E8308316890086
:1021400083120914A828E830831689008312091025
:102150000310D90CD80CE830831689008312891437
:10216000E830831689008312891056080139F70078
:10217000FA0177087A040319C328E8308316890026
:1021800083120914C828E8308316890083120910C5
:102190000310D70CD60CE8308316890083128914FB
:1021A000E8308316890083128910DC036F28E83039
:1021B0008316890083120915E8308316890083127B
:1021C000091155165508831687000430F70083124D
:1021D000F70BE828D5155508831687000330F7005C
:1021E0008312F70BF1280712551255088316870042
:1021F0000430F7008312F70BFB288711D51155081F
:1022000083168700D0308312DE000A12F6260A16E3
:10221000DE010A12F6260A1655165508831687009F
:102220000430F7008312F70B1329D51555088316D0
:1022300087000330F7008312F70B1C29871D1E2926
:10224000071255125508831687000430F7008312D1
:10225000F70B28298711D511550883168700D1302F
:102260008312DE000A12F6260A160130F7000A125F
:1022700052270A1678087F39D600DB000A12A627F3
:102280000A167808BC000130F7000A1252270A1615
:1022900078087F39D600DB000A12A6270A167808CC
:1022A000BB00F7010A1252270A1678083F39D600F8
:1022B000DB000A12A6270A167808BA00551255083C
:1022C0008316870000008312D515550883168700F2
:1022D0008312871D69290430F700F70B6D297029D7
:1022E000000055165508831687000430F700831246
:1022F000F70B782955165508831687000430F70028
:102300008312F70B8129D5155508831687000330F2
:10231000F7008312F70B8A29071255125508831606
:1023200087000430F7008312F70B94298711D51129
:10233000550883168700D0308312DE000A12F62675
:102340000A160330DE000A12F6260A16551655083C
:10235000831687000430F7008312F70BAD29D515DB
:102360005508831687000330F7008312F70BB62950
:10237000871DB829071255125508831687000430A7
:10238000F7008312F70BC2298711D5115508831660
:102390008700D1308312DE000A12F6260A160130B9
:1023A000F7000A1252270A1678080739D600DB0010
:1023B0000A12A6270A167808B9000130F7000A1297
:1023C00052270A1678083F39D600DB000A12A627E2
:1023D0000A167808B6000130F7000A1252270A16CA
:1023E00078081F39D600DB000A12A6270A167808DB
:1023F000B700F7010A1252270A167808D600DB0048
:102400000A12A6270A167808B8005512550883162E
:10241000870000008312D5155508831687008312A4
:10242000871D102A0430F700F70B142A172A000022
:1024300055165508831687000430F7008312F70BF2
:102440001F2A3A08DA000C30DB000A12BA270A16F3
:102450007708C3004308DA000530DB000A12CF27F3
:102460000A167808C3003B08DA000C30DB000A12B9
:10247000BA270A167808C3073A08DA000A30DB00E0
:102480000A12BA270A167808BF003A08DA000A309A
:10249000DB000A12BA270A167708C0003B08DA00E8
:1024A0000A30DB000A12BA270A167808C1003B0876
:1024B000DA000A30DB000A12BA270A167708C200CF
:1024C0003608DA000A30DB000A12BA270A16780842
:1024D000C4003608DA000A30DB000A12BA270A16EE
:1024E0007708C5003708DA000A30DB000A12BA277D
:1024F0000A167808C6003708DA000A30DB000A122C
:10250000BA270A167708C7004E080B3C031D682B34
:10251000D701D6010F30D900F030D800DB01DA0145
:10252000E8308316890083128910E8308316890009
:10253000831209111030DC00DC080319042B2C0B6A
:10254000A22A042B5A080139F700FA0177087A0405
:102550000319B02AE8308316890083120914B52ABA
:10256000E83083168900831209100310DB0CDA0CA3
:10257000E8308316890083128914E83083168900B5
:102580008312891058080139F700FA0177087A0494
:102590000319D02AE8308316890083120914D52A3A
:1025A000E83083168900831209100310D90CD80C67
:1025B000E8308316890083128914E8308316890075
:1025C0008312891056080139F700FA0177087A0456
:1025D0000319F02AE8308316890083120914F52ABA
:1025E000E83083168900831209100310D70CD60C2B
:1025F000E8308316890083128914E8308316890035
:1026000083128910DC039C2AE83083168900831228
:102610000915E8308316890083120911CE013608A6
:10262000D6003708D7003808D8003908D9003A084A
:10263000DA003B08DB003C08DC000A128A15E029BE
:102640000A168A114F30D6000A128A156C220A1611
:102650008A116430D6000A128A1584220A168A1159
:102660004B30D6000A128A156C220A168A11643081
:10267000D6000A128A1584220A168A11E8308316B7
:10268000890083128910E8308316890083120911AA
:10269000E83083168900831209103030D600D6083E
:1026A00003195E2BE8308316890083128914E83001
:1026B0008316890083128910D6034F2BE8308316C6
:1026C000890083120915E8308316890083120911E5
:1026D0003D082C3C031DC92C551655088316870050
:1026E0000430F7008312F70B732BD51555088316AA
:1026F00087000330F7008312F70B7C2B071255126B
:102700005508831687000430F7008312F70B862BD9
:102710008711D511550883168700D0308312DE004B
:102720000A12F6260A16DE010A12F6260A165516AF
:102730005508831687000430F7008312F70B9E2B91
:10274000D5155508831687000330F7008312F70B61
:10275000A72B871DA92B0712551255088316870032
:102760000430F7008312F70BB32B8711D5115508EE
:1027700083168700D1308312DE000A12F6260A166D
:102780000130F7000A1252270A1678087F39D6005E
:10279000DB000A12A6270A167808BC000130F700F1
:1027A0000A1252270A1678087F39D600DB000A126F
:1027B000A6270A167808BB00F7010A1252270A1644
:1027C00078083F39D600DB000A12A6270A167808D7
:1027D000BA00551255088316870000008312D515DC
:1027E0005508831687008312871DF42B0430F700E9
:1027F000F70BF82BFB2B00005516550883168700A6
:102800000430F7008312F70B032C55165508831676
:1028100087000430F7008312F70B0C2CD5155508F0
:10282000831687000330F7008312F70B152C07126D
:1028300055125508831687000430F7008312F70BF2
:102840001F2C8711D511550883168700D0308312AD
:10285000DE000A12F6260A160330DE000A12F626F9
:102860000A1655165508831687000430F7008312A0
:10287000F70B382CD5155508831687000330F70061
:102880008312F70B412C871D432C07125512550854
:10289000831687000430F7008312F70B4D2C871145
:1028A000D511550883168700D1308312DE000A1235
:1028B000F6260A160130F7000A1252270A1678087F
:1028C0000739D600DB000A12A6270A167808B900D5
:1028D0000130F7000A1252270A1678083F39D6004D
:1028E000DB000A12A6270A167808B6000130F700A6
:1028F0000A1252270A1678081F39D600DB000A127E
:10290000A6270A167808B700F7010A1252270A16F6
:102910007808D600DB000A12A6270A167808B80045
:10292000551255088316870000008312D5155508E7
:10293000831687008312871D9B2C0430F700F70B4A
:102940009F2CA22C000055165508831687000430D2
:10295000F7008312F70BAA2C3A08DA000C30DB00E0
:102960000A12BA270A167708C3004308DA000530AE
:10297000DB000A12CF270A167808C3003B08DA00EA
:102980000C30DB000A12BA270A167808C307013098
:10299000BD003C083B3C0318AC2DBC01BB0A3B0806
:1029A0003B3C0318882DBB0155165508831687003C
:1029B0000430F7008312F70BDB2CD515550883166E
:1029C00087000330F7008312F70BE42C071255122F
:1029D0005508831687000430F7008312F70BEE2C9E
:1029E0008711D511550883168700D0308312DE0079
:1029F0000A12F6260A16DE010A12F6260A165516DD
:102A00005508831687000430F7008312F70B062D54
:102A1000D5155508831687000330F7008312F70B8E
:102A20000F2D871D112D071255125508831687008B
:102A30000430F7008312F70B1B2D8711D5115508B1
:102A400083168700D1308312DE000A12F6260A169A
:102A50000130F7000A1252270A1678087F39D6008B
:102A6000DB000A12A6270A167808BC000130F7001E
:102A70000A1252270A1678087F39D600DB000A129C
:102A8000A6270A167808BB00F7010A1252270A1671
:102A900078083F39D600DB000A12A6270A16780804
:102AA000BA00551255088316870000008312D51509
:102AB0005508831687008312871D5C2D0430F700AC
:102AC000F70B602D632D00005516550883168700FF
:102AD0000430F7008312F70B6B2D3A08DA000C3044
:102AE000DB000A12BA270A167708C3004308DA0087
:102AF0000530DB000A12CF270A167808C3003B080E
:102B0000DA000C30DB000A12BA270A167808C3076D
:102B10003A08DA000A30DB000A12BA270A167808E7
:102B2000BF003A08DA000A30DB000A12BA270A1698
:102B30007708C0003B08DA000A30DB000A12BA2727
:102B40000A167808C1003B08DA000A30DB000A12D6
:102B5000BA270A167708C2002C0BDC2EAC01350808
:102B60000139013C031DDE2DE830831689008312F4
:102B70008910E8308316890083120911E830831622
:102B80008900831209103030D600D6080319D42DDD
:102B9000E8308316890083128914E830831689008F
:102BA00083128910D603C52DE8308316890083125D
:102BB0000915E8308316890083120911BE0A013015
:102BC000AD003C30AE0083102B08D9002A08D80095
:102BD0002908D7002808D600DD01DC010130DB0020
:102BE000E030DA000A128A15982A0A168A11770844
:102BF000003CD6000130D7000030031C0130D70262
:102C0000FA013108F700F71BFA035607AF0057081F
:102C1000B0007A0803187A0FB007AC08031DDC2E49
:102C2000AE080319DC2E2D0BDB2E2F088100AD0121
:102C30000A128A15E92A0A168A115008D7004F0885
:102C4000D6005208D9005108D8005408DB005308B8
:102C5000DA00E8308316890083128910E830831681
:102C60008900831209111030DC00DC0803199D2E45
:102C70002C0B3B2E9D2E5A080139F700FA017708DC
:102C80007A040319492EE830831689008312091447
:102C90004E2EE83083168900831209100310DB0CD6
:102CA000DA0CE8308316890083128914E830831621
:102CB00089008312891058080139F700FA01770852
:102CC0007A040319692EE8308316890083120914E7
:102CD0006E2EE83083168900831209100310D90C78
:102CE000D80CE8308316890083128914E8308316E3
:102CF00089008312891056080139F700FA01770814
:102D00007A040319892EE830831689008312091486
:102D10008E2EE83083168900831209100310D70C19
:102D2000D60CE8308316890083128914E8308316A4
:102D3000890083128910DC03352EE8308316890060
:102D400083120915E83083168900831209113508AA
:102D50000139013C031DDA2E2E08013C0318DA2E3E
:102D6000E8308316890083128910E83083168900C1
:102D700083120911E830831689008312091030305C
:102D8000D600D6080319D02EE830831689008312A6
:102D90008914E8308316890083128910D603C12E66
:102DA000E8308316890083120915E83083168900FC
:0C2DB00083120911AE030D2E842A63006B
:04400E00E22CFF3F62
:00000001FF
;PIC16F887
;CRC=1EB6  CREATED="24-Apr-14 13:40"
