:1000000010308A0000280000FF00030E8301A100C9
:100010000A08A0008A010408A2007708A300780853
:10002000A4007908A5007A08A6007B08A70083131E
:1000300083128C308400001D1F280C1956288B1E3B
:1000400023280B1959280B1E27288B184D288B1D88
:100050002B280B184A288C308400801E31288C1ADB
:1000600050288C308400001C37280C185328220894
:1000700084002308F7002408F8002508F900260862
:10008000FA002708FB0020088A00210E8300FF0EDB
:100090007F0E09008A110A12762A8A110A126F2A23
:1000A0008A110A12AC2A8A110A12162B8A110A1214
:1000B0001B2B8A110A128A2B0A108A100A11820736
:1000C000F834033408340234F83403344034003450
:1000D00020340034F8340334C83403344834023450
:1000E000783402344834023448340234F834033467
:1000F0007834003440340034F83403347834023433
:1001000048340234C8340334F834033448340234F5
:10011000C83403340834003408340034F834033469
:10012000F834033448340234F83403347834023475
:1001300048340234F83403340A108A100A11820752
:10014000F834033408340234F8340334F834033414
:100150000034013480340034C83403344834023469
:1001600078340234F83403344834023448340234E6
:10017000F834033440340034C03403347834023467
:1001800048340234C83403347834023448340234F6
:10019000F8340334F83403340034023400340234C5
:1001A000F834033448340234F8340334F834033474
:1001B00048340234C8340334FB0000307A078A0024
:1001C0007B08E53E03188A0A82000034E034D83404
:1001D000E034003400340034C0347034C0340034AF
:1001E0000034003480340034803418340034003457
:1001F00080340034803418340034003480340034C7
:100200008034F83407340034C0340034C034F83457
:1002100007340034E0340034E0341834003400345F
:10022000C0340034C0341834003400348034003416
:10023000803400340034003480340034803400349E
:10024000003400348034003480340034003400340E
:10025000C0340034C034003400340034E03400349E
:10026000E034003400340034C0340034C03400348E
:1002700000340034803400348034003400340034DE
:10028000803400348034003400340034803400344E
:100290008034003400340034C0340034C0340034BE
:1002A00000340034E0340034E034003400340034EE
:1002B000C0340034C034003400340034803400349E
:1002C000803400340034003480340034803400340E
:1002D0000034013480340034803401340034033479
:1002E000C0340034C034033400340734E034003404
:1002F000E034073400340F34C0340034C0340F34D9
:1003000000341F348034003480341F3400343F34D0
:100310008034003480343F3400347F3480340034FF
:1003200080347F340034FF34C0340034C034FF34B0
:1003300000347F34E0340034E0347F3400343F3420
:10034000C0340034C0343F3400341F3480340034AF
:1003500080341F3400340F348034003480340F3440
:1003600000340734803400348034073400340334DC
:10037000C0340034C034033400340134E034003479
:10038000E034013400340034C0340034C03400346C
:1003900000340034803400348034003400340034BD
:1003A000803400348034003400340034803400342D
:1003B0008034003400340034C0340034C03400349D
:1003C00000340034E0340034E034003400340034CD
:1003D000C0340034C034003400340034803400347D
:1003E00080340034003400348034003480340034ED
:1003F000003400348034003480340034003400345D
:10040000C0340034C034003400340034E0340034EC
:10041000E034003400340034C0340034C0340034DC
:10042000003400348034003480340034003400342C
:10043000803400348034003400340034803400349C
:10044000803400340034F834C7340034C03400340D
:100450000034F834E7340034E03400340034D83465
:10046000C0340034C03400340034D8348034003414
:100470008034003400341834803400348034003444
:10048000003400348034F8348734003400340034CD
:10049000C034F834C734003400340A108A140A1106
:1004A0008207F034013408340234F8340334003461
:1004B00000344834023448340234F834033400340D
:1004C00000340834003408340034F8340334003481
:1004D000003440340034A0340034F83400340130A7
:1004E000BE07BD0A8B108A110A123728FF30831607
:1004F000860083120608B30034083306F10033087F
:10050000B400711D862A0230B500B601F11D8B2A98
:100510000330B500B601711E982A0430B500360BC1
:10052000932AB601982AB608031D982A0130B6000E
:10053000F11EA82A0530B500B6014A0BA22AFF30E9
:10054000CA00A82A4A08FF3C031DA82A0130CA0095
:100550000B108A110A1237288C1EAC2A1A08CD00FB
:100560004E080319D22A013A0319D92A033A03196A
:10057000E02A013A0319E52A073A0319EA2A013A5F
:100580000319EF2A033A0319F42A013A0319F92A45
:100590000F3A0319FE2A013A0319032B033A0319F0
:1005A0000A2B112B4D08533C031DD82A0130CE00D5
:1005B000122B4D08543C031DDF2A0230CE00122BB3
:1005C0004D08B7000330CE00122B4D08B8000430A0
:1005D000CE00122B4D08B9000530CE00122B4D086D
:1005E000BA000630CE00122B4D08BB000730CE00FB
:1005F000122B4D08BC000830CE00122B4D08BD0058
:100600000930CE00122B4D08453C031D092B0A3042
:10061000CE00122B4D08443C031D102B0B30CE0096
:10062000122B122B8C128A110A123728A80A0C10CE
:100630008A110A123728F401F301F2012808F100A7
:1006400074088316A3007308A2007208A100710841
:10065000A000A701A601FF30A500FF30A40083126F
:1006600020308316AC00A801A901AA01AB01230820
:10067000FA002208F9002108F8002008F700831288
:100680000310771C532B83162408A807250803188A
:10069000250FA90726080318260FAA0727080318FD
:1006A000270FAB0783128316AB0CAA0CA90CA80C5E
:1006B000FA0CF90CF80CF70CAC0B602B622B8312C4
:1006C0008312402B83127A08F4007908F30078082B
:1006D000F2007708F10015087107A9007208AA0056
:1006E00016080318160FAA077308AB00003003188A
:1006F0000130AB077408AC00003003180130AC07C0
:10070000A8018E018F018E010130AD000C118A11FC
:100710000A1237280130AE000B118A110A1237284D
:10072000A801AC01AB01AA01A901AD01B3013308D5
:10073000B4000630B2000230B500B6010130BE0090
:10074000BF011F30C9000130CA00CC01CB01CE016E
:100750008A110A1622280830F8000430F700F70B37
:10076000AF2B8711D5115508831687000330F7008A
:100770008312F70BB92BDE0D0712031CC52B551680
:100780005508831687008312CA2B55125508831605
:10079000870083120000D515550883168700831241
:1007A000871DD02BF80BAD2B0430F700F70BD62BA1
:1007B0008711D5115508831687000000831255163E
:1007C0005508831687000330F7008312F70BE62BDA
:1007D0000330F700F70BEA2BD51555088316870071
:1007E0008312871DF12BF8010330F700F70BF62B6E
:1007F000071A78148711D5115508831687008312BC
:100800000712551255088316870083120800083016
:10081000DB007708DC005516550883168700033087
:10082000F7008312F70B122CD51555088316870095
:100830008312871D192C071A0314071E0310F80DC5
:100840000430F700F70B222CD511550883168700CA
:1008500083128711DB0B0B2C551655088316870066
:100860000330F7008312F70B332C07125C080319CF
:100870003E2C551255088316870083120000D515AB
:100880005508831687008312871D442C0430F70017
:10089000F70B482C8711D5115508831687000330B4
:1008A000F7008312F70B522C0712551255088316C6
:1008B000870083120800D601551655088316870055
:1008C0000430F7008312F70B632CD51555088316F7
:1008D00087000330F7008312F70B6C2C07125512B8
:1008E0005508831687000430F7008312F70B762C27
:1008F0008711D511550883168700D0308312DE008A
:10090000AB23DE01AB235516550883168700043050
:10091000F7008312F70B8A2CD5155508831687002C
:100920000330F7008312F70B932C871D952C0712C9
:1009300055125508831687000430F7008312F70B11
:100940009F2C8711D511550883168700D13083124B
:10095000DE00AB23F70107247808D60055125508AE
:100960008316870000008312D5155508831687006B
:100970008312871DB92C0430F700F70BBD2CC02C57
:10098000000055165508831687000430F7008312BF
:10099000F70BC82CD6130430F700F70BCD2CD02C56
:1009A00055165508831687000430F7008312F70B9D
:1009B000D72CD5155508831687000330F70083120E
:1009C000F70BE02C071255125508831687000430E8
:1009D000F7008312F70BEA2C8711D51155088316FF
:1009E0008700D0308312DE00AB23DE01AB23560834
:1009F000DE00AB23551255088316870000008312D2
:100A0000D5155508831687008312871D052D0430E0
:100A1000F700F70B092D0C2D00005516550883160D
:100A200087000430F7008312F70B142D0430F70011
:100A3000F70B182D1B2D551655088316870004300B
:100A4000F7008312F70B222DD51555088316870062
:100A50000330F7008312F70B2B2D071255125508A0
:100A6000831687000430F7008312F70B352D8711AA
:100A7000D511550883168700D0308312DE00AB23D2
:100A80000730DE00AB231030DE00AB2355125508D3
:100A90008316870000008312D5155508831687003A
:100AA0008312871D512D0430F700F70B552D582D5B
:100AB000000055165508831687000430F70083128E
:100AC000F70B602D8A110A1649285B08DC00F0300C
:100AD000DC0503105C0CDD005C0CF700F70CF70C78
:100AE0001F30F7057708DD075B080F395D07F80051
:100AF00008005908F80158020318812D5808F7001A
:100B00008D2DF7010830DA00D80DF70D590877025E
:100B10000318F700F80DDA0B842D0800F701F8012F
:100B2000580803105918F707F70CF80CD918F707ED
:100B3000F70CF80C5919F707F70CF80CD919F70747
:100B4000F70CF80C591AF707F70CF80CD91AF70735
:100B5000F70CF80C591BF707F70CF80CD91BF70723
:100B6000F70CF80C08005D08DE00DF01E001E10190
:100B7000E5016508073C031C4D2E6008F70061087D
:100B8000F800F901FA0177080F39E200FA01610C67
:100B9000F900600CF8005F0CF700F90CF80CF70C8A
:100BA000F90CF80CF70CF90CF80CF70C0F30F905F0
:100BB00077080F39E3005F08F7006008F800610864
:100BC000F900FA0177080F39E4006208043C0318C1
:100BD000EB2D0330E2076308043C0318F12D0330CA
:100BE000E3076408043C0318F72D0330E407E90128
:100BF000E801E7016208E6006708E9006608E80026
:100C0000E601E701EE01ED01EC016308EB00F701FD
:100C10006B0DF8006C0DF9006D0DFA00F80DF90D73
:100C2000FA0DF80DF90DFA0DF80DF90DFA0DF03079
:100C3000F8057708E6047808E7047908E8047A08F4
:100C4000E904EE01ED01EC016408EB006D08FA0027
:100C50006C08F9006B08F800F7017708E6047808DB
:100C6000E7047908E8047A08E9045E08F700F80167
:100C7000F901FA0177086604DE0078086704DF00EE
:100C800079086804E0007A086904E1000310DE0DC9
:100C9000DF0DE00DE10DE50AB92DFA01610CF90057
:100CA000600CF8005F0CF700F90CF80CF70CF90C6D
:100CB000F80CF70CF90CF80CF70C0F30F905770865
:100CC0000F39E3005F08F7006008F8006108F900D9
:100CD000FA0177080F39E400630EE600F030E6050C
:100CE00064080F396604F8000800DC133F30DA05A9
:100CF00055165508831687000430F7008312F70B4A
:100D00007F2ED5155508831687000330F700831210
:100D1000F70B882E071255125508831687000430EA
:100D2000F7008312F70B922E8711D5115508831601
:100D30008700D0308312DE00AB23DE01AB235C08DA
:100D4000DD00B3257808DD00DE00AB235B08DD00A5
:100D5000B3257808DD00DE00AB235A08DD00B3259B
:100D60007808DD00DE00AB235908DD00B3257808E4
:100D7000DD00DE00AB235608DD00B3257808DD007A
:100D8000DE00AB235708DD00B3257808DD00DE0068
:100D9000AB235808DD00B3257808DD00DE00AB2367
:100DA000551255088316870000008312D515550883
:100DB000831687008312871DDB2E0430F700F70BA4
:100DC000DF2EE22E000055165508831687000430EA
:100DD000F7008312F70BEA2E8A110A16172B083038
:100DE000F800D7015608F7007708D706F70CF80B7C
:100DF000F42E0C1EF92EFE30831698058312571C14
:100E0000042F8316181483125608990008005630D0
:100E100084008313000803191A2F0630F800F70125
:100E2000F70B102FF80B0F2F7B30F700F70B162F57
:100E3000800B0D2F08008318202F5E308400831351
:100E4000F701F801F901FA01DE01DF01E001E1013A
:100E50005D085C045B045A0403195E2F2030E20035
:100E60000310D60DD70DD80DD90DDE0DDF0DE00D19
:100E7000E10D5D086102031D472F5C086002031D40
:100E8000472F5B085F02031D472F5A085E02031CB1
:100E9000582F5A08DE025B08031C5B0FDF025C0858
:100EA000031C5C0FE0025D08031C5D0FE1020314EC
:100EB000F70DF80DF90DFA0DE20B302F5E088000EA
:100EC000840A5F088000840A60088000840A610840
:080ED00080008A110A16DD2DD5
:101000003508023C031D4E282F08D6002F083C3C13
:10101000031D0B28D601D0010130CF00D2010130D1
:10102000D100D4010130D3002F08D8000530D900F9
:101030008A1179258A15F708031D2728D001033066
:10104000CF00D2010330D100D4010330D3002F08E8
:10105000D8000F30D9008A1179258A15F708031DA9
:101060003728D0010730CF00D2010730D100440823
:101070005602031D3E28FC30D000CF013C0856022A
:10108000031D4528FF30D200D1013D085602031D43
:101090004D28FF30D400F130D300DE2B3508043C5E
:1010A000031DAF282F08103C031D5728AF032F083E
:1010B000D8000330D9008A118E258A1503307802B2
:1010C000FA01F9000310F90DFA0D7908D8008A1118
:1010D000DC208A15F700580A8A11DC208A15FA00EC
:1010E0007708CF007A08D0002F08D8000330D90045
:1010F0008A118E258A1502307802FA01F900031050
:10110000F90DFA0D7908D8008A11DC208A15F7004C
:10111000580A8A11DC208A15FA007708D1007A086B
:10112000D2002F08D8000330D9008A118E258A15E5
:1011300001307802FA01F9000310F90DFA0D79086F
:10114000D8008A11DC208A15F700580A8A11DC20A1
:101150008A15FA007708D3007A08D400DE2B350808
:10116000033C031D4E2B8030D200D1012F08343AAE
:1011700003190C29013A03192229033A03193929C1
:101180000E3A03195029013A03196629033A031943
:101190007D29383A03199429013A0319AA29073AF3
:1011A0000319C129023A0319D829013A0319EE2972
:1011B0000F3A0319052A343A03191C2A1B3A03195A
:1011C0002C2A013A0319432A033A03195A2A063AE8
:1011D0000319702A013A0319872A033A03199E2A30
:1011E0003A3A0319B42A013A0319CB2A033A0319EC
:1011F000E22A0E3A0319F82A013A03190F2B033A8F
:101200000319262B083A03193C2B033A0319402BE8
:10121000013A0319442B482B4008D8000630D90066
:101220008A118E258A157808D800580A8A115C2000
:101230008A15FA0058088A115C208A15D3007A08AA
:10124000D4004D2B4008D8000630D9008A118E25D5
:101250008A1502307807D800580A8A115C208A154E
:10126000FA0058088A115C208A15D3007A08D40045
:101270004D2B4008D8000630D9008A118E258A15DA
:1012800004307807D800580A8A115C208A15FA00C1
:1012900058088A115C208A15D3007A08D4004D2B97
:1012A0004108D8000630D9008A118E258A157808A1
:1012B000D800580A8A115C208A15FA0058088A1149
:1012C0005C208A15D3007A08D4004D2B4108D80041
:1012D0000630D9008A118E258A1502307807D80089
:1012E000580A8A115C208A15FA0058088A115C2075
:1012F0008A15D3007A08D4004D2B4108D800063057
:10130000D9008A118E258A1504307807D800580A2A
:101310008A115C208A15FA0058088A115C208A1507
:10132000D3007A08D4004D2B4208D8000630D900EB
:101330008A118E258A157808D800580A8A115C20EF
:101340008A15FA0058088A115C208A15D3007A0899
:10135000D4004D2B4208D8000630D9008A118E25C2
:101360008A1502307807D800580A8A115C208A153D
:10137000FA0058088A115C208A15D3007A08D40034
:101380004D2B4208D8000630D9008A118E258A15C7
:1013900004307807D800580A8A115C208A15FA00B0
:1013A00058088A115C208A15D3007A08D4004D2B86
:1013B0004308D8000630D9008A118E258A1578088E
:1013C000D800580A8A115C208A15FA0058088A1138
:1013D0005C208A15D3007A08D4004D2B4308D8002E
:1013E0000630D9008A118E258A1502307807D80078
:1013F000580A8A115C208A15FA0058088A115C2064
:101400008A15D3007A08D4004D2B4308D800063043
:10141000D9008A118E258A1504307807D800580A19
:101420008A115C208A15FA0058088A115C208A15F6
:10143000D3007A08D4004D2B3F080E3C031C242A0D
:10144000D401A030D300262AD401D3013F081E3C8A
:1014500003182B2ABF014D2B4508D8000630D900B0
:101460008A118E258A1504307807D800580A8A1107
:101470009C208A15FA0058088A119C208A15CF00F2
:101480007A08D0004D2B4508D8000630D9008A11C3
:101490008E258A1502307807D800580A8A119C20B8
:1014A0008A15FA0058088A119C208A15CF007A08FC
:1014B000D0004D2B4508D8000630D9008A118E2562
:1014C0008A157808D800580A8A119C208A15FA00D3
:1014D00058088A119C208A15CF007A08D0004D2B1D
:1014E0004608D8000630D9008A118E258A150430A6
:1014F0007807D800580A8A119C208A15FA005808E3
:101500008A119C208A15CF007A08D0004D2B4608FE
:10151000D8000630D9008A118E258A150230780746
:10152000D800580A8A119C208A15FA0058088A1196
:101530009C208A15CF007A08D0004D2B4608D80091
:101540000630D9008A118E258A157808D800580AE5
:101550008A119C208A15FA0058088A119C208A1545
:10156000CF007A08D0004D2B4708D8000630D900AC
:101570008A118E258A1504307807D800580A8A11F6
:101580009C208A15FA0058088A119C208A15CF00E1
:101590007A08D0004D2B4708D8000630D9008A11B0
:1015A0008E258A1502307807D800580A8A119C20A7
:1015B0008A15FA0058088A119C208A15CF007A08EB
:1015C000D0004D2B4708D8000630D9008A118E254F
:1015D0008A157808D800580A8A119C208A15FA00C2
:1015E00058088A119C208A15CF007A08D0004D2B0C
:1015F0004808D8000630D9008A118E258A15043093
:101600007807D800580A8A119C208A15FA005808D1
:101610008A119C208A15CF007A08D0004D2B4808EB
:10162000D8000630D9008A118E258A150230780735
:10163000D800580A8A119C208A15FA0058088A1185
:101640009C208A15CF007A08D0004D2B4808D8007E
:101650000630D9008A118E258A157808D800580AD4
:101660008A119C208A15FA0058088A119C208A1534
:10167000CF007A08D0004D2BD0014030CF004D2B49
:10168000D0014030CF004D2BD0014030CF004D2B4A
:10169000D401D301D001CF014D2BDE2B3508053C01
:1016A000031DDE2BD001CF01D201D101D401D30122
:1016B00049082F020E3ED70049080E3C031C662B3A
:1016C00057083B3C0318662B3C30D70257080E3CAA
:1016D000031CC42B57080B3C03187E2B0310570D1B
:1016E000D800580A8A114D228A15FA0058088A1122
:1016F0004D228A15CF007A08D000C42B5708073C2A
:101700000318922B0310570DD800580A8A114D2246
:101710008A15FA0058088A114D228A15D1007A08D4
:10172000D200C42B5708033C0318A62B0310570DF7
:10173000D800580A8A114D228A15FA0058088A11D1
:101740004D228A15D3007A08D400C42B0310570DFC
:10175000D800580A8A114D228A15FA0058088A11B1
:101760004D228A15D1007A08D2000310570DD800F7
:10177000580A8A114D228A15FA0058088A114D22FA
:101780008A15D3007A08D400CB0A0319CC0ACC08F6
:10179000031DCE2B4B08783C0318D22BCC01CB0178
:1017A0004A08C907C908031DD82B3C30C900DE2BE5
:1017B00049083D3C031DDE2B0130C9008A110A1681
:0217C000022EF7
:1020000003081F3983008316031787114030031319
:102010009900E6309800D03083129800FF30D50048
:10202000831603170908C039890003131F129F1272
:102030000030031788008312870188018901031388
:102040000A12902B0A161530900055155508831664
:102050008700831297010430970083169B019C012F
:1020600001309D000108C0390338810083128B15AF
:102070003C308316960483120B1683160C140C1531
:1020800083128B1683168C16C03083128B040A12AF
:102090005B2C0A16F030D0000F30CF000F30D2008A
:1020A0000F30D100D401FF30D3005008D7004F08C3
:1020B000D6005208D9005108D8005408DB00530854
:1020C000DA00E8308316890083128910E83083161D
:1020D0008900831209111030DC00DC080319D228B2
:1020E0005A080139F700FA0177087A0403197E28A3
:1020F000E83083168900831209148328E830831698
:102100008900831209100310DB0CDA0CE830831607
:10211000890083128914E83083168900831289109C
:1021200058080139F700FA0177087A0403199E2844
:10213000E8308316890083120914A328E830831637
:102140008900831209100310D90CD80CE8308316CB
:10215000890083128914E83083168900831289105C
:1021600056080139F700FA0177087A040319BE28E6
:10217000E8308316890083120914C328E8308316D7
:102180008900831209100310D70CD60CE83083168F
:10219000890083128914E83083168900831289101C
:1021A000DC036D28E8308316890083120915E830B6
:1021B0008316890083120911551655088316870066
:1021C0000430F7008312F70BE328D5155508831662
:1021D00087000330F7008312F70BEC280712551223
:1021E0005508831687000430F7008312F70BF62892
:1021F0008711D511550883168700D0308312DE0071
:102200000A12AB230A16DE010A12AB230A16551670
:102210005508831687000430F7008312F70B0E2948
:10222000D5155508831687000330F7008312F70B86
:102230001729871D1929071255125508831687007B
:102240000430F7008312F70B23298711D5115508A5
:1022500083168700D1308312DE000A12AB230A16E0
:102260000130F7000A1207240A1678087F39D600D1
:10227000DB000A1265250A167808BD000130F70058
:102280000A1207240A1678087F39D600DB000A12E2
:1022900065250A167808BC00F7010A1207240A16F9
:1022A00078083F39D600DB000A1265250A1678083F
:1022B000BB00551255088316870000008312D51500
:1022C0005508831687008312871D64290430F700A0
:1022D000F70B68296B2900005516550883168700EF
:1022E0000430F7008312F70B73295516550883162F
:1022F00087000430F7008312F70B7C29D5155508A9
:10230000831687000330F7008312F70B8529071225
:1023100055125508831687000430F7008312F70B17
:102320008F298711D511550883168700D030831265
:10233000DE000A12AB230A160330DE000A12AB23BA
:102340000A1655165508831687000430F7008312C5
:10235000F70BA829D5155508831687000330F70019
:102360008312F70BB129871DB3290712551255089F
:10237000831687000430F7008312F70BBD298711FD
:10238000D511550883168700D1308312DE000A125A
:10239000AB230A160130F7000A1207240A16780840
:1023A0000739D600DB000A1265250A167808BA003C
:1023B0000130F7000A1207240A1678083F39D600C0
:1023C000DB000A1265250A167808B7000130F7000D
:1023D0000A1207240A1678081F39D600DB000A12F1
:1023E00065250A167808B800F7010A1207240A16AC
:1023F0007808D600DB000A1265250A167808B900AD
:10240000551255088316870000008312D51555080C
:10241000831687008312871D0B2A0430F700F70B01
:102420000F2A122A0000551655088316870004301B
:10243000F7008312F70B1A2A3B08D8000C30D9009A
:102440000A1279250A167708C4004408D800053016
:10245000D9000A128E250A167808C4003C08D80054
:102460000C30D9000A1279250A167808C4073B08EF
:10247000D8000A30D9000A1279250A167808C00057
:102480003B08D8000A30D9000A1279250A167708C5
:10249000C1003C08D8000A30D9000A1279250A1672
:1024A0007808C2003C08D8000A30D9000A12792501
:1024B0000A167708C3003708D8000A30D9000A1274
:1024C00079250A167808C5003708D8000A30D900DF
:1024D0000A1279250A167708C6003808D8000A308B
:1024E000D9000A1279250A167808C7003808D800DA
:1024F0000A30D9000A1279250A167708C8004E0852
:102500000B3C031D562BD701D6010F30D900F030FC
:10251000D800DB01DA01E8308316890083128910C4
:10252000E83083168900831209111030DC00DC08C2
:102530000319FC2A5A080139F700FA0177087A04CE
:102540000319A82AE8308316890083120914AD2ADA
:10255000E83083168900831209100310DB0CDA0CB3
:10256000E8308316890083128914E83083168900C5
:102570008312891058080139F700FA0177087A04A4
:102580000319C82AE8308316890083120914CD2A5A
:10259000E83083168900831209100310D90CD80C77
:1025A000E8308316890083128914E8308316890085
:1025B0008312891056080139F700FA0177087A0466
:1025C0000319E82AE8308316890083120914ED2ADA
:1025D000E83083168900831209100310D70CD60C3B
:1025E000E8308316890083128914E8308316890045
:1025F00083128910DC03972AE8308316890083123E
:102600000915E8308316890083120911CE013708B5
:10261000D6003808D7003908D8003A08D9003B0856
:10262000DA003C08DB003D08DC000A12752E0A16B1
:102630004F30D6000A12EF260A166430D6000A126E
:1026400007270A164B30D6000A12EF260A16643006
:10265000D6000A1207270A16E8308316890083126B
:102660008910E8308316890083120911E830831637
:102670008900831209103030D600D60803194C2B7C
:10268000E8308316890083128914E83083168900A4
:1026900083128910D6033D2BE830831689008312FC
:1026A0000915E83083168900831209113E082C3C75
:1026B000031DB72C55165508831687000430F70004
:1026C0008312F70B612BD51555088316870003304D
:1026D000F7008312F70B6A2B071255125508831661
:1026E00087000430F7008312F70B742B8711D51184
:1026F000550883168700D0308312DE000A12AB2300
:102700000A16DE010A12AB230A165516550883165F
:1027100087000430F7008312F70B8C2BD515550872
:10272000831687000330F7008312F70B952B871D64
:10273000972B071255125508831687000430F700AF
:102740008312F70BA12B8711D5115508831687002B
:10275000D1308312DE000A12AB230A160130F700D3
:102760000A1207240A1678087F39D600DB000A12FD
:1027700065250A167808BD000130F7000A12072403
:102780000A1678087F39D600DB000A1265250A167A
:102790007808BC00F7010A1207240A1678083F39A6
:1027A000D600DB000A1265250A167808BB00551210
:1027B00055088316870000008312D5155508831627
:1027C00087008312871DE22B0430F700F70BE62BFE
:1027D000E92B000055165508831687000430F700D2
:1027E0008312F70BF12B551655088316870004301A
:1027F000F7008312F70BFA2BD515550883168700BF
:102800000330F7008312F70B032C071255125508FB
:10281000831687000430F7008312F70B0D2C871105
:10282000D511550883168700D0308312DE000A12B6
:10283000AB230A160330DE000A12AB230A16551624
:102840005508831687000430F7008312F70B262CF7
:10285000D5155508831687000330F7008312F70B50
:102860002F2C871D312C071255125508831687000F
:102870000430F7008312F70B3B2C8711D511550854
:1028800083168700D1308312DE000A12AB230A16AA
:102890000130F7000A1207240A1678080739D60013
:1028A000DB000A1265250A167808BA000130F70025
:1028B0000A1207240A1678083F39D600DB000A12EC
:1028C00065250A167808B7000130F7000A120724B8
:1028D0000A1678081F39D600DB000A1265250A1689
:1028E0007808B800F7010A1207240A167808D600FB
:1028F000DB000A1265250A167808B900551255083A
:102900008316870000008312D515550883168700AB
:102910008312871D892C0430F700F70B8D2C902C27
:10292000000055165508831687000430F7008312FF
:10293000F70B982C3B08D8000C30D9000A127925E7
:102940000A167708C4004408D8000530D9000A12D6
:102950008E250A167808C4003C08D8000C30D9002F
:102960000A1279250A167808C4070130BE003D080E
:102970003B3C03189A2DBD01BC0A3C083B3C0318A4
:10298000762DBC0155165508831687000430F700D4
:102990008312F70BC92CD515550883168700033011
:1029A000F7008312F70BD22C071255125508831625
:1029B00087000430F7008312F70BDC2C8711D51148
:1029C000550883168700D0308312DE000A12AB232D
:1029D0000A16DE010A12AB230A165516550883168D
:1029E00087000430F7008312F70BF42CD515550837
:1029F000831687000330F7008312F70BFD2C871D29
:102A0000FF2C071255125508831687000430F70073
:102A10008312F70B092D8711D511550883168700EE
:102A2000D1308312DE000A12AB230A160130F70000
:102A30000A1207240A1678087F39D600DB000A122A
:102A400065250A167808BD000130F7000A12072430
:102A50000A1678087F39D600DB000A1265250A16A7
:102A60007808BC00F7010A1207240A1678083F39D3
:102A7000D600DB000A1265250A167808BB0055123D
:102A800055088316870000008312D5155508831654
:102A900087008312871D4A2D0430F700F70B4E2D57
:102AA000512D000055165508831687000430F70095
:102AB0008312F70B592D3B08D8000C30D9000A12AD
:102AC00079250A167708C4004408D8000530D900D3
:102AD0000A128E250A167808C4003C08D8000C306B
:102AE000D9000A1279250A167808C4073B08D800CD
:102AF0000A30D9000A1279250A167808C0003B0866
:102B0000D8000A30D9000A1279250A167708C100C0
:102B10003C08D8000A30D9000A1279250A1678082C
:102B2000C2003C08D8000A30D9000A1279250A16DA
:102B30007708C3002D0BBE2EAD01E8308316890047
:102B400083128910E8308316890083120911E83056
:102B500083168900831209103030D600D608031975
:102B6000BD2DE8308316890083128914E83083165E
:102B7000890083128910D603AE2DE83083168900B0
:102B800083120915E8308316890083120911BF0AE0
:102B90000130AE003C30AF0083102C08D9002B0868
:102BA000D8002A08D7002908D600DD01DC01013051
:102BB000DB00E030DA000A121B2F0A167708003C0F
:102BC000D6000130D7000030031C0130D702FA01D3
:102BD0003208F700F71BFA035607B0005708B10098
:102BE0007A0803187A0FB107AD08031DBE2EAF088F
:102BF0000319BE2E2E0BBD2E30088100AE010A1225
:102C00008A1500280A168A115008D7004F08D600E6
:102C10005208D9005108D8005408DB005308DA00E4
:102C2000E8308316890083128910E8308316890002
:102C3000831209111030DC00DC080319812E5A08B8
:102C40000139F700FA0177087A0403192D2EE830CC
:102C50008316890083120914322EE8308316890006
:102C6000831209100310DB0CDA0CE830831689009C
:102C700083128914E830831689008312891058085A
:102C80000139F700FA0177087A0403194D2EE8306C
:102C90008316890083120914522EE83083168900A6
:102CA000831209100310D90CD80CE8308316890060
:102CB00083128914E830831689008312891056081C
:102CC0000139F700FA0177087A0403196D2EE8300C
:102CD0008316890083120914722EE8308316890046
:102CE000831209100310D70CD60CE8308316890024
:102CF00083128914E8308316890083128910DC035B
:102D00001C2EE8308316890083120915E8308316DB
:102D1000890083120911B608031DBC2E2F08013C3F
:102D20000318BC2EE8308316890083128910E8301E
:102D30008316890083120911E830831689008312F3
:102D400009103030D600D6080319B22EE8308316A9
:102D5000890083128914E830831689008312891050
:102D6000D603A32EE8308316890083120915E830B4
:102D70008316890083120911AF03F42D7F2A6300A3
:04400E00E22CFF3F62
:00000001FF
;PIC16F887
;CRC=D4C5  CREATED="14-Apr-14 18:40"
