:1000000010308A0000280000FF00030E8301A100C9
:100010000A08A0008A010408A2007708A300780853
:10002000A4007908A5007A08A6007B08A70083131E
:1000300083128C308400001D1F280C195F288B1E32
:1000400023280B1962280B1E27288B1853288B1D79
:100050002B280B1850288C308400001E31280C1AD5
:1000600056288C308400801E37288C1A59288C30F2
:100070008400001C3D280C185C28220884002308FA
:10008000F7002408F8002508F9002608FA002708D8
:10009000FB0020088A00210E8300FF0E7F0E09005E
:1000A0008A110A12A32A8A110A129C2A8A110A1298
:1000B000C22A8A110A12C62A8A110A12CA2A8A1167
:1000C0000A12CF2A8A110A12322B0A108A100A1138
:1000D0008207F834033408340234F83403344034EB
:1000E000003420340034F8340334C8340334483442
:1000F0000234783402344834023448340234F83458
:1001000003347834003440340034F8340334783421
:10011000023448340234C8340334F83403344834E5
:100120000234C83403340834003408340034F8345A
:100130000334F834033448340234F8340334783464
:10014000023448340234F83403340A108A100A1195
:100150008207F834033408340234F8340334F834B2
:1001600003340034013480340034C8340334483458
:10017000023478340234F8340334483402344834D6
:100180000234F834033440340034C0340334783457
:10019000023448340234C8340334783402344834E6
:1001A0000234F8340334F8340334003402340034B5
:1001B0000234F834033448340234F8340334F83465
:1001C000033448340234C8340334FB0000307A0767
:1001D0008A007B08EE3E03188A0A8200003420342D
:1001E00058342034003400340034803430348034C7
:1001F00000340034003440340034403418340034C7
:100200000034803400348034183400340034003436
:1002100000340034F8340334003480340034803443
:10022000F83403340034603400346034183400345B
:100230000034A0340034A0341834003400340034C6
:10024000003400340034003400348034003480340E
:10025000003400340034403400344034003400347E
:1002600000348034003480340034003400340034EE
:1002700000340034003400340034A0340034A0349E
:10028000003400340034603400346034003400340E
:100290000034A0340034A03400340034003400347E
:1002A00000340034003400340034803400348034AE
:1002B000003400340034403400344034003400341E
:1002C000003480340034803400340034003400348E
:1002D00000340034003400340134A0340034A0343D
:1002E00001340034033460340034603403340034A7
:1002F0000734803400348034073400340F34003441
:10030000003400340F3400341F348034003480341F
:100310001F3400343F344034003440343F34003420
:100320007F348034003480347F340034FF34203410
:1003300000342034FF340034FF34A1340034A034BE
:10034000FF340134FF34603400346034FF3400344F
:100350007F348034003480347F3400343F340034C0
:10036000003400343F3400341F348034003480348F
:100370001F3400340F344034003440340F34003420
:10038000073480340034803407340034033420349C
:1003900000342034033400340134A0340034A03459
:1003A000013400340034403400344034003400342C
:1003B000003480340034803400340034003400349D
:1003C000003400340034003400348034003480348D
:1003D00000340034003440340034403400340034FD
:1003E0000034A0340034A03400340034003420340D
:1003F00000342034003400340034A0340034A034FD
:1004000000340034003440340034403400340034CC
:10041000003480340034803400340034003400343C
:10042000003400340034003400348034003480342C
:10043000003400340034403400344034003400349C
:100440000034A0340034A03400340034F8342334B1
:100450000034203400340034F834833400348034E1
:1004600000340034D8344034003440340034003494
:10047000D8348034003480340034003418340034EC
:10048000003400340034003400348034F8348334D1
:100490000034003400346034F83463340034003401
:1004A0000034A0345834A034003400340A108A14C4
:1004B0000A11820700340034003480340034803460
:1004C000003400340034A0340034A034003400344C
:1004D0000034FE340034FE34003400340034EB3495
:1004E0000034EB34003400348134C1348134C134FD
:1004F00000340034433480344334803400340034D6
:100500003C3480343C348034003400340034803453
:1005100000348034003400340034003400340034BB
:10052000003400340034003400340034003400342B
:1005300000340034003400340130C407C30A8B1087
:100540008A110A123D28FF3083168600831206089E
:10055000B40035083406DD003408B5005D1DB22A4C
:100560000230BC00DD1DB62A0330BC005D1EBA2A75
:100570000430BC00DD1EBE2A0530BC000B108A1101
:100580000A123D280C128A110A123D288C128A1177
:100590000A123D28AF0A0C108A110A123D28E00108
:1005A000DF01DE012F08DD006008E4005F08E300E2
:1005B0005E08E2005D08E100E801E701FF30E600C7
:1005C000FF30E5002030ED00E901EA01EB01EC012C
:1005D0006408FA006308F9006208F8006108F7008F
:1005E0000310771C012B6508E90766080318660FDE
:1005F000EA0767080318670FEB0768080318680F16
:10060000EC07EC0CEB0CEA0CE90CFA0CF90CF80C0E
:10061000F70CED0BF02A7A08E0007908DF00780883
:10062000DE007708DD0015085D07B0005E08B10048
:1006300016080318160FB1075F08B2000030031840
:100640000130B2076008B300003003180130B3076F
:10065000AF018E018F018E010130B6000C118A119D
:100660000A123D280130B7000B118A110A123D28E9
:10067000AF01B301B201B101B001B601B401340858
:10068000B5000630BB000230BC00CF010130C40011
:10069000C5018A110A1622280830F8000430F70034
:1006A000F70B502B8711AE112E08831687000330ED
:1006B000F7008312F70B5A2BD40D0712031C662B7D
:1006C0002E162E088316870083126B2B2E122E08EF
:1006D0008316870083120000AE152E08831687004C
:1006E0008312871D712BF80B4E2B0430F700F70B8C
:1006F000772B8711AE112E08831687000000831216
:100700002E162E08831687000330F7008312F70B8E
:10071000872B0330F700F70B8B2BAE152E088316B3
:1007200087008312871D922BF8010330F700F70B27
:10073000972B071A78148711AE112E08831687009D
:10074000831207122E122E088316870083120800C8
:100750000830D5007708D6002E162E08831687009D
:100760000330F7008312F70BB32BAE152E08831658
:1007700087008312871DBA2B071A0314071E031064
:10078000F80D0430F700F70BC32BAE112E088316BB
:10079000870083128711D50BAC2B2E162E088316DB
:1007A00087000330F7008312F70BD42B071256088B
:1007B0000319DF2B2E122E088316870083120000E8
:1007C000AE152E08831687008312871DE52B043093
:1007D000F700F70BE92B8711AE112E08831687005F
:1007E0000330F7008312F70BF32B07122E122E089B
:1007F0008316870083120800D0012E162E08831658
:1008000087000430F7008312F70B042CAE152E0876
:10081000831687000330F7008312F70B0D2C0712A5
:100820002E122E08831687000430F7008312F70B70
:10083000172C8711AE112E0883168700D030831233
:10084000D4004C23D4014C232E162E088316870087
:100850000430F7008312F70B2B2CAE152E088316ED
:1008600087000330F7008312F70B342C871D362CDA
:1008700007122E122E08831687000430F700831209
:10088000F70B402C8711AE112E0883168700D1304C
:100890008312D4004C23F701A8237808D0002E122D
:1008A0002E088316870000008312AE152E088316CB
:1008B00087008312871D5A2C0430F700F70B5E2C3B
:1008C000612C00002E162E08831687000430F700D6
:1008D0008312F70B692CD0130430F700F70B6E2C42
:1008E000712C2E162E08831687000430F700831211
:1008F000F70B782CAE152E08831687000330F7000F
:100900008312F70B812C07122E122E0883168700F4
:100910000430F7008312F70B8B2C8711AE112E08D1
:1009200083168700D0308312D4004C23D4014C238B
:100930005008D4004C232E122E0883168700000086
:100940008312AE152E08831687008312871DA62CEE
:100950000430F700F70BAA2CAD2C00002E162E0841
:10096000831687000430F7008312F70BB52C043090
:10097000F700F70BB92CBC2C2E162E088316870017
:100980000430F7008312F70BC32CAE152E08831624
:1009900087000330F7008312F70BCC2C07122E12BE
:1009A0002E08831687000430F7008312F70BD62C2D
:1009B0008711AE112E0883168700D0308312D40021
:1009C0004C230730D4004C231030D4004C232E127B
:1009D0002E088316870000008312AE152E0883169A
:1009E00087008312871DF22C0430F700F70BF62CDA
:1009F000F92C00002E162E08831687000430F7000D
:100A00008312F70B012D8A110A1635285508D600D6
:100A1000F030D6050310560CD700560CF700F70C33
:100A2000F70C1F30F7057708D70755080F39570718
:100A3000F80008005208F80151020318222D51084D
:100A4000F7002E2DF7010830D300D10DF70D520815
:100A500077020318F700F80DD30B252D0800F701D6
:100A6000F801510803105218F707F70CF80CD218C8
:100A7000F707F70CF80C5219F707F70CF80CD21916
:100A8000F707F70CF80C521AF707F70CF80CD21A04
:100A9000F707F70CF80C521BF707F70CF80CD21BF2
:100AA000F707F70CF80C08008318592D583084000C
:100AB0008313F701F801F901FA01D801D901DA012C
:100AC000DB0157085604550454040319972D2030B0
:100AD000DC000310D00DD10DD20DD30DD80DD90DE2
:100AE000DA0DDB0D57085B02031D802D56085A02F4
:100AF000031D802D55085902031D802D54085802EE
:100B0000031C912D5408D8025508031C550FD90217
:100B10005608031C560FDA025708031C570FDB0256
:100B20000314F70DF80DF90DFA0DDC0B692D5808BB
:100B30008000840A59088000840A5A088000840AC8
:100B40005B0880008A110A165C2C1030D700F70170
:100B5000FA01D40CD30C031CB32D5508F707031866
:100B6000FA0A5608FA07FA0CF70CF90CF80CD70B2E
:040B7000A92D0800A3
:101000003C08023C031D4E283808D00038083C3C00
:10101000031D0B28D001A9010130A800AB0101304C
:10102000AA00AD010130AC003808D1000530D20073
:101030008A111A258A15F708031D2728A9010330EC
:10104000A800AB010330AA00AD010330AC003808A2
:10105000D1000F30D2008A111A258A15F708031D16
:101060003728A9010730A800AB010730AA004A08B9
:101070005002031D3E28FC30A900A801420850027E
:10108000031D4528FF30AB00AA0143085002031D91
:101090004D28FF30AD00F130AC009C2B3C08043CE7
:1010A000031DC02801303802D200D4015208D300F9
:1010B000D6010630D5008A11A5258A157908D200F7
:1010C0007808D1005208FA005108D3008A11E520AF
:1010D0008A15F700530A8A11E5208A15FA00770865
:1010E000A8007A08A90001303802D200D4015208C1
:1010F000D300D6010630D5008A11A5258A157908B6
:10110000D2007808D10002305107F8005208FA00E6
:101110000318FA0A7808D1008A11E5208A15F70029
:10112000510A8A11E5208A15FA007708AA007A0880
:10113000AB0001303802D200D4015208D300D601EE
:101140000630D5008A11A5258A157908D2007808BD
:10115000D10004305107F8005208FA000318FA0AC7
:101160007808D1008A11E5208A15F700510A8A1102
:10117000E5208A15FA007708AC007A08AD009C2BB0
:101180003C08033C031D502B8030AB00AA013808FB
:10119000343A03191729013A03192D29033A03197F
:1011A00044290E3A03195B29013A03197129033ABC
:1011B00003198829383A03199F29013A0319B529D7
:1011C000073A0319CC29023A0319E329013A031912
:1011D000F9290F3A0319102A343A0319272A1A3A1F
:1011E0000319372A033A03194E2A013A0319652ACB
:1011F000063A03197B2A033A0319922A013A031982
:10120000A92A3C3A0319BF2A073A0319D62A013AF8
:101210000319ED2A023A0319032B0F3A03191A2B6B
:10122000013A0319312B083A0319472B4A2B460878
:10123000D1000630D2008A112F258A157808D100F6
:10124000510A8A1165208A15FA0051088A11652011
:101250008A15AC007A08AD004F2B4608D100063045
:10126000D2008A112F258A1502307807D100510A41
:101270008A1165208A15FA0051088A1165208A159D
:10128000AC007A08AD004F2B4608D1000630D200E2
:101290008A112F258A1504307807D100510A8A1146
:1012A00065208A15FA0051088A1165208A15AC005C
:1012B0007A08AD004F2B4708D1000630D2008A11C2
:1012C0002F258A157808D100510A8A1165208A15C0
:1012D000FA0051088A1165208A15AC007A08AD0021
:1012E0004F2B4708D1000630D2008A112F258A15CE
:1012F00002307807D100510A8A1165208A15FA0058
:1013000051088A1165208A15AC007A08AD004F2B70
:101310004708D1000630D2008A112F258A150430E3
:101320007807D100510A8A1165208A15FA00510800
:101330008A1165208A15AC007A08AD004F2B480849
:10134000D1000630D2008A112F258A157808D100E5
:10135000510A8A1165208A15FA0051088A11652000
:101360008A15AC007A08AD004F2B4808D100063032
:10137000D2008A112F258A1502307807D100510A30
:101380008A1165208A15FA0051088A1165208A158C
:10139000AC007A08AD004F2B4808D1000630D200CF
:1013A0008A112F258A1504307807D100510A8A1135
:1013B00065208A15FA0051088A1165208A15AC004B
:1013C0007A08AD004F2B4908D1000630D2008A11AF
:1013D0002F258A157808D100510A8A1165208A15AF
:1013E000FA0051088A1165208A15AC007A08AD0010
:1013F0004F2B4908D1000630D2008A112F258A15BB
:1014000002307807D100510A8A1165208A15FA0046
:1014100051088A1165208A15AC007A08AD004F2B5F
:101420004908D1000630D2008A112F258A150430D0
:101430007807D100510A8A1165208A15FA005108EF
:101440008A1165208A15AC007A08AD004F2B45083B
:10145000093C031C2F2AAD01A030AC00312AAD019C
:10146000AC0145081E3C031D362AC5014F2B4B0815
:10147000D1000630D2008A112F258A150430780752
:10148000D100510A8A11A5208A15FA0051088A1143
:10149000A5208A15A8007A08A9004F2B4B08D10077
:1014A0000630D2008A112F258A1502307807D10024
:1014B000510A8A11A5208A15FA0051088A11A5201F
:1014C0008A15A8007A08A9004F2B4B08D1000630D6
:1014D000D2008A112F258A157808D100510A8A1165
:1014E000A5208A15FA0051088A11A5208A15A8009E
:1014F0007A08A9004F2B4C08D1000630D2008A117F
:101500002F258A1504307807D100510A8A11A520A9
:101510008A15FA0051088A11A5208A15A8007A08B0
:10152000A9004F2B4C08D1000630D2008A112F257C
:101530008A1502307807D100510A8A11A5208A1530
:10154000FA0051088A11A5208A15A8007A08A90076
:101550004F2B4C08D1000630D2008A112F258A1556
:101560007808D100510A8A11A5208A15FA0051087D
:101570008A11A5208A15A8007A08A9004F2B4D08CA
:10158000D1000630D2008A112F258A150430780741
:10159000D100510A8A11A5208A15FA0051088A1132
:1015A000A5208A15A8007A08A9004F2B4D08D10064
:1015B0000630D2008A112F258A1502307807D10013
:1015C000510A8A11A5208A15FA0051088A11A5200E
:1015D0008A15A8007A08A9004F2B4D08D1000630C3
:1015E000D2008A112F258A157808D100510A8A1154
:1015F000A5208A15FA0051088A11A5208A15A8008D
:101600007A08A9004F2B4E08D1000630D2008A116B
:101610002F258A1504307807D100510A8A11A52098
:101620008A15FA0051088A11A5208A15A8007A089F
:10163000A9004F2B4E08D1000630D2008A112F2569
:101640008A1502307807D100510A8A11A5208A151F
:10165000FA0051088A11A5208A15A8007A08A90065
:101660004F2B4E08D1000630D2008A112F258A1543
:101670007808D100510A8A11A5208A15FA0051086C
:101680008A11A5208A15A8007A08A9004F2BA90164
:10169000E030A800AD01AC01A901A8014F2B9C2BA3
:1016A0003C08053C031D9C2B4F08D1000630D2009E
:1016B0008A112F258A157808D100510A8A115622DD
:1016C0008A15FA0051088A1156228A15A8007A084C
:1016D000A9004F08D1000630D2008A112F258A15A3
:1016E00002307807D100510A8A1156228A15FA0071
:1016F00051088A1156228A15AA007A08AB004F08B1
:10170000D1000630D2008A112F258A1504307807BF
:10171000D100510A8A1156228A15FA0051088A11FD
:1017200056228A15AC007A08AD004F08083C031811
:0E1730009B2BCF019C2BCF0A8A110A16812C0D
:1020000003081F3983008316031787114030031319
:102010009900E6309800D03083129800FF30AE006F
:10202000831603170908C039890003131F129F1272
:102030000030031788008312870188018901031388
:102040000A12382B0A16153090002E152E0883160A
:102050008700831297010430970083169B019C012F
:1020600001309D000A128312FC2B0A168316010808
:10207000C0390338810083128B153C3083169604D7
:1020800083120B1683160C140C1583128B16C0309A
:102090008B04A9010130A800C030AB00AA01FF30B9
:1020A000AD00FF30AC002908D1002808D0002B0873
:1020B000D3002A08D2002D08D5002C08D400E8301F
:1020C0008316890083128910E830831689008312F1
:1020D00009111030D600D6080319D0285408013948
:1020E000F700FA0177087A0403197C28E830831690
:1020F0008900831209148128E8308316890083122D
:1021000009100310D50CD40CE83083168900831213
:102110008914E83083168900831289105208013926
:10212000F700FA0177087A0403199C28E83083162F
:10213000890083120914A128E830831689008312CC
:1021400009100310D30CD20CE830831689008312D7
:102150008914E830831689008312891050080139E8
:10216000F700FA0177087A040319BC28E8308316CF
:10217000890083120914C128E8308316890083126C
:1021800009100310D10CD00CE8308316890083129B
:102190008914E8308316890083128910D6036B28CE
:1021A000E8308316890083120915E8308316890008
:1021B000831209112E162E08831687000430F700AB
:1021C0008312F70BE128AE152E0883168700033023
:1021D000F7008312F70BEA2807122E122E08831637
:1021E00087000430F7008312F70BF4288711AE1133
:1021F0002E0883168700D0308312D4000A124C2395
:102200000A16D4010A124C230A162E162E0883161B
:1022100087000430F7008312F70B0C29AE152E0847
:10222000831687000330F7008312F70B1529871DEB
:10223000172907122E122E08831687000430F70084
:102240008312F70B21298711AE112E088316870000
:10225000D1308312D4000A124C230A160130F70041
:102260000A12A8230A1678087F39D000D5000A126E
:1022700006250A167808C3000130F7000A12A823C1
:102280000A1678087F39D000D5000A1206250A16EA
:102290007808C200F7010A12A8230A1678083F3905
:1022A000D000D5000A1206250A167808C1002E12A1
:1022B0002E088316870000008312AE152E088316A1
:1022C00087008312871D62290430F700F70B662907
:1022D000692900002E162E08831687000430F700A7
:1022E0008312F70B71292E162E08831687000430EF
:1022F000F7008312F70B7A29AE152E088316870094
:102300000330F7008312F70B832907122E122E08D1
:10231000831687000430F7008312F70B8D2987118D
:10232000AE112E0883168700D0308312D4000A1213
:102330004C230A160330D4000A124C230A162E1618
:102340002E08831687000430F7008312F70BA629A6
:10235000AE152E08831687000330F7008312F70BA3
:10236000AF29871DB12907122E122E088316870068
:102370000430F7008312F70BBB298711AE112E082A
:1023800083168700D1308312D4000A124C230A1618
:102390000130F7000A12A8230A1678080739D0007E
:1023A000D5000A1206250A167808C0000130F70089
:1023B0000A12A8230A1678083F39D000D5000A125D
:1023C00006250A167808BD000130F7000A12A82376
:1023D0000A1678081F39D000D5000A1206250A16F9
:1023E0007808BE00F7010A12A8230A167808D00060
:1023F000D5000A1206250A167808BF002E122E08EC
:102400008316870000008312AE152E0883168700FE
:102410008312871D092A0430F700F70B0D2A102AB2
:1024200000002E162E08831687000430F700831252
:10243000F70B182A4108D1000C30D2000A121A25D5
:102440000A167708CA004A08D1000530D2000A12DD
:102450002F250A167808CA004208D1000C30D20095
:102460000A121A250A167808CA074108D1000A304C
:10247000D2000A121A250A167808C6004108D100AF
:102480000A30D2000A121A250A167708C700420835
:10249000D1000A30D2000A121A250A167808C8009C
:1024A0004208D1000A30D2000A121A250A1677080B
:1024B000C9003D08D1000A30D2000A121A250A16B6
:1024C0007808CB003D08D1000A30D2000A121A2544
:1024D0000A167708CC003E08D1000A30D2000A1252
:1024E0001A250A167808CD003E08D1000A30D2001D
:1024F0000A121A250A167708CE0044082C3C031D40
:10250000372B2E162E08831687000430F70083120F
:10251000F70B882AAE152E08831687000330F700C4
:102520008312F70B912A07122E122E0883168700AA
:102530000430F7008312F70B9B2A8711AE112E0887
:1025400083168700D0308312D4000A124C230A1657
:10255000D4010A124C230A162E162E088316870061
:102560000430F7008312F70BB32AAE152E0883163A
:1025700087000330F7008312F70BBC2A871DBE2AA1
:1025800007122E122E08831687000430F7008312DC
:10259000F70BC82A8711AE112E0883168700D13099
:1025A0008312D4000A124C230A160130F7000A12D3
:1025B000A8230A1678087F39D000D5000A1206250C
:1025C0000A167808C3000130F7000A12A8230A1679
:1025D00078087F39D000D5000A1206250A16780837
:1025E000C200F7010A12A8230A1678083F39D00062
:1025F000D5000A1206250A167808C1002E122E08E8
:102600008316870000008312AE152E0883168700FC
:102610008312871D092B0430F700F70B0D2B102BAD
:1026200000002E162E08831687000430F700831250
:10263000F70B182B4108D1000C30D2000A121A25D2
:102640000A167708CA004A08D1000530D2000A12DB
:102650002F250A167808CA004208D1000C30D20093
:102660000A121A250A167808CA070130C40043085E
:102670003B3C03181A2CC301C20A42083B3C031816
:10268000F62BC2012E162E08831687000430F700A1
:102690008312F70B492BAE152E08831687000330E3
:1026A000F7008312F70B522B07122E122E088316F7
:1026B00087000430F7008312F70B5C2B8711AE11F3
:1026C0002E0883168700D0308312D4000A124C23C0
:1026D0000A16D4010A124C230A162E162E08831647
:1026E00087000430F7008312F70B742BAE152E0809
:1026F000831687000330F7008312F70B7D2B871DAD
:102700007F2B07122E122E08831687000430F70045
:102710008312F70B892B8711AE112E0883168700C1
:10272000D1308312D4000A124C230A160130F7006C
:102730000A12A8230A1678087F39D000D5000A1299
:1027400006250A167808C3000130F7000A12A823EC
:102750000A1678087F39D000D5000A1206250A1615
:102760007808C200F7010A12A8230A1678083F3930
:10277000D000D5000A1206250A167808C1002E12CC
:102780002E088316870000008312AE152E088316CC
:1027900087008312871DCA2B0430F700F70BCE2B5E
:1027A000D12B00002E162E08831687000430F70068
:1027B0008312F70BD92B4108D1000C30D2000A123A
:1027C0001A250A167708CA004A08D1000530D20037
:1027D0000A122F250A167808CA004208D1000C30C8
:1027E000D2000A121A250A167808CA074108D10031
:1027F0000A30D2000A121A250A167808C6004108C3
:10280000D1000A30D2000A121A250A167708C7002A
:102810004208D1000A30D2000A121A250A16780896
:10282000C8004208D1000A30D2000A121A250A163E
:102830007708C900360B3B2DB601E83083168900B6
:1028400083128910E8308316890083120911E83059
:1028500083168900831209103030D000D008031984
:102860003D2CE8308316890083128914E8308316E2
:10287000890083128910D0032E2CE830831689003A
:1028800083120915E830831689008312091101307B
:10289000B7003C30B80083103308D3003208D200B0
:1028A0003108D1003008D000D701D6010130D50061
:1028B000E030D4000A12542D0A167708003CD000EC
:1028C0000130D1000030031C0130D102FA013B0875
:1028D000F700F71BFA035007B9005108BA007A084D
:1028E00003187A0FBA07B608031D3B2DB808031961
:1028F0003B2D370B3A2D39088100B7010A128A1592
:1029000000280A168A112908D1002808D0002B08AF
:10291000D3002A08D2002D08D5002C08D400E830B6
:102920008316890083128910E83083168900831288
:1029300009111030D600D6080319002D54080139AA
:10294000F700FA0177087A040319AC2CE8308316F3
:10295000890083120914B12CE83083168900831290
:1029600009100310D50CD40CE830831689008312AB
:102970008914E830831689008312891052080139BE
:10298000F700FA0177087A040319CC2CE830831693
:10299000890083120914D12CE83083168900831230
:1029A00009100310D30CD20CE8308316890083126F
:1029B0008914E83083168900831289105008013980
:1029C000F700FA0177087A040319EC2CE830831633
:1029D000890083120914F12CE830831689008312D0
:1029E00009100310D10CD00CE83083168900831233
:1029F0008914E8308316890083128910D6039B2C32
:102A0000E8308316890083120915E830831689009F
:102A1000831209113808013C0318382DE830831659
:102A2000890083128910E830831689008312091106
:102A3000E83083168900831209103030D000D008A6
:102A400003192E2DE8308316890083128914E8308B
:102A50008316890083128910D0031F2DE830831656
:102A6000890083120915E830831689008312091141
:0A2A7000B803C50A732C7D2A630029
:04400E00E22CFF3F62
:00000001FF
;PIC16F887
;CRC=6975  CREATED="12-Apr-14 16:56"
