:1000000010308A0000280000FF00030E8301A100C9
:100010000A08A0008A010408A2007708A300780853
:10002000A4007908A5007A08A6007B08A70003179A
:100030000D080313A80003170F080313A9000317E3
:100040000C080313AA0003170E080313AB00831355
:1000500083128C308400001D2F280C1976288B1EEB
:1000600033280B1979280B1E37288B186D288B1D08
:100070003B280B186A288C308400801E41288C1A7B
:1000800070288C308400001C47280C187328220824
:1000900084002308F7002408F8002508F900260842
:1000A000FA002708FB00280803178D00031329080E
:1000B00003178F0003132A0803178C0003132B0860
:1000C00003178E00031320088A00210E8300FF0E01
:1000D0007F0E09008A110A12962A8A110A128F2AA3
:1000E0008A110A12C02A8A110A122A2B8A110A12AC
:1000F0002F2B8A110A12AA2B0A108A100A118207C2
:10010000F834033408340234F8340334403400340F
:1001100020340034F8340334C8340334483402340F
:10012000783402344834023448340234F834033426
:100130007834003440340034F834033478340234F2
:1001400048340234C8340334F834033448340234B5
:10015000C83403340834003408340034F834033429
:10016000F834033448340234F83403347834023435
:1001700048340234F83403340A108A100A11820712
:10018000F834033408340234F8340334F8340334D4
:100190000034013480340034C83403344834023429
:1001A00078340234F83403344834023448340234A6
:1001B000F834033440340034C03403347834023427
:1001C00048340234C83403347834023448340234B6
:1001D000F8340334F8340334003402340034023485
:1001E000F834033448340234F8340334F834033434
:1001F00048340234C8340334FB0001307A078A00E3
:100200007B08053E03188A0A82000034E034D834A3
:10021000E034003400340034C0347034C03400346E
:100220000034003480340034803418340034003416
:100230008034003480341834003400348034003486
:100240008034F83407340034C0340034C034F83417
:1002500007340034E0340034E0341834003400341F
:10026000C0340034C03418340034003480340034D6
:10027000803400340034003480340034803400345E
:1002800000340034803400348034003400340034CE
:10029000C0340034C034003400340034E03400345E
:1002A000E034003400340034C0340034C03400344E
:1002B000003400348034003480340034003400349E
:1002C000803400348034003400340034803400340E
:1002D0008034003400340034C0340034C03400347E
:1002E00000340034E0340034E034003400340034AE
:1002F000C0340034C034003400340034803400345E
:1003000080340034003400348034003480340034CD
:100310000034013480340034803401340034033438
:10032000C0340034C034033400340734E0340034C3
:10033000E034073400340F34C0340034C0340F3498
:1003400000341F348034003480341F3400343F3490
:100350008034003480343F3400347F3480340034BF
:1003600080347F340034FF34C0340034C034FF3470
:100370000034FF34E1340034E034FF340134FF341E
:10038000C0340034C034FF3400347F34803400344F
:1003900080347F3400343F348034003480343F3440
:1003A00000341F348034003480341F3400340F3460
:1003B000C0340034C0340F3400340734E034003427
:1003C000E034073400340334C0340034C034033420
:1003D000003401348034003480340134003400347B
:1003E00080340034803400340034003480340034ED
:1003F0008034003400340034C0340034C03400345D
:1004000000340034E0340034E0340034003400348C
:10041000C0340034C034003400340034803400343C
:1004200080340034003400348034003480340034AC
:10043000003400348034003480340034003400341C
:10044000C0340034C034003400340034E0340034AC
:10045000E034003400340034C0340034C03400349C
:1004600000340034803400348034003400340034EC
:10047000803400348034003400340034803400345C
:10048000803400340034F834C7340034C0340034CD
:100490000034F834E7340034E03400340034D83425
:1004A000C0340034C03400340034D83480340034D4
:1004B0008034003400341834803400348034003404
:1004C000003400348034F83487340034003400348D
:1004D000C034F834C734003400340A108A140A11C6
:1004E0008207F034013408340234F8340334003421
:1004F00000344834023448340234F83403340034CD
:1005000000340834003408340034F8340334003440
:10051000003440340034A0340034F8340034013066
:10052000C107C00A8B108A110A124728FF308316B0
:10053000860083120608B70038083706F600370829
:10054000B800761DA52A0230B900F61DA92A03308D
:10055000B900761EAD2A0430B900F61EBC2A05305B
:10056000B9004D0BB62AFF30CD00BC2A4D08FF3C28
:10057000031DBC2A0130CD000B108A110A12472836
:100580008C1EC02A1A08D00051080319E62A013A25
:100590000319ED2A033A0319F42A013A0319F92A37
:1005A000073A0319FE2A013A0319032B033A0319E8
:1005B000082B013A03190D2B0F3A0319122B013A9C
:1005C0000319172B033A03191E2B252B5008533CF4
:1005D000031DEC2A0130D100262B5008543C031D8A
:1005E000F32A0230D100262B5008BA000330D10084
:1005F000262B5008BB000430D100262B5008BC002D
:100600000530D100262B5008BD000630D100262B26
:100610005008BE000730D100262B5008BF0008301C
:10062000D100262B5008C0000930D100262B5008DD
:10063000453C031D1D2B0A30D100262B5008443C9D
:10064000031D242B0B30D100262B262B8C128A1154
:100650000A124728AC0A0C108A110A12472883167E
:10066000A301A201A10183122C088316A000230874
:10067000A7002208A6002108A5002008A400AB01BD
:10068000AA01FF30A900FF30A80083122030831692
:10069000B000AC01AD01AE01AF012708FA00260899
:1006A000F9002508F8002408F70083120310771CCE
:1006B000692B83162808AC0729080318290FAD07F2
:1006C0002A0803182A0FAE072B0803182B0FAF07B1
:1006D00083128316AF0CAE0CAD0CAC0CFA0CF90CFB
:1006E000F80CF70CB00B762B782B83128312562B59
:1006F00083127A088316A3007908A2007808A10063
:100700007708A00083121508831620078312AD0016
:10071000831621088312AE0016080318160FAE07C1
:10072000831622088312AF00003003180130AF0790
:10073000831623088312B000003003180130B0077D
:10074000AC018E018F018E010130B1000C118A11B4
:100750000A1247280130B2000B118A110A124728E9
:10076000CF250000AC01B001AF01AE01AD01B10178
:10077000B7013708B8000630B6000230B9000130C2
:10078000C100C2011F30CC000130CD00CF01CE012D
:10079000D1018A110A163B280830F8000430F7000E
:1007A000F70BD02B8711D811580883168700033018
:1007B000F7008312F70BDA2BE30D0712031CE62B6D
:1007C00058165808831687008312EB2B58125808C6
:1007D0008316870083120000D815580883168700F7
:1007E0008312871DF12BF80BCE2B0430F700F70B8B
:1007F000F72B8711D8115808831687000000831241
:1008000058165808831687000330F7008312F70B39
:10081000072C0330F700F70B0B2CD815580883165C
:1008200087008312871D122CF8010330F700F70BA5
:10083000172C071A78148711D811580883168700C7
:100840008312071258125808831687008312080073
:100850000830E0007708E100581658088316870032
:100860000330F7008312F70B332CD8155808831682
:1008700087008312871D3A2C071A0314071E0310E2
:10088000F80D0430F700F70B432CD81158088316E5
:10089000870083128711E00B2C2C581658088316FA
:1008A00087000330F7008312F70B542C07126108FE
:1008B00003195F2C58125808831687008312000012
:1008C000D8155808831687008312871D652C0430BD
:1008D000F700F70B692C8711D81158088316870089
:1008E0000330F7008312F70B732C071258125808C5
:1008F0008316870083120800DB01581658088316F8
:1009000087000430F7008312F70B842CD8155808A1
:10091000831687000330F7008312F70B8D2C071224
:1009200058125808831687000430F7008312F70B1B
:10093000972C8711D811580883168700D03083125E
:10094000E300CC23E301CC23581658088316870014
:100950000430F7008312F70BAB2CD8155808831618
:1009600087000330F7008312F70BB42C871DB62CD9
:10097000071258125808831687000430F7008312B4
:10098000F70BC02C8711D811580883168700D13077
:100990008312E300CC23F70128247808DB005812E7
:1009A00058088316870000008312D815580883164C
:1009B00087008312871DDA2C0430F700F70BDE2C3A
:1009C000E12C000058165808831687000430F70001
:1009D0008312F70BE92CDB130430F700F70BEE2C36
:1009E000F12C58165808831687000430F70083123C
:1009F000F70BF82CD8155808831687000330F7003A
:100A00008312F70B012D071258125808831687001E
:100A10000430F7008312F70B0B2D8711D8115808FB
:100A200083168700D0308312E300CC23E301CC236C
:100A30005B08E300CC235812580883168700000097
:100A40008312D8155808831687008312871D262D18
:100A50000430F700F70B2A2D2D2D000058165808EA
:100A6000831687000430F7008312F70B352D04300E
:100A7000F700F70B392D3C2D5816580883168700C0
:100A80000430F7008312F70B432DD815580883164E
:100A900087000330F7008312F70B4C2D0712581212
:100AA0005808831687000430F7008312F70B562D81
:100AB0008711D811580883168700D0308312E300BD
:100AC000CC230730E300CC231030E300CC235812B2
:100AD00058088316870000008312D815580883161B
:100AE00087008312871D722D0430F700F70B762DD7
:100AF000792D000058165808831687000430F70037
:100B00008312F70B812D8A110A1662286008E10012
:100B1000F030E1050310610CE200610CF700F70C06
:100B2000F70C1F30F7057708E20760080F396207F6
:100B3000F80008005E08F8015D020318A22D5D08A8
:100B4000F700AE2DF7010830DF00DD0DF70D5E0870
:100B500077020318F700F80DDF0BA52D0800F70149
:100B6000F8015D0803105E18F707F70CF80CDE18A3
:100B7000F707F70CF80C5E19F707F70CF80CDE19FD
:100B8000F707F70CF80C5E1AF707F70CF80CDE1AEB
:100B9000F707F70CF80C5E1BF707F70CF80CDE1BD9
:100BA000F707F70CF80C08006208E300E401E50120
:100BB000E601EA016A08073C031C6E2E6508F7008F
:100BC0006608F800F901FA0177080F39E700FA0121
:100BD000660CF900650CF800640CF700F90CF80CD1
:100BE000F70CF90CF80CF70CF90CF80CF70C0F30AB
:100BF000F90577080F39E8006408F7006508F80080
:100C00006608F900FA0177080F39E9006708043C23
:100C100003180C2E0330E7076808043C0318122E53
:100C20000330E8076908043C0318182E0330E9076D
:100C3000EE01ED01EC016708EB006C08EE006B08BB
:100C4000ED00EB01EC01F301F201F1016808F000A5
:100C5000F701700DF800710DF900720DFA00F80D32
:100C6000F90DFA0DF80DF90DFA0DF80DF90DFA0D53
:100C7000F030F8057708EB047808EC047908ED0407
:100C80007A08EE04F301F201F1016908F00072083C
:100C9000FA007108F9007008F800F7017708EB0412
:100CA0007808EC047908ED047A08EE046308F7008C
:100CB000F801F901FA0177086B04E30078086C0485
:100CC000E40079086D04E5007A086E04E60003107C
:100CD000E30DE40DE50DE60DEA0ADA2DFA01660CE6
:100CE000F900650CF800640CF700F90CF80CF70C2F
:100CF000F90CF80CF70CF90CF80CF70C0F30F9059F
:100D000077080F39E8006408F7006508F8006608FE
:100D1000F900FA0177080F39E900680EEB00F030AE
:100D2000EB0569080F396B04F8000800E1133F3048
:100D3000DF0558165808831687000430F700831221
:100D4000F70BA02ED8155808831687000330F7003C
:100D50008312F70BA92E0712581258088316870022
:100D60000430F7008312F70BB32E8711D8115808FF
:100D700083168700D0308312E300CC23E301CC2319
:100D80006108E200D4257808E200E300CC23600883
:100D9000E200D4257808E200E300CC235F08E200FB
:100DA000D4257808E200E300CC235E08E200D425D5
:100DB0007808E200E300CC235B08E200D425780841
:100DC000E200E300CC235C08E200D4257808E200CE
:100DD000E300CC235D08E200D4257808E200E300BC
:100DE000CC23581258088316870000008312D815A8
:100DF0005808831687008312871DFC2E0430F700E5
:100E0000F70B002F032F0000581658088316870091
:100E10000430F7008312F70B0B2F8A110A16302BC0
:100E20000830F800DF015E08F7007708DF06F70CEE
:100E3000F80B152F0C1E1A2FFE30831698058312FF
:100E40005F1C252F8316181483125E089900080072
:100E50000B08DB008B13831603178C170C14000090
:100E6000000083120313DB1B8B1703170C087F3959
:100E7000031D3C2F03137F2F0313DB0003170D0803
:100E80000313DC0003170F080313DD005B08DE000B
:100E900010275C0803178D0003135D0803178F00EC
:100EA00003130B08DE008B13831603178C170C1427
:100EB0000000000083120313DE1B8B1703170C0DB9
:100EC0000E0D7F39031D662F03137F2F0313DB00E5
:100ED00003170D080313DC0003170F080313DD00CD
:100EE0005B08DE0010275C0803178D0003135D0804
:100EF00003178F008D0A03198F0A0313282F8A11F5
:100F00000A16392B8318872F633084008313F70167
:100F1000F801F901FA01E301E401E501E6016208E3
:100F2000610460045F040319C52F2030E70003103B
:100F3000DB0DDC0DDD0DDE0DE30DE40DE50DE60D45
:100F400062086602031DAE2F61086502031DAE2F05
:100F500060086402031DAE2F5F086302031CBF2FED
:100F60005F08E3026008031C600FE4026108031CD1
:100F7000610FE5026208031C620FE6020314F70D1D
:100F8000F80DF90DFA0DE70B972F63088000840A1E
:100F900064088000840A65088000840A660880006E
:060FA0008A110A16F52D6E
:101000003908023C031D4E283308DB0033083C3C02
:10101000031D0B28DB01D3010130D200D5010130C3
:10102000D400D7010130D6003308DD000530DE00E2
:101030008A119A258A15F708031D2728D301033042
:10104000D200D5010330D400D7010330D6003308D5
:10105000DD000F30DE008A119A258A15F708031D7E
:101060003728D3010730D200D5010730D400470814
:101070005B02031D3E28FC30D300D2013F085B0217
:10108000031D4528FF30D500D40140085B02031D35
:101090004D28FF30D700F130D600D92B3908043C59
:1010A000031DAA283308DD000330DE008A11AF25B6
:1010B0008A1503307802FA01F9000310F90DFA0DD0
:1010C0007908DD008A11FC208A15F7005D0A8A1173
:1010D000FC208A15FA007708D2007A08D30033087A
:1010E000DD000330DE008A11AF258A150230780258
:1010F000FA01F9000310F90DFA0D7908DD008A11E3
:10110000FC208A15F7005D0A8A11FC208A15FA0076
:101110007708D4007A08D5003308DD000330DE00FC
:101120008A11AF258A1501307802FA01F9000310FF
:10113000F90DFA0D7908DD008A11FC208A15F700F7
:101140005D0A8A11FC208A15FA007708D6007A0811
:10115000D700D92B3908033C031D492B8030D5001B
:10116000D4013308343A03190729013A03191D2918
:10117000033A031934290E3A03194B29013A03198A
:101180006129033A03197829383A03198F29013A5A
:101190000319A529073A0319BC29023A0319D329CF
:1011A000013A0319E9290F3A0319002A343A0319BD
:1011B000172A1B3A0319272A013A03193E2A033A30
:1011C0000319552A063A03196B2A013A0319822A90
:1011D000033A0319992A3A3A0319AF2A013A031933
:1011E000C62A033A0319DD2A0E3A0319F32A013AF3
:1011F00003190A2B033A0319212B083A0319372B39
:10120000033A03193B2B013A03193F2B432B4308A5
:10121000DD000630DE008A11AF258A157808DD0072
:101220005D0A8A117C208A15FA005D088A117C20EB
:101230008A15D6007A08D700482B4308DD0006300F
:10124000DE008A11AF258A1502307807DD005D0ABD
:101250008A117C208A15FA005D088A117C208A1583
:10126000D6007A08D700482B4308DD000630DE00A0
:101270008A11AF258A1504307807DD005D0A8A11CE
:101280007C208A15FA005D088A117C208A15D60018
:101290007A08D700482B4408DD000630DE008A11AA
:1012A000AF258A157808DD005D0A8A117C208A1531
:1012B000FA005D088A117C208A15D6007A08D700CA
:1012C000482B4408DD000630DE008A11AF258A1560
:1012D00002307807DD005D0A8A117C208A15FA0049
:1012E0005D088A117C208A15D6007A08D700482B21
:1012F0004408DD000630DE008A11AF258A1504306F
:101300007807DD005D0A8A117C208A15FA005D08E5
:101310008A117C208A15D6007A08D700482B450808
:10132000DD000630DE008A11AF258A157808DD0061
:101330005D0A8A117C208A15FA005D088A117C20DA
:101340008A15D6007A08D700482B4508DD000630FC
:10135000DE008A11AF258A1502307807DD005D0AAC
:101360008A117C208A15FA005D088A117C208A1572
:10137000D6007A08D700482B4508DD000630DE008D
:101380008A11AF258A1504307807DD005D0A8A11BD
:101390007C208A15FA005D088A117C208A15D60007
:1013A0007A08D700482B4608DD000630DE008A1197
:1013B000AF258A157808DD005D0A8A117C208A1520
:1013C000FA005D088A117C208A15D6007A08D700B9
:1013D000482B4608DD000630DE008A11AF258A154D
:1013E00002307807DD005D0A8A117C208A15FA0038
:1013F0005D088A117C208A15D6007A08D700482B10
:101400004608DD000630DE008A11AF258A1504305B
:101410007807DD005D0A8A117C208A15FA005D08D4
:101420008A117C208A15D6007A08D700482B4208FA
:101430000E3C031C1F2AD701A030D600212AD70159
:10144000D60142081F3C031D262AC201482B48082A
:10145000DD000630DE008A11AF258A1504307807DA
:10146000DD005D0A8A11BC208A15FA005D088A1128
:10147000BC208A15D2007A08D300482B4808DD002A
:101480000630DE008A11AF258A1502307807DD00AC
:101490005D0A8A11BC208A15FA005D088A11BC20F9
:1014A0008A15D2007A08D300482B4808DD000630A0
:1014B000DE008A11AF258A157808DD005D0A8A11E1
:1014C000BC208A15FA005D088A11BC208A15D2005A
:1014D0007A08D300482B4908DD000630DE008A1167
:1014E000AF258A1504307807DD005D0A8A11BC201B
:1014F0008A15FA005D088A11BC208A15D2007A0884
:10150000D300482B4908DD000630DE008A11AF25E4
:101510008A1502307807DD005D0A8A11BC208A1521
:10152000FA005D088A11BC208A15D2007A08D3001F
:10153000482B4908DD000630DE008A11AF258A15E8
:101540007808DD005D0A8A11BC208A15FA005D0862
:101550008A11BC208A15D2007A08D300482B4A0889
:10156000DD000630DE008A11AF258A1504307807C9
:10157000DD005D0A8A11BC208A15FA005D088A1117
:10158000BC208A15D2007A08D300482B4A08DD0017
:101590000630DE008A11AF258A1502307807DD009B
:1015A0005D0A8A11BC208A15FA005D088A11BC20E8
:1015B0008A15D2007A08D300482B4A08DD0006308D
:1015C000DE008A11AF258A157808DD005D0A8A11D0
:1015D000BC208A15FA005D088A11BC208A15D20049
:1015E0007A08D300482B4B08DD000630DE008A1154
:1015F000AF258A1504307807DD005D0A8A11BC200A
:101600008A15FA005D088A11BC208A15D2007A0872
:10161000D300482B4B08DD000630DE008A11AF25D1
:101620008A1502307807DD005D0A8A11BC208A1510
:10163000FA005D088A11BC208A15D2007A08D3000E
:10164000482B4B08DD000630DE008A11AF258A15D5
:101650007808DD005D0A8A11BC208A15FA005D0851
:101660008A11BC208A15D2007A08D300482BD301F6
:101670004030D200482BD3014030D200482BD30158
:101680004030D200482BD701D601D301D201482BDC
:10169000D92B3908053C031DD92BD301D201D50123
:1016A000D401D701D6014C0833020E3EDC004C08B1
:1016B0000E3C031C612B5C083B3C0318612B3C3047
:1016C000DC025C080E3C031CBF2B5C080B3C0318BF
:1016D000792B03105C0DDD005D0A8A116D228A15DD
:1016E000FA005D088A116D228A15D2007A08D300AB
:1016F000BF2B5C08073C03188D2B03105C0DDD002D
:101700005D0A8A116D228A15FA005D088A116D2220
:101710008A15D4007A08D500BF2B5C08033C031857
:10172000A12B03105C0DDD005D0A8A116D228A1564
:10173000FA005D088A116D228A15D6007A08D70052
:10174000BF2B03105C0DDD005D0A8A116D228A1526
:10175000FA005D088A116D228A15D2007A08D3003A
:1017600003105C0DDD005D0A8A116D228A15FA00F6
:101770005D088A116D228A15D6007A08D700CE0A34
:101780000319CF0ACF08031DC92B4E08783C031854
:10179000CD2BCF01CE014D08CC07CC08031DD32B98
:1017A0003C30CC00D92B4C083D3C031DD92B0130DB
:0817B000CC008A110A161A2E62
:1020000003081F3983008316031787114030031319
:102010009900E6309800D03083129800FF30D80045
:10202000831603170908C039890003131F129F1272
:102030000030031788008312870188018901031388
:10204000DA01B130D9003C308316B1000130B30061
:102050001030B2005D3083120317900001309200FF
:10206000903091005D3083169000920191018312AF
:1020700003130A12B22B0A1615309000581558088F
:1020800083168700831297010430970083169B0103
:102090009C0101309D000108C03903388100831282
:1020A0008B153C308316960483120B1683160C1482
:1020B0000C1583128B1683168C16C03083128B047A
:1020C0000A127C2C0A16F030D3000F30D2000F30E9
:1020D000D5000F30D400D701FF30D6005308DC0004
:1020E0005208DB005508DE005408DD005708E00008
:1020F0005608DF00E8308316890083128910E83023
:1021000083168900831209111030E100E1080319D8
:10211000EB285F080139F700FA0177087A04031900
:102120009728E83083168900831209149C28E83028
:1021300083168900831209100310E00CDF0CE830CD
:102140008316890083128914E8308316890083126C
:1021500089105D080139F700FA0177087A0403193C
:10216000B728E8308316890083120914BC28E830A8
:1021700083168900831209100310DE0CDD0CE83091
:102180008316890083128914E8308316890083122C
:1021900089105B080139F700FA0177087A040319FE
:1021A000D728E8308316890083120914DC28E83028
:1021B00083168900831209100310DC0CDB0CE83055
:1021C0008316890083128914E830831689008312EC
:1021D0008910E1038628E8308316890083120915E7
:1021E000E83083168900831209115816580883169F
:1021F00087000430F7008312F70BFC28D815580825
:10220000831687000330F7008312F70B05290712A6
:1022100058125808831687000430F7008312F70B12
:102220000F298711D811580883168700D0308312E0
:10223000E3000A12CC230A16E3010A12CC230A1681
:1022400058165808831687000430F7008312F70BDE
:102250002729D8155808831687000330F700831202
:10226000F70B3029871D3229071258125808831698
:1022700087000430F7008312F70B3C298711D8112F
:10228000580883168700D1308312E3000A12CC234A
:102290000A160130F7000A1228240A1678087F3936
:1022A000DB00E0000A1286250A167808C00001301B
:1022B000F7000A1228240A1678087F39DB00E000AC
:1022C0000A1286250A167808BF00F7010A12282488
:1022D0000A1678083F39DB00E0000A1286250A1644
:1022E0007808BE0058125808831687000000831231
:1022F000D8155808831687008312871D7D2904305E
:10230000F700F70B81298429000058165808831616
:1023100087000430F7008312F70B8C2958165808F1
:10232000831687000430F7008312F70B9529D81520
:102330005808831687000330F7008312F70B9E2995
:10234000071258125808831687000430F7008312CA
:10235000F70BA8298711D811580883168700D030A9
:102360008312E3000A12CC230A160330E3000A1298
:10237000CC230A1658165808831687000430F70035
:102380008312F70BC129D81558088316870003302C
:10239000F7008312F70BCA29871DCC2907125812A0
:1023A0005808831687000430F7008312F70BD629EC
:1023B0008711D811580883168700D1308312E300A3
:1023C0000A12CC230A160130F7000A1228240A1632
:1023D00078080739DB00E0000A1286250A1678081B
:1023E000BD000130F7000A1228240A1678083F3988
:1023F000DB00E0000A1286250A167808BA000130D0
:10240000F7000A1228240A1678081F39DB00E000BA
:102410000A1286250A167808BB00F7010A1228243A
:102420000A167808DB00E0000A1286250A167808EA
:10243000BC00581258088316870000008312D81574
:102440005808831687008312871D242A0430F7005A
:10245000F70B282A2B2A00005816580883168700E5
:102460000430F7008312F70B332A3E08DD000C30EE
:10247000DE000A129A250A167708C7004708DD0011
:102480000530DE000A12AF250A167808C7003F089B
:10249000DD000C30DE000A129A250A167808C707FC
:1024A0003E08DD000A30DE000A129A250A16780876
:1024B000C3003E08DD000A30DE000A129A250A1623
:1024C0007708C4003F08DD000A30DE000A129A25B2
:1024D0000A167808C5003F08DD000A30DE000A123F
:1024E0009A250A167708C6003A08DD000A30DE0091
:1024F0000A129A250A167808C8003A08DD000A3040
:10250000DE000A129A250A167708C9003B08DD008A
:102510000A30DE000A129A250A167808CA003B081B
:10252000DD000A30DE000A129A250A167708CB0071
:1025300051080B3C031D6E2BDC01DB010F30DE006C
:10254000F030DD00E001DF01E830831689008312FE
:102550008910E83083168900831209111030E100D8
:10256000E1080319152B5F080139F700FA01770814
:102570007A040319C12AE8308316890083120914EA
:10258000C62AE83083168900831209100310E00C74
:10259000DF0CE8308316890083128914E830831633
:1025A0008900831289105D080139F700FA01770864
:1025B0007A040319E12AE83083168900831209148A
:1025C000E62AE83083168900831209100310DE0C16
:1025D000DD0CE8308316890083128914E8308316F5
:1025E0008900831289105B080139F700FA01770826
:1025F0007A040319012BE830831689008312091429
:10260000062BE83083168900831209100310DC0CB6
:10261000DB0CE8308316890083128914E8308316B6
:10262000890083128910E103B02AE83083168900FB
:1026300083120915E8308316890083120911D1012C
:102640003A08DB003B08DC003C08DD003D08DE000A
:102650003E08DF003F08E0004008E1000A12962E25
:102660000A16B03003178D0003308F000A120313CF
:10267000282F0A160D30DE000A1210270A160A301B
:10268000DE000A1210270A16E8308316890083122A
:102690008910E8308316890083120911E830831607
:1026A0008900831209103030DB00DB080319642B2A
:1026B000E8308316890083128914E8308316890074
:1026C00083128910DB03552BE830831689008312AF
:1026D0000915E830831689008312091141082C3C42
:1026E000031DCF2C58165808831687000430F700B6
:1026F0008312F70B792BD8155808831687000330FF
:10270000F7008312F70B822B071258125808831612
:1027100087000430F7008312F70B8C2B8711D81138
:10272000580883168700D0308312E3000A12CC23A6
:102730000A16E3010A12CC230A1658165808831603
:1027400087000430F7008312F70BA42BD815580824
:10275000831687000330F7008312F70BAD2B871D1C
:10276000AF2B071258125808831687000430F70061
:102770008312F70BB92B8711D811580883168700DD
:10278000D1308312E3000A12CC230A160130F7007D
:102790000A1228240A1678087F39DB00E0000A12A2
:1027A00086250A167808C0000130F7000A1228248E
:1027B0000A1678087F39DB00E0000A1286250A161F
:1027C0007808BF00F7010A1228240A1678083F3952
:1027D000DB00E0000A1286250A167808BE005812AF
:1027E00058088316870000008312D81558088316EE
:1027F00087008312871DFA2B0430F700F70BFE2B9E
:10280000012C000058165808831687000430F70082
:102810008312F70B092C58165808831687000430CA
:10282000F7008312F70B122CD8155808831687006F
:102830000330F7008312F70B1B2C071258125808AD
:10284000831687000430F7008312F70B252C8711BD
:10285000D811580883168700D0308312E3000A127B
:10286000CC230A160330E3000A12CC230A165816AA
:102870005808831687000430F7008312F70B3E2CAC
:10288000D8155808831687000330F7008312F70B1A
:10289000472C871D492C07125812580883168700A9
:1028A0000430F7008312F70B532C8711D811580806
:1028B00083168700D1308312E3000A12CC230A1654
:1028C0000130F7000A1228240A1678080739DB00BD
:1028D000E0000A1286250A167808BD000130F700CC
:1028E0000A1228240A1678083F39DB00E0000A1291
:1028F00086250A167808BA000130F7000A12282443
:102900000A1678081F39DB00E0000A1286250A162D
:102910007808BB00F7010A1228240A167808DB00A1
:10292000E0000A1286250A167808BC0058125808DA
:102930008316870000008312D81558088316870075
:102940008312871DA12C0430F700F70BA52CA82CAF
:10295000000058165808831687000430F7008312C9
:10296000F70BB02C3E08DD000C30DE000A129A2571
:102970000A167708C7004708DD000530DE000A1296
:10298000AF250A167808C7003F08DD000C30DE00CE
:102990000A129A250A167808C7070130C1004008B4
:1029A0003B3C0318B22DC001BF0A3F083B3C031853
:1029B0008E2DBF0158165808831687000430F70083
:1029C0008312F70BE12CD8155808831687000330C3
:1029D000F7008312F70BEA2C0712581258088316D7
:1029E00087000430F7008312F70BF42C8711D811FD
:1029F000580883168700D0308312E3000A12CC23D4
:102A00000A16E3010A12CC230A1658165808831630
:102A100087000430F7008312F70B0C2DD8155808E7
:102A2000831687000330F7008312F70B152D871DDF
:102A3000172D071258125808831687000430F70024
:102A40008312F70B212D8711D811580883168700A0
:102A5000D1308312E3000A12CC230A160130F700AA
:102A60000A1228240A1678087F39DB00E0000A12CF
:102A700086250A167808C0000130F7000A122824BB
:102A80000A1678087F39DB00E0000A1286250A164C
:102A90007808BF00F7010A1228240A1678083F397F
:102AA000DB00E0000A1286250A167808BE005812DC
:102AB00058088316870000008312D815580883161B
:102AC00087008312871D622D0430F700F70B662DF7
:102AD000692D000058165808831687000430F70047
:102AE0008312F70B712D3E08DD000C30DE000A1258
:102AF0009A250A167708C7004708DD000530DE0072
:102B00000A12AF250A167808C7003F08DD000C300E
:102B1000DE000A129A250A167808C7073E08DD006B
:102B20000A30DE000A129A250A167808C3003E0809
:102B3000DD000A30DE000A129A250A167708C40062
:102B40003F08DD000A30DE000A129A250A167808CE
:102B5000C5003F08DD000A30DE000A129A250A1679
:102B60007708C600310BD32EB101E83083168900F7
:102B700083128910E8308316890083120911E83026
:102B800083168900831209103030DB00DB0803193B
:102B9000D52DE8308316890083128914E830831616
:102BA000890083128910DB03C62DE8308316890063
:102BB00083120915E8308316890083120911C20AAD
:102BC0000130B2003C30B30083103008DE002F0823
:102BD000DD002E08DC002D08DB00E201E101013000
:102BE000E000E030DF000A12822F0A167708003C6E
:102BF000DB000130DC000030031C0130DC02FA0194
:102C00003608F700F71BFA035B07B4005C08B50051
:102C10007A0803187A0FB507B108031DD32EB3083D
:102C20000319D32E320BD22E34088100B2010A12BE
:102C30008A1500280A168A115308DC005208DB00A6
:102C40005508DE005408DD005708E0005608DF0094
:102C5000E8308316890083128910E83083168900D2
:102C6000831209111030E100E1080319992E5F0861
:102C70000139F700FA0177087A040319452EE83084
:102C800083168900831209144A2EE83083168900BE
:102C9000831209100310E00CDF0CE8308316890062
:102CA00083128914E83083168900831289105D0825
:102CB0000139F700FA0177087A040319652EE83024
:102CC00083168900831209146A2EE830831689005E
:102CD000831209100310DE0CDD0CE8308316890026
:102CE00083128914E83083168900831289105B08E7
:102CF0000139F700FA0177087A040319852EE830C4
:102D000083168900831209148A2EE83083168900FD
:102D1000831209100310DC0CDB0CE83083168900E9
:102D200083128914E8308316890083128910E10325
:102D3000342EE8308316890083120915E830831693
:102D40008900831209113308013C0318D12EE830A1
:102D50008316890083128910E83083168900831254
:102D60000911E83083168900831209103030DB0026
:102D7000DB080319C72EE8308316890083128914F3
:102D8000E8308316890083128910DB03B82EE830FF
:102D90008316890083120915E8308316890083128F
:0A2DA0000911B3030C2E982A6300FA
:04400E00E22CFF3F62
:00000001FF
;PIC16F887
;CRC=8937  CREATED="13-Apr-14 22:01"
