:1000000010308A0000280000FF00030E8301A100C9
:100010000A08A0008A010408A2007708A300780853
:10002000A4007908A5007A08A6007B08A70083131E
:1000300083128C308400001D1F280C1956288B1E3B
:1000400023280B1959280B1E27288B184D288B1D88
:100050002B280B184A288C308400801E31288C1ADB
:1000600050288C308400001C37280C185328220894
:1000700084002308F7002408F8002508F900260862
:10008000FA002708FB0020088A00210E8300FF0EDB
:100090007F0E09008A110A127A2D8A110A12732D15
:1000A0008A110A12C62D8A110A12302E8A110A12DA
:1000B000352E8A110A12A42E0A108A100A118207FC
:1000C000F834033408340234F83403344034003450
:1000D00020340034F8340334C83403344834023450
:1000E000783402344834023448340234F834033467
:1000F0007834003440340034F83403347834023433
:1001000048340234C8340334F834033448340234F5
:10011000C83403340834003408340034F834033469
:10012000F834033448340234F83403347834023475
:1001300048340234F83403340A108A100A11820752
:10014000F834033408340234F8340334F834033414
:100150000034013480340034C83403344834023469
:1001600078340234F83403344834023448340234E6
:10017000F834033440340034C03403347834023467
:1001800048340234C83403347834023448340234F6
:10019000F8340334F83403340034023400340234C5
:1001A000F834033448340234F8340334F834033474
:1001B00048340234C8340334FB0000307A078A0024
:1001C0007B08E53E03188A0A82000034E034D83404
:1001D000E034003400340034C0347034C0340034AF
:1001E0000034003480340034803418340034003457
:1001F00080340034803418340034003480340034C7
:100200008034F83407340034C0340034C034F83457
:1002100007340034E0340034E0341834003400345F
:10022000C0340034C0341834003400348034003416
:10023000803400340034003480340034803400349E
:10024000003400348034003480340034003400340E
:10025000C0340034C034003400340034E03400349E
:10026000E034003400340034C0340034C03400348E
:1002700000340034803400348034003400340034DE
:10028000803400348034003400340034803400344E
:100290008034003400340034C0340034C0340034BE
:1002A00000340034E0340034E034003400340034EE
:1002B000C0340034C034003400340034803400349E
:1002C000803400340034003480340034803400340E
:1002D0000034013480340034803401340034033479
:1002E000C0340034C034033400340734E034003404
:1002F000E034073400340F34C0340034C0340F34D9
:1003000000341F348034003480341F3400343F34D0
:100310008034003480343F3400347F3480340034FF
:1003200080347F340034FF34C0340034C034FF34B0
:1003300000347F34E0340034E0347F3400343F3420
:10034000C0340034C0343F3400341F3480340034AF
:1003500080341F3400340F348034003480340F3440
:1003600000340734803400348034073400340334DC
:10037000C0340034C034033400340134E034003479
:10038000E034013400340034C0340034C03400346C
:1003900000340034803400348034003400340034BD
:1003A000803400348034003400340034803400342D
:1003B0008034003400340034C0340034C03400349D
:1003C00000340034E0340034E034003400340034CD
:1003D000C0340034C034003400340034803400347D
:1003E00080340034003400348034003480340034ED
:1003F000003400348034003480340034003400345D
:10040000C0340034C034003400340034E0340034EC
:10041000E034003400340034C0340034C0340034DC
:10042000003400348034003480340034003400342C
:10043000803400348034003400340034803400349C
:10044000803400340034F834C7340034C03400340D
:100450000034F834E7340034E03400340034D83465
:10046000C0340034C03400340034D8348034003414
:100470008034003400341834803400348034003444
:10048000003400348034F8348734003400340034CD
:10049000C034F834C734003400340A108A140A1106
:1004A0008207F034013408340234F8340334003461
:1004B00000344834023448340234F834033400340D
:1004C00000340834003408340034F8340334003481
:1004D000003440340034A0340034F83400340A10BE
:1004E0008A140A118207C834033448340234783439
:1004F000023400340034F834033408340234F8345D
:100500000334003400344034003420340034F834F0
:100510000334003400347834003440340034F83488
:100520000334FB0002307A078A007B089A3E0318E6
:100530008A0A8200003403340034FE340034FE346E
:10054000003403340034FE340034FE340034033409
:100550000034FE340034FE3400340F340034F03400
:100560000034F03400341F340034EE340034EE3400
:1005700000343F340034DE340034DE3400343F34A1
:100580000034DE340034DE3480343F340034DF3471
:100590000034DF3480343F348034DF348034DF345F
:1005A00080343F348034DF348034DF3480343F346F
:1005B0008034DD348034DD3480343F348034DD34C5
:1005C0008034DD3480343F348034DD348034DD34B5
:1005D00080343F348034DF348034DF3480343F343F
:1005E0008034DF348034DF3400343C34E034DF34B2
:1005F0000034DC3400341834F034FF340034F83480
:10060000003410348034FF340034F03400340034CB
:100610007034FE340034E03400340034E034FF340D
:100620000034E03400340034C034FF340034E034AB
:10063000803400340034FF340034E13400340134B9
:100640000034FE340034F234003401340034FE341B
:100650000034FE34003402340034FC340034FC3402
:10066000003402340034FC340034FC3400340234EE
:100670000034FC340034FC34003402340034FC34E4
:100680000034FC34003402340034FC340034FC34D4
:10069000003402340034FC340034FC3400340234BE
:1006A0000034FC340034FC34003402340034FC34B4
:1006B0000034FC34003402340034FC340034FC34A4
:1006C000003402340034FC340034FC34003402348E
:1006D0000034FC340034FC34003402340034FC3484
:1006E0000034FC34003402340034FC340034FC3474
:1006F000003402340034FC340034FC3400341A3446
:100700000034E4340034E434003417340034E83482
:100710000034E834003411340034EE340034EE3464
:1007200080341C340034FF340034FF3440343E3411
:100730008034FF348034FF3440343F348034FF341D
:100740008034FF34C0341F348034FF348034FF34AD
:10075000C0341F348034FF348034FF34C0341F343D
:100760000034FF340034FF3400341F340034E034EC
:100770000034E034003403340034FC340034FC34FE
:10078000003403340034FE340034FE3400340334C7
:100790000034FE340034FE34003403340034FE34BC
:1007A0000034FE34003403340034FE340034FE34AC
:1007B000003403340034FE340034FE340034033497
:1007C0000034FE340034FE34003403340034FE348C
:1007D0000034FE34003403340034FC340034FC3480
:1007E000003403340034FC340034FC34003403346B
:1007F0000034FE340034FE34003403340034FE345C
:100800000034FE34FB0004307A078A007B080B3E7C
:1008100003188A0A8200003403340034FE340034A2
:10082000FE34003403340034FE340034FE3400342B
:1008300003340034FE340034FE3400340F3400340A
:10084000F0340034F03400341F340034EE3400341B
:10085000EE3400343F340034DE340034DE3400340F
:100860003F340034DE340034DE3480343F3400342E
:10087000DF340034DF3480343F348034DF3480347C
:10088000DF3480343F348034DF348034DF348034EC
:100890003F348034DD348034DD3480343F34803480
:1008A000DD348034DD3480343F348034DD348034D2
:1008B000DD3480343F348034DF348034DF348034BE
:1008C0003F348034DF348034DF3400343C34E0346F
:1008D000DF340034DC3400341834F034FF340034B6
:1008E000F834003410348034FF340034F0340034F1
:1008F00000347034FE340034E03400340034E0342A
:10090000FF340034E03400340034C034FF340034A9
:10091000E034803400340034FF340034E1340034F7
:1009200001340034FE340034F23400340134003435
:10093000FE340034FE34003402340034FC3400341D
:10094000FC34003402340034FC340034FC34003411
:1009500002340034FC340034FC34003402340034FB
:10096000FC340034FC34003402340034FC340034F1
:10097000FC34003402340034FC340034FC340034E1
:1009800002340034FC340034FC34003402340034CB
:10099000FC340034FC34003402340034FC340034C1
:1009A000FC34003402340034FC340034FC340034B1
:1009B00002340034FC340034FC340034023400349B
:1009C000FC340034FC34003402340034FC34003491
:1009D000FC34003402340034FC340034FC34003481
:1009E00002340034FC340034FC340034023400346B
:1009F000FC340034FC34003402340034FC34003461
:100A0000FC34003402340034FC340034FC34003450
:100A10000A340034F4340034F43400341E34003426
:100A2000E0340034E034003412340034EC34003468
:100A3000EC34803421340034FE340034FE3440344D
:100A40003C348034FF348034FF3440341F348034ED
:100A5000FF348034FF34C0341F348034FF3480349A
:100A6000FF3480341F340034EE340034EE3400346C
:100A70001F340034E0340034E034003403340034F4
:100A8000FE340034FE34003403340034FE340034C9
:100A9000FE34003403340034FE340034FE340034B9
:100AA00003340034FE340034FE34003403340034A4
:100AB000FE340034FE34003403340034FC3400349B
:100AC000FC34003403340034FC340034FC3400348F
:100AD00003340034FE340034FE3400340334003474
:100AE000FE340034FE340130BE07BD0A8B108A117B
:100AF0000A123728FF308316860083120608B300D7
:100B000034083306F1003308B400711D8B2D023018
:100B1000B5000130B600F11D912D0330B500013054
:100B2000B600711EAC2D0430B500B608031D9B2D18
:100B30000130B600AC2D360BA02D0230B600AC2D26
:100B40003608023C031DA72D0330B600AC2D360835
:100B5000033C031DAC2DB601F11EC22D0530B500BE
:100B60000130B6004A0BB72DFF30CA00C22D4A082B
:100B7000FF3C031DBD2DCA01C22DCA08031DC22D95
:100B80000130CA000B108A110A1237288C1EC62D9C
:100B90001A08CD004E080319EC2D013A0319F32D64
:100BA000033A0319FA2D013A0319FF2D073A0319E5
:100BB000042E013A0319092E033A03190E2E013AA5
:100BC0000319132E0F3A0319182E013A03191D2E7B
:100BD000033A0319242E2B2E4D08533C031DF22DEE
:100BE0000130CE002C2E4D08543C031DF92D02304F
:100BF000CE002C2E4D08B7000330CE002C2E4D0811
:100C0000B8000430CE002C2E4D08B9000530CE00BF
:100C10002C2E4D08BA000630CE002C2E4D08BB00FD
:100C20000730CE002C2E4D08BC000830CE002C2EF4
:100C30004D08BD000930CE002C2E4D08453C031D4B
:100C4000232E0A30CE002C2E4D08443C031D2A2EA4
:100C50000B30CE002C2E2C2E8C128A110A12372823
:100C6000A80A0C108A110A123728F401F301F201C4
:100C70002808F10074088316A3007308A200720804
:100C8000A1007108A000A701A601FF30A500FF3058
:100C9000A400831220308316AC00A801A901AA0188
:100CA000AB012308FA002208F9002108F800200807
:100CB000F70083120310771C6D2E83162408A807F3
:100CC00025080318250FA90726080318260FAA07C9
:100CD00027080318270FAB0783128316AB0CAA0C47
:100CE000A90CA80CFA0CF90CF80CF70CAC0B7A2E2A
:100CF0007C2E831283125A2E83127A08F40079080C
:100D0000F3007808F2007708F10015087107A900D0
:100D10007208AA0016080318160FAA077308AB007A
:100D2000003003180130AB077408AC000030031822
:100D30000130AC07A8018E018F018E010130AD009A
:100D40000C118A110A1237280130AE000B118A11DA
:100D50000A123728A801AC01AB01AA01A901AD0113
:100D6000B3013308B4000630B2000230B5000130E0
:100D7000B6000130BE00BF011F30C9000130CA00FB
:100D8000CC01CB01CE018A110A1622280830F800C6
:100D90000430F700F70BCA2E8711D51155088316BA
:100DA00087000330F7008312F70BD42EDE0D0712F5
:100DB000031CE02E55165508831687008312E52E76
:100DC000551255088316870083120000D515550863
:100DD000831687008312871DEB2EF80BC82E043074
:100DE000F700F70BF12E8711D511550883168700F0
:100DF0000000831255165508831687000330F7004C
:100E00008312F70B012F0330F700F70B052FD515D1
:100E10005508831687008312871D0C2FF8010330B5
:100E2000F700F70B112F071A78148711D511550801
:100E30008316870083120712551255088316870000
:100E4000831208000830DB007708DC0055165508CF
:100E5000831687000330F7008312F70B2D2FD5156B
:100E60005508831687008312871D342F071A031431
:100E7000071E0310F80D0430F700F70B3D2FD511B6
:100E800055088316870083128711DB0B262F551612
:100E90005508831687000330F7008312F70B4E2F97
:100EA00007125C080319592F55125508831687003D
:100EB00083120000D5155508831687008312871DFD
:100EC0005F2F0430F700F70B632F8711D5115508FA
:100ED000831687000330F7008312F70B6D2F07127C
:100EE0005512550883168700831208005B08DC0042
:100EF000F030DC0503105C0CDD005C0CF700F70C37
:100F0000F70C1F30F7057708DD075B080F395D0721
:100F1000F80008005B08F8015A020318922F5A08DB
:100F2000F7009E2FF7010830DC00DA0DF70D5B08A3
:100F300077020318F700F80DDC0B952F0800F70176
:100F4000F8015A0803105B18F707F70CF80CDB18C8
:100F5000F707F70CF80C5B19F707F70CF80CDB191F
:100F6000F707F70CF80C5B1AF707F70CF80CDB1A0D
:100F7000F707F70CF80C5B1BF707F70CF80CDB1BFB
:100F8000F707F70CF80C08000830F800D7015608EE
:100F9000F7007708D706F70CF80BC92F0C1ECE2FD9
:100FA000FE30831698058312571CD92F8316181408
:100FB00083125608990008005630840083130008F5
:100FC0000319EF2F0630F800F701F70BE52FF80BA8
:100FD000E42F7B30F700F70BEB2F800BE22F08009C
:10100000D60155165508831687000430F700831261
:10101000F70B0828D5155508831687000330F7000D
:101020008312F70B112807125512550883168700F3
:101030000430F7008312F70B1B288711D5115508D0
:1010400083168700D0308312DE008A11C6268A15E7
:10105000DE018A11C6268A155516550883168700A3
:101060000430F7008312F70B3328D5155508831683
:1010700087000330F7008312F70B3C28871D3E28BA
:10108000071255125508831687000430F7008312A3
:10109000F70B48288711D511550883168700D130E2
:1010A0008312DE008A11C6268A15F7018A112227CB
:1010B0008A157808D6005512550883168700000057
:1010C0008312D5155508831687008312871D66285D
:1010D0000430F700F70B6A286D28000055165508F4
:1010E000831687000430F7008312F70B7528D61398
:1010F0000430F700F70B7A287D285516550883161B
:1011000087000430F7008312F70B8428D5155508A3
:10111000831687000330F7008312F70B8D28071220
:1011200055125508831687000430F7008312F70B19
:1011300097288711D511550883168700D030831260
:10114000DE008A11C6268A15DE018A11C6268A1596
:101150005608DE008A11C6268A15551255088316D0
:10116000870000008312D515550883168700831267
:10117000871DB8280430F700F70BBC28BF280000F3
:1011800055165508831687000430F7008312F70BB5
:10119000C7280430F700F70BCB28CE285516550882
:1011A000831687000430F7008312F70BD528D51576
:1011B0005508831687000330F7008312F70BDE28EB
:1011C000071255125508831687000430F700831262
:1011D000F70BE8288711D511550883168700D03002
:1011E0008312DE008A11C6268A150730DE008A11B6
:1011F000C6268A151030DE008A11C6268A155512B9
:1012000055088316870000008312D51555088316EC
:1012100087008312871D0A290430F700F70B0E2977
:101220001129000055165508831687000430F70071
:101230008312F70B19298A110A164A285D08DE0065
:10124000DF01E001E101E5016508073C031CB82965
:101250006008F7006108F800F901FA0177080F3912
:10126000E200FA01610CF900600CF8005F0CF70075
:10127000F90CF80CF70CF90CF80CF70CF90CF80C4D
:10128000F70C0F30F90577080F39E3005F08F70016
:101290006008F8006108F900FA0177080F39E400E6
:1012A0006208043C031856290330E2076308043C33
:1012B00003185C290330E3076408043C031862291F
:1012C0000330E407E901E801E7016208E600670886
:1012D000E9006608E800E601E701EE01ED01EC0136
:1012E0006308EB00F7016B0DF8006C0DF9006D0D54
:1012F000FA00F80DF90DFA0DF80DF90DFA0DF80DCB
:10130000F90DFA0DF030F8057708E6047808E704DF
:101310007908E8047A08E904EE01ED01EC016408BB
:10132000EB006D08FA006C08F9006B08F800F70193
:101330007708E6047808E7047908E8047A08E904FD
:101340005E08F700F801F901FA0177086604DE008B
:1013500078086704DF0079086804E0007A08690407
:10136000E1000310DE0DDF0DE00DE10DE50A24299B
:10137000FA01610CF900600CF8005F0CF700F90C41
:10138000F80CF70CF90CF80CF70CF90CF80CF70C3E
:101390000F30F90577080F39E3005F08F7006008A0
:1013A000F8006108F900FA0177080F39E400630ECC
:1013B000E600F030E60564080F396604F80008001E
:1013C000DC133F30DA0555165508831687000430C4
:1013D000F7008312F70BEA29D51555088316870005
:1013E0000330F7008312F70BF32907125512550843
:1013F000831687000430F7008312F70BFD2987114D
:10140000D511550883168700D0308312DE008A116B
:10141000C6268A15DE018A11C6268A155C08DD00FB
:101420001E217808DD00DE008A11C6268A155B08B9
:10143000DD001E217808DD00DE008A11C6268A152F
:101440005A08DD001E217808DD00DE008A11C6265C
:101450008A155908DD001E217808DD00DE008A119A
:10146000C6268A155608DD001E217808DD00DE003C
:101470008A11C6268A155708DD001E217808DD006E
:10148000DE008A11C6268A155808DD001E2178085C
:10149000DD00DE008A11C6268A155512550883160E
:1014A000870000008312D515550883168700831224
:1014B000871D582A0430F700F70B5C2A5F2A0000CA
:1014C00055165508831687000430F7008312F70B72
:1014D000672A8A110A161A2B8318712A5E30840033
:1014E0008313F701F801F901FA01DE01DF01E001E0
:1014F000E1015D085C045B045A040319AF2A203043
:10150000E2000310D60DD70DD80DD90DDE0DDF0D7D
:10151000E00DE10D5D086102031D982A5C08600280
:10152000031D982A5B085F02031D982A5A085E0271
:10153000031CA92A5A08DE025B08031C5B0FDF02AA
:101540005C08031C5C0FE0025D08031C5D0FE102F8
:101550000314F70DF80DF90DFA0DE20B812A5E0860
:101560008000840A5F088000840A60088000840A82
:10157000610880008A110A16E72D3508023C031D18
:101580000B2B2F08D6002F083C3C031DC82AD60180
:10159000D0010130CF00D2010130D100D40101309F
:1015A000D3002F08DA000530DB008A118A278A155C
:1015B000F708031DE42AD0010330CF00D201033025
:1015C000D100D4010330D3002F08DA000F30DB0044
:1015D0008A118A278A15F708031DF42AD0010730DB
:1015E000CF00D2010730D10044085602031DFB2A68
:1015F000FC30D000CF013C085602031D022BFF3007
:10160000D200D1013D085602031D0A2BFF30D40041
:10161000F130D300F22F3508043C031D442C360B67
:10162000162B2F08103C031D162BAF033608013C68
:10163000031C712B2F08DA000330DB008A119F276F
:101640008A1503307802FA01F9000310F90DFA0D3A
:101650007908DA008A11DC208A15F7005A0A8A1103
:10166000DC208A15FA007708CF007A08D0002F080E
:10167000DA000330DB008A119F278A1502307802D6
:10168000FA01F9000310F90DFA0D7908DA008A1150
:10169000DC208A15F7005A0A8A11DC208A15FA0024
:1016A0007708D1007A08D2002F08DA000330DB0077
:1016B0008A119F278A1501307802FA01F900031078
:1016C000F90DFA0D7908DA008A11DC208A15F70085
:1016D0005A0A8A11DC208A15FA007708D3007A08A2
:1016E000D4003608013C0318432C2F08033C031D8B
:1016F0007A2BAF034C08013C031CDC2B031D842B0D
:101700004B08673C031CDC2B2F08DA000330DB009E
:101710008A119F278A1503307802FA01F900031015
:10172000F90DFA0D7908DA008A1191228A15F7006D
:101730005A0A8A1191228A15FA007708CF007A088E
:10174000D0002F08DA000330DB008A119F278A15AA
:1017500002307802FA01F9000310F90DFA0D790848
:10176000DA008A1191228A15F7005A0A8A11912209
:101770008A15FA007708D1007A08D2002F08DA001B
:101780000330DB008A119F278A1501307802FA01A5
:10179000F9000310F90DFA0D7908DA008A11912287
:1017A0008A15F7005A0A8A1191228A15FA007708D9
:1017B000D3007A08D400332C2F08DA000330DB0082
:1017C0008A119F278A1503307802FA01F900031065
:1017D000F90DFA0D7908DA008A1102248A15F7004A
:1017E0005A0A8A1102248A15FA007708CF007A086B
:1017F000D0002F08DA000330DB008A119F278A15FA
:1018000002307802FA01F9000310F90DFA0D790897
:10181000DA008A1102248A15F7005A0A8A11022472
:101820008A15FA007708D1007A08D2002F08DA006A
:101830000330DB008A119F278A1501307802FA01F4
:10184000F9000310F90DFA0D7908DA008A11022463
:101850008A15F7005A0A8A1102248A15FA007708B5
:10186000D3007A08D400CB0A0319CC0A4C08013CF7
:101870000318432CFF3A031D412C4B08D03C03189E
:10188000432CCC01CB01F22F3508033C031DE32E82
:101890008030D200D1012F08343A0319A12C013A2B
:1018A0000319B72C033A0319CE2C0E3A0319E52C71
:1018B000013A0319FB2C033A0319122D383A031984
:1018C000292D013A03193F2D073A0319562D023AE3
:1018D00003196D2D013A0319832D0F3A03199A2D1F
:1018E000343A0319B12D1B3A0319C12D013A0319DA
:1018F000D82D033A0319EF2D063A0319052E013AA4
:1019000003191C2E033A0319332E3A3A0319492EB0
:10191000013A0319602E033A0319772E0E3A031980
:101920008D2E013A0319A42E033A0319BB2E083A4F
:101930000319D12E033A0319D52E013A0319D92ED2
:10194000DD2E4008DA000630DB008A119F278A1559
:101950007808DA005A0A8A115C208A15FA005A08B7
:101960008A115C208A15D3007A08D400E22E400840
:10197000DA000630DB008A119F278A1502307807CB
:10198000DA005A0A8A115C208A15FA005A088A116C
:101990005C208A15D3007A08D400E22E4008DA00D1
:1019A0000630DB008A119F278A1504307807DA0099
:1019B0005A0A8A115C208A15FA005A088A115C209A
:1019C0008A15D3007A08D400E22E4108DA000630E6
:1019D000DB008A119F278A157808DA005A0A8A11D3
:1019E0005C208A15FA005A088A115C208A15D300F7
:1019F0007A08D400E22E4108DA000630DB008A11B2
:101A00009F278A1502307807DA005A0A8A115C206B
:101A10008A15FA005A088A115C208A15D3007A08C0
:101A2000D400E22E4108DA000630DB008A119F273D
:101A30008A1504307807DA005A0A8A115C208A1560
:101A4000FA005A088A115C208A15D3007A08D4005B
:101A5000E22E4208DA000630DB008A119F278A1541
:101A60007808DA005A0A8A115C208A15FA005A08A6
:101A70008A115C208A15D3007A08D400E22E42082D
:101A8000DA000630DB008A119F278A1502307807BA
:101A9000DA005A0A8A115C208A15FA005A088A115B
:101AA0005C208A15D3007A08D400E22E4208DA00BE
:101AB0000630DB008A119F278A1504307807DA0088
:101AC0005A0A8A115C208A15FA005A088A115C2089
:101AD0008A15D3007A08D400E22E4308DA000630D3
:101AE000DB008A119F278A157808DA005A0A8A11C2
:101AF0005C208A15FA005A088A115C208A15D300E6
:101B00007A08D400E22E4308DA000630DB008A119E
:101B10009F278A1502307807DA005A0A8A115C205A
:101B20008A15FA005A088A115C208A15D3007A08AF
:101B3000D400E22E4308DA000630DB008A119F272A
:101B40008A1504307807DA005A0A8A115C208A154F
:101B5000FA005A088A115C208A15D3007A08D4004A
:101B6000E22E3F080E3C031CB92DD401A030D30057
:101B7000BB2DD401D3013F081E3C0318C02DBF016B
:101B8000E22E4508DA000630DB008A119F278A150D
:101B900004307807DA005A0A8A119C208A15FA0064
:101BA0005A088A119C208A15CF007A08D000E22EAC
:101BB0004508DA000630DB008A119F278A150230BB
:101BC0007807DA005A0A8A119C208A15FA005A0806
:101BD0008A119C208A15CF007A08D000E22E450891
:101BE000DA000630DB008A119F278A157808DA00B0
:101BF0005A0A8A119C208A15FA005A088A119C20D8
:101C00008A15CF007A08D000E22E4608DA000630A6
:101C1000DB008A119F278A1504307807DA005A0AF8
:101C20008A119C208A15FA005A088A119C208A156C
:101C3000CF007A08D000E22E4608DA000630DB003A
:101C40008A119F278A1502307807DA005A0A8A110A
:101C50009C208A15FA005A088A119C208A15CF0008
:101C60007A08D000E22E4608DA000630DB008A113E
:101C70009F278A157808DA005A0A8A119C208A154B
:101C8000FA005A088A119C208A15CF007A08D000E1
:101C9000E22E4708DA000630DB008A119F278A15FA
:101CA00004307807DA005A0A8A119C208A15FA0053
:101CB0005A088A119C208A15CF007A08D000E22E9B
:101CC0004708DA000630DB008A119F278A150230A8
:101CD0007807DA005A0A8A119C208A15FA005A08F5
:101CE0008A119C208A15CF007A08D000E22E47087E
:101CF000DA000630DB008A119F278A157808DA009F
:101D00005A0A8A119C208A15FA005A088A119C20C6
:101D10008A15CF007A08D000E22E4808DA00063093
:101D2000DB008A119F278A1504307807DA005A0AE7
:101D30008A119C208A15FA005A088A119C208A155B
:101D4000CF007A08D000E22E4808DA000630DB0027
:101D50008A119F278A1502307807DA005A0A8A11F9
:101D60009C208A15FA005A088A119C208A15CF00F7
:101D70007A08D000E22E4808DA000630DB008A112B
:101D80009F278A157808DA005A0A8A119C208A153A
:101D9000FA005A088A119C208A15CF007A08D000D0
:101DA000E22ED0014030CF00E22ED0014030CF00F3
:101DB000E22ED0014030CF00E22ED401D301D00179
:101DC000CF01E22EF22F3508053C031DF22FD00182
:101DD000CF01D201D101D401D30149082F020E3E17
:101DE000D70049081E3C031CF92E1E304907D900B4
:101DF000FC2E1E304902D90059082F020E3ED80091
:101E000057083B3C0318062F3C30D70258083B3C90
:101E100003180C2F3C30D80257080E3C031C6A2FC5
:101E200057080B3C0318242F0310570DDA005A0AE9
:101E30008A114D228A15FA005A088A114D228A15F4
:101E4000CF007A08D0006A2F5708073C0318382FB4
:101E50000310570DDA005A0A8A114D228A15FA002A
:101E60005A088A114D228A15D1007A08D2006A2FA9
:101E70005708033C03184C2F0310570DDA005A0A79
:101E80008A114D228A15FA005A088A114D228A15A4
:101E9000D3007A08D4006A2F0310570DDA005A0ACB
:101EA0008A114D228A15FA005A088A114D228A1584
:101EB000D1007A08D2000310570DDA005A0A8A11AD
:101EC0004D228A15FA005A088A114D228A15D3002C
:101ED0007A08D40058080E3C031CD72F58080B3C36
:101EE0000318822F0310580DDA005A0A8A116F2244
:101EF0008A15FA005A088A116F228A15CF007A08CB
:101F0000D000D72F5808073C0318A52F0310580DF1
:101F1000DA005A0A8A116F228A15FA005A088A11C1
:101F20006F228A15CF007A08D0000310580DDA000E
:101F30005A0A8A116F228A15FA005A088A116F22EA
:101F40008A15D3007A08D400D72F5808033C031809
:101F5000B92F0310580DDA005A0A8A116F228A1518
:101F6000FA005A088A116F228A15CF007A08D00029
:101F7000D72F0310580DDA005A0A8A116F228A15DA
:101F8000FA005A088A116F228A15CF007A08D00009
:101F90000310580DDA005A0A8A116F228A15FA00C6
:101FA0005A088A116F228A15D3007A08D400CB0A06
:101FB0000319CC0ACC08031DE12F4B08783C031809
:101FC000E62FCC01CB014A084907C900C908031D07
:101FD000EC2F3C30C900F22F49083D3C031DF22F85
:0A1FE0000130C9008A110A160D2E07
:1020000003081F3983008316031787114030031319
:102010009900E6309800D03083129800FF30D50048
:10202000831603170908C039890003131F129F1272
:102030000030031788008312870188018901031388
:102040000A12AA2E0A161530900055155508831647
:102050008700831297010430970083169B019C012F
:1020600001309D000108C0390338810083128B15AF
:102070003C308316960483120B1683160C140C1531
:1020800083128B1683168C16C03083128B040A12AF
:102090008A1500280A168A11F030D0000F30CF00C0
:1020A0000F30D2000F30D100D401FF30D3005008E0
:1020B000D7004F08D6005208D9005108D80054085C
:1020C000DB005308DA00E830831689008312891098
:1020D000E83083168900831209111030DC00DC0817
:1020E0000319D4285A080139F700FA0177087A044D
:1020F00003198028E8308316890083120914852883
:10210000E83083168900831209100310DB0CDA0C07
:10211000E8308316890083128914E8308316890019
:102120008312891058080139F700FA0177087A04F8
:102130000319A028E8308316890083120914A52802
:10214000E83083168900831209100310D90CD80CCB
:10215000E8308316890083128914E83083168900D9
:102160008312891056080139F700FA0177087A04BA
:102170000319C028E8308316890083120914C52882
:10218000E83083168900831209100310D70CD60C8F
:10219000E8308316890083128914E8308316890099
:1021A00083128910DC036F28E830831689008312BC
:1021B0000915E83083168900831209115516550850
:1021C000831687000430F7008312F70BE528D51536
:1021D0005508831687000330F7008312F70BEE28AB
:1021E000071255125508831687000430F700831232
:1021F000F70BF8288711D511550883168700D030C2
:102200008312DE000A12C6260A16DE010A12C6264C
:102210000A1655165508831687000430F7008312F6
:10222000F70B1029D5155508831687000330F700E2
:102230008312F70B1929871D1B2907125512550800
:10224000831687000430F7008312F70B25298711C6
:10225000D511550883168700D1308312DE000A128B
:10226000C6260A160130F7000A1222270A16780835
:102270007F39D600DB000A1276270A167808BD00DF
:102280000130F7000A1222270A1678087F39D60093
:10229000DB000A1276270A167808BC00F7010A123A
:1022A00022270A1678083F39D600DB000A12762763
:1022B0000A167808BB0055125508831687000000DF
:1022C0008312D5155508831687008312871D66294A
:1022D0000430F700F70B6A296D29000055165508E0
:1022E000831687000430F7008312F70B7529551603
:1022F0005508831687000430F7008312F70B7E29F8
:10230000D5155508831687000330F7008312F70BA5
:102310008729071255125508831687000430F700E5
:102320008312F70B91298711D51155088316870061
:10233000D0308312DE000A12C6260A160330DE00F1
:102340000A12C6260A165516550883168700043049
:10235000F7008312F70BAA29D515550883168700B5
:102360000330F7008312F70BB329871DB529071235
:1023700055125508831687000430F7008312F70BB7
:10238000BF298711D511550883168700D1308312D4
:10239000DE000A12C6260A160130F7000A122227AA
:1023A0000A1678080739D600DB000A1276270A16C3
:1023B0007808BA000130F7000A1222270A167808B6
:1023C0003F39D600DB000A1276270A167808B700D4
:1023D0000130F7000A1222270A1678081F39D600A2
:1023E000DB000A1276270A167808B800F7010A12ED
:1023F00022270A167808D600DB000A1276270A166A
:102400007808B9005512550883168700000083121A
:10241000D5155508831687008312871D0D2A0430B1
:10242000F700F70B112A142A0000551655088316D9
:1024300087000430F7008312F70B1C2A3B08DA00F0
:102440000C30DB000A128A270A167708C4004408F9
:10245000DA000530DB000A129F270A167808C4004C
:102460003C08DA000C30DB000A128A270A167808CA
:10247000C4073B08DA000A30DB000A128A270A1672
:102480007808C0003B08DA000A30DB000A128A270D
:102490000A167708C1003C08DA000A30DB000A128D
:1024A0008A270A167808C2003C08DA000A30DB00E6
:1024B0000A128A270A167708C3003708DA000A309A
:1024C000DB000A128A270A167808C5003708DA00E6
:1024D0000A30DB000A128A270A167708C600380875
:1024E000DA000A30DB000A128A270A167808C700C9
:1024F0003808DA000A30DB000A128A270A16770841
:10250000C8004E080B3C031D5A2BD701D6010F30D3
:10251000D900F030D800DB01DA01E83083168900F9
:1025200083128910E8308316890083120911103054
:10253000DC00DC080319FE2A5A080139F700FA0109
:1025400077087A040319AA2AE830831689008312CF
:102550000914AF2AE830831689008312091003108A
:10256000DB0CDA0CE8308316890083128914E8301A
:10257000831689008312891058080139F700FA017F
:1025800077087A040319CA2AE8308316890083126F
:102590000914CF2AE830831689008312091003102A
:1025A000D90CD80CE8308316890083128914E830DE
:1025B000831689008312891056080139F700FA0141
:1025C00077087A040319EA2AE8308316890083120F
:1025D0000914EF2AE83083168900831209100310CA
:1025E000D70CD60CE8308316890083128914E830A2
:1025F0008316890083128910DC03992AE830831638
:10260000890083120915E8308316890083120911A5
:10261000CE013708D6003808D7003908D8003A0864
:10262000D9003B08DA003C08DB003D08DC000A1258
:102630008A15E0290A168A114F30D6000A12C427DB
:102640000A166430D6000A12DC270A164B30D60070
:102650000A12C4270A166430D6000A12DC270A16AA
:10266000E8308316890083128910E83083168900C8
:1026700083120911E8308316890083120910303063
:10268000D600D6080319502BE83083168900831230
:102690008914E8308316890083128910D603412BF0
:1026A000E8308316890083120915E8308316890003
:1026B000831209113E082C3C031DBB2C55165508EE
:1026C000831687000430F7008312F70B652BD515AE
:1026D0005508831687000330F7008312F70B6E2B23
:1026E000071255125508831687000430F70083122D
:1026F000F70B782B8711D511550883168700D0303A
:102700008312DE000A12C6260A16DE010A12C62647
:102710000A1655165508831687000430F7008312F1
:10272000F70B902BD5155508831687000330F7005B
:102730008312F70B992B871D9B2B071255125508F7
:10274000831687000430F7008312F70BA52B87113F
:10275000D511550883168700D1308312DE000A1286
:10276000C6260A160130F7000A1222270A16780830
:102770007F39D600DB000A1276270A167808BD00DA
:102780000130F7000A1222270A1678087F39D6008E
:10279000DB000A1276270A167808BC00F7010A1235
:1027A00022270A1678083F39D600DB000A1276275E
:1027B0000A167808BB0055125508831687000000DA
:1027C0008312D5155508831687008312871DE62BC3
:1027D0000430F700F70BEA2BED2B000055165508D7
:1027E000831687000430F7008312F70BF52B55167C
:1027F0005508831687000430F7008312F70BFE2B71
:10280000D5155508831687000330F7008312F70BA0
:10281000072C071255125508831687000430F7005D
:102820008312F70B112C8711D511550883168700D9
:10283000D0308312DE000A12C6260A160330DE00EC
:102840000A12C6260A165516550883168700043044
:10285000F7008312F70B2A2CD5155508831687002D
:102860000330F7008312F70B332C871D352C07122A
:1028700055125508831687000430F7008312F70BB2
:102880003F2C8711D511550883168700D13083124C
:10289000DE000A12C6260A160130F7000A122227A5
:1028A0000A1678080739D600DB000A1276270A16BE
:1028B0007808BA000130F7000A1222270A167808B1
:1028C0003F39D600DB000A1276270A167808B700CF
:1028D0000130F7000A1222270A1678081F39D6009D
:1028E000DB000A1276270A167808B800F7010A12E8
:1028F00022270A167808D600DB000A1276270A1665
:102900007808B90055125508831687000000831215
:10291000D5155508831687008312871D8D2C04302A
:10292000F700F70B912C942C0000551655088316D0
:1029300087000430F7008312F70B9C2C3B08DA0069
:102940000C30DB000A128A270A167708C4004408F4
:10295000DA000530DB000A129F270A167808C40047
:102960003C08DA000C30DB000A128A270A167808C5
:10297000C4070130BE003D083B3C03189E2DBD013D
:10298000BC0A3C083B3C03187A2DBC01551655087F
:10299000831687000430F7008312F70BCD2CD51572
:1029A0005508831687000330F7008312F70BD62CE7
:1029B000071255125508831687000430F70083125A
:1029C000F70BE02C8711D511550883168700D030FE
:1029D0008312DE000A12C6260A16DE010A12C62675
:1029E0000A1655165508831687000430F70083121F
:1029F000F70BF82CD5155508831687000330F70020
:102A00008312F70B012D871D032D07125512550850
:102A1000831687000430F7008312F70B0D2D871102
:102A2000D511550883168700D1308312DE000A12B3
:102A3000C6260A160130F7000A1222270A1678085D
:102A40007F39D600DB000A1276270A167808BD0007
:102A50000130F7000A1222270A1678087F39D600BB
:102A6000DB000A1276270A167808BC00F7010A1262
:102A700022270A1678083F39D600DB000A1276278B
:102A80000A167808BB005512550883168700000007
:102A90008312D5155508831687008312871D4E2D86
:102AA0000430F700F70B522D552D00005516550830
:102AB000831687000430F7008312F70B5D2D3B0867
:102AC000DA000C30DB000A128A270A167708C400E5
:102AD0004408DA000530DB000A129F270A1678083E
:102AE000C4003C08DA000C30DB000A128A270A1600
:102AF0007808C4073B08DA000A30DB000A128A278C
:102B00000A167808C0003B08DA000A30DB000A1217
:102B10008A270A167708C1003C08DA000A30DB0071
:102B20000A128A270A167808C2003C08DA000A301E
:102B3000DB000A128A270A167708C3002D0BCB2E5A
:102B4000AD0136080139013C031DD02DE830831654
:102B5000890083128910E8308316890083120911D5
:102B6000E83083168900831209103030D600D60869
:102B70000319C62DE8308316890083128914E830C2
:102B80008316890083128910D603B72DE830831687
:102B9000890083120915E830831689008312091110
:102BA000BF0A0130AE003C30AF0083102C08D900C2
:102BB0002B08D8002A08D7002908D600DD01DC013F
:102BC0000130DB00E030DA000A128A156C2A0A169E
:102BD0008A117708003CD6000130D7000030031C72
:102BE0000130D702FA013208F700F71BFA03560743
:102BF000B0005708B1007A0803187A0FB107AD0882
:102C0000031DCB2EAF080319CB2E2E0BCA2E300876
:102C10008100AE010A128A15BD2A0A168A115008CF
:102C2000D7004F08D6005208D9005108D8005408E0
:102C3000DB005308DA00E83083168900831289101C
:102C4000E83083168900831209111030DC00DC089B
:102C500003198C2E5A080139F700FA0177087A0413
:102C60000319382EE83083168900831209143D2E8B
:102C7000E83083168900831209100310DB0CDA0C8C
:102C8000E8308316890083128914E830831689009E
:102C90008312891058080139F700FA0177087A047D
:102CA0000319582EE83083168900831209145D2E0B
:102CB000E83083168900831209100310D90CD80C50
:102CC000E8308316890083128914E830831689005E
:102CD0008312891056080139F700FA0177087A043F
:102CE0000319782EE83083168900831209147D2E8B
:102CF000E83083168900831209100310D70CD60C14
:102D0000E8308316890083128914E830831689001D
:102D100083128910DC03272EE83083168900831282
:102D20000915E83083168900831209113608013924
:102D3000013C031DC92E2F08013C0318C92EE830A1
:102D40008316890083128910E83083168900831264
:102D50000911E83083168900831209103030D6003B
:102D6000D6080319BF2EE830831689008312891410
:102D7000E8308316890083128910D603B02EE8301C
:102D80008316890083120915E8308316890083129F
:0A2D90000911AF03FF2D812A630033
:04400E00E22CFF3F62
:00000001FF
;PIC16F887
;CRC=8291  CREATED="22-Apr-14 12:50"
