:1000000010308A0000280000FF00030E8301A100C9
:100010000A08A0008A010408A2007708A300780853
:10002000A4007908A5007A08A6007B08A70083131E
:1000300083128C308400001D1F280C1956288B1E3B
:1000400023280B1959280B1E27288B184D288B1D88
:100050002B280B184A288C308400801E31288C1ADB
:1000600050288C308400001C37280C185328220894
:1000700084002308F7002408F8002508F900260862
:10008000FA002708FB0020088A00210E8300FF0EDB
:100090007F0E09008A110A12762A8A110A126F2A23
:1000A0008A110A12AC2A8A110A12162B8A110A1214
:1000B0001B2B8A110A128A2B0A108A100A11820736
:1000C000F834033408340234F83403344034003450
:1000D00020340034F8340334C83403344834023450
:1000E000783402344834023448340234F834033467
:1000F0007834003440340034F83403347834023433
:1001000048340234C8340334F834033448340234F5
:10011000C83403340834003408340034F834033469
:10012000F834033448340234F83403347834023475
:1001300048340234F83403340A108A100A11820752
:10014000F834033408340234F8340334F834033414
:100150000034013480340034C83403344834023469
:1001600078340234F83403344834023448340234E6
:10017000F834033440340034C03403347834023467
:1001800048340234C83403347834023448340234F6
:10019000F8340334F83403340034023400340234C5
:1001A000F834033448340234F8340334F834033474
:1001B00048340234C8340334FB0000307A078A0024
:1001C0007B08E53E03188A0A82000034E034D83404
:1001D000E034003400340034C0347034C0340034AF
:1001E0000034003480340034803418340034003457
:1001F00080340034803418340034003480340034C7
:100200008034F83407340034C0340034C034F83457
:1002100007340034E0340034E0341834003400345F
:10022000C0340034C0341834003400348034003416
:10023000803400340034003480340034803400349E
:10024000003400348034003480340034003400340E
:10025000C0340034C034003400340034E03400349E
:10026000E034003400340034C0340034C03400348E
:1002700000340034803400348034003400340034DE
:10028000803400348034003400340034803400344E
:100290008034003400340034C0340034C0340034BE
:1002A00000340034E0340034E034003400340034EE
:1002B000C0340034C034003400340034803400349E
:1002C000803400340034003480340034803400340E
:1002D0000034013480340034803401340034033479
:1002E000C0340034C034033400340734E034003404
:1002F000E034073400340F34C0340034C0340F34D9
:1003000000341F348034003480341F3400343F34D0
:100310008034003480343F3400347F3480340034FF
:1003200080347F340034FF34C0340034C034FF34B0
:100330000034FF34E1340034E034FF340134FF345E
:10034000C0340034C034FF3400347F34803400348F
:1003500080347F3400343F348034003480343F3480
:1003600000341F348034003480341F3400340F34A0
:10037000C0340034C0340F3400340734E034003467
:10038000E034073400340334C0340034C034033460
:1003900000340134803400348034013400340034BB
:1003A000803400348034003400340034803400342D
:1003B0008034003400340034C0340034C03400349D
:1003C00000340034E0340034E034003400340034CD
:1003D000C0340034C034003400340034803400347D
:1003E00080340034003400348034003480340034ED
:1003F000003400348034003480340034003400345D
:10040000C0340034C034003400340034E0340034EC
:10041000E034003400340034C0340034C0340034DC
:10042000003400348034003480340034003400342C
:10043000803400348034003400340034803400349C
:10044000803400340034F834C7340034C03400340D
:100450000034F834E7340034E03400340034D83465
:10046000C0340034C03400340034D8348034003414
:100470008034003400341834803400348034003444
:10048000003400348034F8348734003400340034CD
:10049000C034F834C734003400340A108A140A1106
:1004A0008207F034013408340234F8340334003461
:1004B00000344834023448340234F834033400340D
:1004C00000340834003408340034F8340334003481
:1004D000003440340034A0340034F83400340130A7
:1004E000BD07BC0A8B108A110A123728FF30831609
:1004F000860083120608B30034083306F000330880
:10050000B400701D882A0230B5000630B200AD017B
:10051000F01D8F2A0330B5000730B200AD01701E08
:10052000962A0430B5000730B200AD01F01EA82AAB
:100530000530B500AD010630B200490BA22AFF30EC
:10054000C900A82A4908FF3C031DA82A0130C90098
:100550000B108A110A1237288C1EAC2A1A08CC00FC
:100560004D080319D22A013A0319D92A033A03196B
:10057000E02A013A0319E52A073A0319EA2A013A5F
:100580000319EF2A033A0319F42A013A0319F92A45
:100590000F3A0319FE2A013A0319032B033A0319F0
:1005A0000A2B112B4C08533C031DD82A0130CD00D7
:1005B000122B4C08543C031DDF2A0230CD00122BB5
:1005C0004C08B6000330CD00122B4C08B7000430A5
:1005D000CD00122B4C08B8000530CD00122B4C0872
:1005E000B9000630CD00122B4C08BA000730CD0000
:1005F000122B4C08BB000830CD00122B4C08BC005D
:100600000930CD00122B4C08453C031D092B0A3044
:10061000CD00122B4C08443C031D102B0B30CD0099
:10062000122B122B8C128A110A123728A80A0C10CE
:100630008A110A123728F301F201F1012808F000AB
:1006400073088316A3007208A2007108A100700845
:10065000A000A701A601FF30A500FF30A40083126F
:1006600020308316AC00A801A901AA01AB01230820
:10067000FA002208F9002108F8002008F700831288
:100680000310771C532B83162408A807250803188A
:10069000250FA90726080318260FAA0727080318FD
:1006A000270FAB0783128316AB0CAA0CA90CA80C5E
:1006B000FA0CF90CF80CF70CAC0B602B622B8312C4
:1006C0008312402B83127A08F3007908F20078082D
:1006D000F1007708F00015087007A9007108AA005A
:1006E00016080318160FAA077208AB00003003188B
:1006F0000130AB077308AC00003003180130AC07C1
:10070000A8018E018F018E010130AD000C118A11FC
:100710000A1237280130AE000B118A110A1237284D
:10072000A801AC01AB01AA01A901AD01B3013308D5
:10073000B4000630B2000230B5000130BD00BE0189
:100740001F30C8000130C900CB01CA01CD018A1198
:100750000A1622280830F8000430F700F70BAE2BF9
:100760008711D4115408831687000330F7008312D1
:10077000F70BB82BDD0D0712031CC42B54165408BD
:10078000831687008312C92B5412540883168700DE
:1007900083120000D4155408831687008312871D26
:1007A000CF2BF80BAC2B0430F700F70BD52B8711B0
:1007B000D41154088316870000008312541654087D
:1007C000831687000330F7008312F70BE52B033005
:1007D000F700F70BE92BD415540883168700831212
:1007E000871DF02BF8010330F700F70BF52B071AE4
:1007F00078148711D41154088316870083120712C6
:100800005412540883168700831208000830DA0057
:100810007708DB0054165408831687000330F7006E
:100820008312F70B112CD4155408831687008312FA
:10083000871D182C071A0314071E0310F80D043027
:10084000F700F70B212CD41154088316870083126C
:100850008711DA0B0A2C54165408831687000330CC
:10086000F7008312F70B322C07125B0803193D2C9B
:10087000541254088316870083120000D4155408BC
:10088000831687008312871D432C0430F700F70B73
:10089000472C8711D4115408831687000330F700C2
:1008A0008312F70B512C0712541254088316870039
:1008B00083120800D50154165408831687000430AB
:1008C000F7008312F70B622CD415540883168700A7
:1008D0000330F7008312F70B6B2C071254125408E5
:1008E000831687000430F7008312F70B752C8711ED
:1008F000D411540883168700D0308312DD00AA2358
:10090000DD01AA2354165408831687000430F7002B
:100910008312F70B892CD4155408831687000330F3
:10092000F7008312F70B922C871D942C0712541298
:100930005408831687000430F7008312F70B9E2CAF
:100940008711D411540883168700D1308312DD003B
:10095000AA23F70106247808D500541254088316F8
:10096000870000008312D415540883168700831271
:10097000871DB82C0430F700F70BBC2CBF2C0000EF
:1009800054165408831687000430F7008312F70BBF
:10099000C72CD5130430F700F70BCC2CCF2C5416F2
:1009A0005408831687000430F7008312F70BD62C07
:1009B000D4155408831687000330F7008312F70B11
:1009C000DF2C071254125408831687000430F700F6
:1009D0008312F70BE92C8711D41154088316870072
:1009E000D0308312DD00AA23DD01AA235508DD00E3
:1009F000AA23541254088316870000008312D415CA
:100A00005408831687008312871D042D0430F700D5
:100A1000F70B082D0B2D0000541654088316870081
:100A20000430F7008312F70B132D0430F700F70B97
:100A3000172D1A2D54165408831687000430F7001A
:100A40008312F70B212DD415540883168700033029
:100A5000F7008312F70B2A2D07125412540883163D
:100A600087000430F7008312F70B342D8711D4115F
:100A7000540883168700D0308312DD00AA23073084
:100A8000DD00AA231030DD00AA2354125408831677
:100A9000870000008312D415540883168700831240
:100AA000871D502D0430F700F70B542D572D0000F3
:100AB00054165408831687000430F7008312F70B8E
:100AC0005F2D8A110A1649285A08DB00F030DB0531
:100AD00003105B0CDC005B0CF700F70CF70C1F300D
:100AE000F7057708DC075A080F395C07F80008009B
:100AF0005808F80157020318802D5708F7008C2D6D
:100B0000F7010830D900D70DF70D58087702031800
:100B1000F700F80DD90B832D0800F701F8015708ED
:100B200003105818F707F70CF80CD818F707F70C4C
:100B3000F80C5819F707F70CF80CD819F707F70C49
:100B4000F80C581AF707F70CF80CD81AF707F70C37
:100B5000F80C581BF707F70CF80CD81BF707F70C25
:100B6000F80C08005C08DD00DE01DF01E001E401B3
:100B70006408073C031C4C2E5F08F7006008F8006F
:100B8000F901FA0177080F39E100FA01600CF90068
:100B90005F0CF8005E0CF700F90CF80CF70CF90C80
:100BA000F80CF70CF90CF80CF70C0F30F905770876
:100BB0000F39E2005E08F7005F08F8006008F900EE
:100BC000FA0177080F39E3006108043C0318EA2DA5
:100BD0000330E1076208043C0318F02D0330E207FC
:100BE0006308043C0318F62D0330E307E801E7012E
:100BF000E6016108E5006608E8006508E700E50130
:100C0000E601ED01EC01EB016208EA00F7016A0D73
:100C1000F8006B0DF9006C0DFA00F80DF90DFA0DE6
:100C2000F80DF90DFA0DF80DF90DFA0DF030F80583
:100C30007708E5047808E6047908E7047A08E80408
:100C4000ED01EC01EB016308EA006C08FA006B08A7
:100C5000F9006A08F800F7017708E5047808E60467
:100C60007908E7047A08E8045D08F700F801F9015B
:100C7000FA0177086504DD0078086604DE0079086B
:100C80006704DF007A086804E0000310DD0DDE0D64
:100C9000DF0DE00DE40AB82DFA01600CF9005F0CDD
:100CA000F8005E0CF700F90CF80CF70CF90CF80CD6
:100CB000F70CF90CF80CF70C0F30F90577080F3921
:100CC000E2005E08F7005F08F8006008F900FA012A
:100CD00077080F39E300620EE500F030E5056308A0
:100CE0000F396504F8000800DB133F30D9055416AE
:100CF0005408831687000430F7008312F70B7E2E0A
:100D0000D4155408831687000330F7008312F70BBD
:100D1000872E071254125408831687000430F700F8
:100D20008312F70B912E8711D41154088316870074
:100D3000D0308312DD00AA23DD01AA235B08DC008A
:100D4000B2257808DC00DD00AA235A08DC00B225B1
:100D50007808DC00DD00AA235908DC00B2257808F9
:100D6000DC00DD00AA235808DC00B2257808DC008E
:100D7000DD00AA235508DC00B2257808DC00DD0080
:100D8000AA235608DC00B2257808DC00DD00AA237F
:100D90005708DC00B2257808DC00DD00AA235412D5
:100DA00054088316870000008312D4155408831654
:100DB00087008312871DDA2E0430F700F70BDE2E32
:100DC000E12E000054165408831687000430F70003
:100DD0008312F70BE92E8A110A16172B0830F80038
:100DE000D6015508F7007708D606F70CF80BF32E56
:100DF0000C1EF82EFE30831698058312561C032F06
:100E000083161814831255089900080083180B2FB5
:100E10005D3084008313F701F801F901FA01DD0167
:100E2000DE01DF01E0015C085B045A045904031988
:100E3000492F2030E1000310D50DD60DD70DD80D68
:100E4000DD0DDE0DDF0DE00D5C086002031D322FAD
:100E50005B085F02031D322F5A085E02031D322F0A
:100E600059085D02031C432F5908DD025A08031C70
:100E70005A0FDE025B08031C5B0FDF025C08031CD9
:100E80005C0FE0020314F70DF80DF90DFA0DE10BFC
:100E90001B2F5D088000840A5E088000840A5F08BA
:0E0EA0008000840A600880008A110A16D32D93
:101000003508023C031D4E282F08D5002F083C3C14
:10101000031D0B28D501CF010130CE00D1010130D5
:10102000D000D3010130D2002F08D7000530D800FE
:101030008A1178258A15F708031D2728CF01033068
:10104000CE00D1010330D000D3010330D2002F08ED
:10105000D7000F30D8008A1178258A15F708031DAC
:101060003728CF010730CE00D1010730D000430828
:101070005502031D3E28FC30CF00CE013B0855022F
:10108000031D4528FF30D100D0013C085502031D47
:101090004D28FF30D300F130D200D92B3508043C65
:1010A000031DAA282F08D7000330D8008A118D25E8
:1010B0008A1503307802FA01F9000310F90DFA0DD0
:1010C0007908D7008A11DC208A15F700570A8A119F
:1010D000DC208A15FA007708CE007A08CF002F08A6
:1010E000D7000330D8008A118D258A150230780286
:1010F000FA01F9000310F90DFA0D7908D7008A11E9
:10110000DC208A15F700570A8A11DC208A15FA00BC
:101110007708D0007A08D1002F08D7000330D80014
:101120008A118D258A1501307802FA01F900031021
:10113000F90DFA0D7908D7008A11DC208A15F7001D
:10114000570A8A11DC208A15FA007708D2007A083B
:10115000D300D92B3508033C031D492B8030D10027
:10116000D0012F08343A03190729013A03191D2920
:10117000033A031934290E3A03194B29013A03198A
:101180006129033A03197829383A03198F29013A5A
:101190000319A529073A0319BC29023A0319D329CF
:1011A000013A0319E9290F3A0319002A343A0319BD
:1011B000172A1B3A0319272A013A03193E2A033A30
:1011C0000319552A063A03196B2A013A0319822A90
:1011D000033A0319992A3A3A0319AF2A013A031933
:1011E000C62A033A0319DD2A0E3A0319F32A013AF3
:1011F00003190A2B033A0319212B083A0319372B39
:10120000033A03193B2B013A03193F2B432B3F08A9
:10121000D7000630D8008A118D258A157808D700A6
:10122000570A8A115C208A15FA0057088A115C2037
:101230008A15D2007A08D300482B3F08D700063021
:10124000D8008A118D258A1502307807D700570AF1
:101250008A115C208A15FA0057088A115C208A15C9
:10126000D2007A08D300482B3F08D7000630D800B8
:101270008A118D258A1504307807D700570A8A11FC
:101280005C208A15FA0057088A115C208A15D20062
:101290007A08D300482B4008D7000630D8008A11BE
:1012A0008D258A157808D700570A8A115C208A157F
:1012B000FA0057088A115C208A15D2007A08D300F8
:1012C000482B4008D7000630D8008A118D258A1592
:1012D00002307807D700570A8A115C208A15FA0075
:1012E00057088A115C208A15D2007A08D300482B4F
:1012F0004008D7000630D8008A118D258A150430A1
:101300007807D700570A8A115C208A15FA00570817
:101310008A115C208A15D2007A08D300482B410834
:10132000D7000630D8008A118D258A157808D70095
:10133000570A8A115C208A15FA0057088A115C2026
:101340008A15D2007A08D300482B4108D70006300E
:10135000D8008A118D258A1502307807D700570AE0
:101360008A115C208A15FA0057088A115C208A15B8
:10137000D2007A08D300482B4108D7000630D800A5
:101380008A118D258A1504307807D700570A8A11EB
:101390005C208A15FA0057088A115C208A15D20051
:1013A0007A08D300482B4208D7000630D8008A11AB
:1013B0008D258A157808D700570A8A115C208A156E
:1013C000FA0057088A115C208A15D2007A08D300E7
:1013D000482B4208D7000630D8008A118D258A157F
:1013E00002307807D700570A8A115C208A15FA0064
:1013F00057088A115C208A15D2007A08D300482B3E
:101400004208D7000630D8008A118D258A1504308D
:101410007807D700570A8A115C208A15FA00570806
:101420008A115C208A15D2007A08D300482B3E0826
:101430000E3C031C1F2AD301A030D200212AD30165
:10144000D2013E081F3C031D262ABE01482B44083A
:10145000D7000630D8008A118D258A150430780708
:10146000D700570A8A119C208A15FA0057088A115A
:101470009C208A15CE007A08CF00482B4408D7005C
:101480000630D8008A118D258A1502307807D700DA
:10149000570A8A119C208A15FA0057088A119C2045
:1014A0008A15CE007A08CF00482B4408D7000630B2
:1014B000D8008A118D258A157808D700570A8A1115
:1014C0009C208A15FA0057088A119C208A15CE00A4
:1014D0007A08CF00482B4508D7000630D8008A117B
:1014E0008D258A1504307807D700570A8A119C2069
:1014F0008A15FA0057088A119C208A15CE007A08AE
:10150000CF00482B4508D7000630D8008A118D251A
:101510008A1502307807D700570A8A119C208A154D
:10152000FA0057088A119C208A15CE007A08CF004D
:10153000482B4508D7000630D8008A118D258A151A
:101540007808D700570A8A119C208A15FA00570894
:101550008A119C208A15CE007A08CF00482B4608B5
:10156000D7000630D8008A118D258A1504307807F7
:10157000D700570A8A119C208A15FA0057088A1149
:101580009C208A15CE007A08CF00482B4608D70049
:101590000630D8008A118D258A1502307807D700C9
:1015A000570A8A119C208A15FA0057088A119C2034
:1015B0008A15CE007A08CF00482B4608D70006309F
:1015C000D8008A118D258A157808D700570A8A1104
:1015D0009C208A15FA0057088A119C208A15CE0093
:1015E0007A08CF00482B4708D7000630D8008A1168
:1015F0008D258A1504307807D700570A8A119C2058
:101600008A15FA0057088A119C208A15CE007A089C
:10161000CF00482B4708D7000630D8008A118D2507
:101620008A1502307807D700570A8A119C208A153C
:10163000FA0057088A119C208A15CE007A08CF003C
:10164000482B4708D7000630D8008A118D258A1507
:101650007808D700570A8A119C208A15FA00570883
:101660008A119C208A15CE007A08CF00482BCF0122
:101670004030CE00482BCF014030CE00482BCF0168
:101680004030CE00482BD301D201CF01CE01482BF0
:10169000D92B3508053C031DD92BCF01CE01D10133
:1016A000D001D301D20148082F020E3ED6004808CF
:1016B0000E3C031C612B56083B3C0318612B3C304D
:1016C000D60256080E3C031CBF2B56080B3C0318D1
:1016D000792B0310560DD700570A8A114D228A150F
:1016E000FA0057088A114D228A15CE007A08CF00D9
:1016F000BF2B5608073C03188D2B0310560DD7003F
:10170000570A8A114D228A15FA0057088A114D226C
:101710008A15D0007A08D100BF2B5608033C031865
:10172000A12B0310560DD700570A8A114D228A1596
:10173000FA0057088A114D228A15D2007A08D30080
:10174000BF2B0310560DD700570A8A114D228A1558
:10175000FA0057088A114D228A15D0007A08D10064
:101760000310560DD700570A8A114D228A15FA0028
:1017700057088A114D228A15D2007A08D300CA0A66
:101780000319CB0ACB08031DC92B4A08783C031860
:10179000CD2BCB01CA014908C807C808031DD32BAC
:1017A0003C30C800D92B48083D3C031DD92B0130E3
:0817B000C8008A110A16F82D89
:1020000003081F3983008316031787114030031319
:102010009900E6309800D03083129800FF30D40049
:10202000831603170908C039890003131F129F1272
:102030000030031788008312870188018901031388
:102040000A12902B0A161530900054155408831666
:102050008700831297010430970083169B019C012F
:1020600001309D000108C0390338810083128B15AF
:102070003C308316960483120B1683160C140C1531
:1020800083128B1683168C16C03083128B040A12AF
:102090005A2C0A16F030CF000F30CE000F30D1008E
:1020A0000F30D000D301FF30D2004F08D6004E08C9
:1020B000D5005108D8005008D7005308DA0052085C
:1020C000D900E8308316890083128910E83083161E
:1020D0008900831209111030DB00DB080319D228B4
:1020E00059080139F700FA0177087A0403197E28A4
:1020F000E83083168900831209148328E830831698
:102100008900831209100310DA0CD90CE830831609
:10211000890083128914E83083168900831289109C
:1021200057080139F700FA0177087A0403199E2845
:10213000E8308316890083120914A328E830831637
:102140008900831209100310D80CD70CE8308316CD
:10215000890083128914E83083168900831289105C
:1021600055080139F700FA0177087A040319BE28E7
:10217000E8308316890083120914C328E8308316D7
:102180008900831209100310D60CD50CE830831691
:10219000890083128914E83083168900831289101C
:1021A000DB036D28E8308316890083120915E830B7
:1021B0008316890083120911541654088316870068
:1021C0000430F7008312F70BE328D4155408831664
:1021D00087000330F7008312F70BEC280712541224
:1021E0005408831687000430F7008312F70BF62893
:1021F0008711D411540883168700D0308312DD0074
:102200000A12AA230A16DD010A12AA230A16541674
:102210005408831687000430F7008312F70B0E2949
:10222000D4155408831687000330F7008312F70B88
:102230001729871D1929071254125408831687007D
:102240000430F7008312F70B23298711D4115408A7
:1022500083168700D1308312DD000A12AA230A16E2
:102260000130F7000A1206240A1678087F39D500D3
:10227000DA000A1264250A167808BC000130F7005B
:102280000A1206240A1678087F39D500DA000A12E5
:1022900064250A167808BB00F7010A1206240A16FC
:1022A00078083F39D500DA000A1264250A16780842
:1022B000BA00541254088316870000008312D41504
:1022C0005408831687008312871D64290430F700A1
:1022D000F70B68296B2900005416540883168700F1
:1022E0000430F7008312F70B732954165408831631
:1022F00087000430F7008312F70B7C29D4155408AB
:10230000831687000330F7008312F70B8529071225
:1023100054125408831687000430F7008312F70B19
:102320008F298711D411540883168700D030831267
:10233000DD000A12AA230A160330DD000A12AA23BE
:102340000A1654165408831687000430F7008312C7
:10235000F70BA829D4155408831687000330F7001B
:102360008312F70BB129871DB329071254125408A1
:10237000831687000430F7008312F70BBD298711FD
:10238000D411540883168700D1308312DD000A125D
:10239000AA230A160130F7000A1206240A16780842
:1023A0000739D500DA000A1264250A167808B90040
:1023B0000130F7000A1206240A1678083F39D500C2
:1023C000DA000A1264250A167808B6000130F70010
:1023D0000A1206240A1678081F39D500DA000A12F4
:1023E00064250A167808B700F7010A1206240A16AF
:1023F0007808D500DA000A1264250A167808B800B1
:10240000541254088316870000008312D415540810
:10241000831687008312871D0B2A0430F700F70B01
:102420000F2A122A0000541654088316870004301D
:10243000F7008312F70B1A2A3A08D7000C30D8009D
:102440000A1278250A167708C3004308D70005301A
:10245000D8000A128D250A167808C3003B08D70059
:102460000C30D8000A1278250A167808C3073A08F3
:10247000D7000A30D8000A1278250A167808BF005B
:102480003A08D7000A30D8000A1278250A167708C9
:10249000C0003B08D7000A30D8000A1278250A1677
:1024A0007808C1003B08D7000A30D8000A12782506
:1024B0000A167708C2003608D7000A30D8000A1278
:1024C00078250A167808C4003608D7000A30D800E4
:1024D0000A1278250A167708C5003708D7000A308F
:1024E000D8000A1278250A167808C6003708D700DF
:1024F0000A30D8000A1278250A167708C7004D0856
:102500000B3C031D4C2BD601D5010F30D800F03009
:10251000D700DA01D901E8308316890083128910C7
:10252000E83083168900831209111030DB00DB08C4
:102530000319FC2A59080139F700FA0177087A04CF
:102540000319A82AE8308316890083120914AD2ADA
:10255000E83083168900831209100310DA0CD90CB5
:10256000E8308316890083128914E83083168900C5
:102570008312891057080139F700FA0177087A04A5
:102580000319C82AE8308316890083120914CD2A5A
:10259000E83083168900831209100310D80CD70C79
:1025A000E8308316890083128914E8308316890085
:1025B0008312891055080139F700FA0177087A0467
:1025C0000319E82AE8308316890083120914ED2ADA
:1025D000E83083168900831209100310D60CD50C3D
:1025E000E8308316890083128914E8308316890045
:1025F00083128910DB03972AE8308316890083123F
:102600000915E8308316890083120911CD013608B7
:10261000D5003708D6003808D7003908D8003A085E
:10262000D9003B08DA003C08DB000A12742E0A16B7
:102630004F30D5000A12EE260A164B30D5000A128A
:10264000EE260A16E8308316890083128910E830D6
:102650008316890083120911E830831689008312DA
:1026600009103030D500D5080319422BE830831605
:10267000890083128914E830831689008312891037
:10268000D503332BE8308316890083120915E8300F
:1026900083168900831209113D082C3C031DAD2CC3
:1026A00054165408831687000430F7008312F70B82
:1026B000572BD4155408831687000330F700831274
:1026C000F70B602B0712541254088316870004304E
:1026D000F7008312F70B6A2B8711D4115408831665
:1026E0008700D0308312DD000A12AA230A16DD010A
:1026F0000A12AA230A1654165408831687000430B7
:10270000F7008312F70B822BD41554088316870029
:102710000330F7008312F70B8B2B871D8D2B0712CD
:1027200054125408831687000430F7008312F70B05
:10273000972B8711D411540883168700D130831248
:10274000DD000A12AA230A160130F7000A12062435
:102750000A1678087F39D500DA000A1264250A16AD
:102760007808BC000130F7000A1206240A1678081F
:102770007F39D500DA000A1264250A167808BB00F2
:10278000F7010A1206240A1678083F39D500DA0044
:102790000A1264250A167808BA00541254088316DF
:1027A000870000008312D415540883168700831213
:1027B000871DD82B0430F700F70BDC2BDF2B000034
:1027C00054165408831687000430F7008312F70B61
:1027D000E72B54165408831687000430F700831241
:1027E000F70BF02BD4155408831687000330F7003D
:1027F0008312F70BF92B0712541254088316870023
:102800000430F7008312F70B032C8711D4115408FE
:1028100083168700D0308312DD000A12AA230A161D
:102820000330DD000A12AA230A1654165408831630
:1028300087000430F7008312F70B1C2CD4155408C2
:10284000831687000330F7008312F70B252C871DB2
:10285000272C071254125408831687000430F700FF
:102860008312F70B312C8711D4115408831687007B
:10287000D1308312DD000A12AA230A160130F700B4
:102880000A1206240A1678080739D500DA000A1257
:1028900064250A167808B9000130F7000A120624E8
:1028A0000A1678083F39D500DA000A1264250A169C
:1028B0007808B6000130F7000A1206240A167808D4
:1028C0001F39D500DA000A1264250A167808B70005
:1028D000F7010A1206240A167808D500DA000A124F
:1028E00064250A167808B800541254088316870025
:1028F00000008312D4155408831687008312871DA5
:102900007F2C0430F700F70B832C862C0000541624
:102910005408831687000430F7008312F70B8E2CBF
:102920003A08D7000C30D8000A1278250A16770822
:10293000C3004308D7000530D8000A128D250A16B7
:102940007808C3003B08D7000C30D8000A1278255D
:102950000A167808C3070130BD003C083B3C031849
:10296000902DBC01BB0A3B083B3C03186C2DBB01FE
:1029700054165408831687000430F7008312F70BAF
:10298000BF2CD4155408831687000330F700831238
:10299000F70BC82C07125412540883168700043012
:1029A000F7008312F70BD22C8711D4115408831629
:1029B0008700D0308312DD000A12AA230A16DD0137
:1029C0000A12AA230A1654165408831687000430E4
:1029D000F7008312F70BEA2CD415540883168700EE
:1029E0000330F7008312F70BF32C871DF52C071229
:1029F00054125408831687000430F7008312F70B33
:102A0000FF2C8711D411540883168700D13083120C
:102A1000DD000A12AA230A160130F7000A12062462
:102A20000A1678087F39D500DA000A1264250A16DA
:102A30007808BC000130F7000A1206240A1678084C
:102A40007F39D500DA000A1264250A167808BB001F
:102A5000F7010A1206240A1678083F39D500DA0071
:102A60000A1264250A167808BA005412540883160C
:102A7000870000008312D415540883168700831240
:102A8000871D402D0430F700F70B442D472D000023
:102A900054165408831687000430F7008312F70B8E
:102AA0004F2D3A08D7000C30D8000A1278250A16A4
:102AB0007708C3004308D7000530D8000A128D25D7
:102AC0000A167808C3003B08D7000C30D8000A1259
:102AD00078250A167808C3073A08D7000A30D800C4
:102AE0000A1278250A167808BF003A08D7000A307B
:102AF000D8000A1278250A167708C0003B08D700CC
:102B00000A30D8000A1278250A167808C1003B0856
:102B1000D7000A30D8000A1278250A167708C200B2
:102B20002D0BB12EAD01E830831689008312891078
:102B3000E8308316890083120911E8308316890072
:102B4000831209103030D500D5080319B32DE830B1
:102B50008316890083128914E83083168900831252
:102B60008910D503A42DE830831689008312091536
:102B7000E8308316890083120911BE0A0130AE00C5
:102B80003C30AF0083102C08D8002B08D7002A084F
:102B9000D6002908D500DC01DB010130DA00E03085
:102BA000D9000A12062F0A167708003CD50001301A
:102BB000D6000030031C0130D602FA013208F700BB
:102BC000F71BFA035507B0005608B1007A0803183E
:102BD0007A0FB107AD08031DB12EAF080319B12E4E
:102BE0002E0BB02E30088100AE010A128A15002883
:102BF0000A168A114F08D6004E08D5005108D80091
:102C00005008D7005308DA005208D900E83083167C
:102C1000890083128910E830831689008312091114
:102C20001030DB00DB080319772E59080139F70053
:102C3000FA0177087A040319232EE83083168900F5
:102C400083120914282EE830831689008312091094
:102C50000310DA0CD90CE83083168900831289142A
:102C6000E830831689008312891057080139F7006C
:102C7000FA0177087A040319432EE8308316890095
:102C800083120914482EE830831689008312091034
:102C90000310D80CD70CE8308316890083128914EE
:102CA000E830831689008312891055080139F7002E
:102CB000FA0177087A040319632EE8308316890035
:102CC00083120914682EE8308316890083120910D4
:102CD0000310D60CD50CE8308316890083128914B2
:102CE000E8308316890083128910DB03122EE83046
:102CF0008316890083120915E83083168900831230
:102D000009112F08013C0318AF2EE8308316890003
:102D100083128910E8308316890083120911E83084
:102D200083168900831209103030D500D5080319A5
:102D3000A52EE8308316890083128914E8308316A3
:102D4000890083128910D503962EE83083168900F6
:102D500083120915E8308316890083120911AF0325
:062D6000EA2D7F2A63004A
:04400E00E22CFF3F62
:00000001FF
;PIC16F887
;CRC=35D1  CREATED="14-Apr-14 15:52"
