:1000000010308A0000280000FF00030E8301A100C9
:100010000A08A0008A010408A2007708A300780853
:10002000A4007908A5007A08A6007B08A70003179A
:100030000D080313A80003170F080313A9000317E3
:100040000C080313AA0003170E080313AB00831355
:1000500083128C308400001D2F280C1976288B1EEB
:1000600033280B1979280B1E37288B186D288B1D08
:100070003B280B186A288C308400801E41288C1A7B
:1000800070288C308400001C47280C187328220824
:1000900084002308F7002408F8002508F900260842
:1000A000FA002708FB00280803178D00031329080E
:1000B00003178F0003132A0803178C0003132B0860
:1000C00003178E00031320088A00210E8300FF0E01
:1000D0007F0E09008A110A12962A8A110A128F2AA3
:1000E0008A110A12C02A8A110A122A2B8A110A12AC
:1000F0002F2B8A110A12AA2B0A108A100A118207C2
:10010000F834033408340234F8340334403400340F
:1001100020340034F8340334C8340334483402340F
:10012000783402344834023448340234F834033426
:100130007834003440340034F834033478340234F2
:1001400048340234C8340334F834033448340234B5
:10015000C83403340834003408340034F834033429
:10016000F834033448340234F83403347834023435
:1001700048340234F83403340A108A100A11820712
:10018000F834033408340234F8340334F8340334D4
:100190000034013480340034C83403344834023429
:1001A00078340234F83403344834023448340234A6
:1001B000F834033440340034C03403347834023427
:1001C00048340234C83403347834023448340234B6
:1001D000F8340334F8340334003402340034023485
:1001E000F834033448340234F8340334F834033434
:1001F00048340234C8340334FB0001307A078A00E3
:100200007B08053E03188A0A82000034E034D834A3
:10021000E034003400340034C0347034C03400346E
:100220000034003480340034803418340034003416
:100230008034003480341834003400348034003486
:100240008034F83407340034C0340034C034F83417
:1002500007340034E0340034E0341834003400341F
:10026000C0340034C03418340034003480340034D6
:10027000803400340034003480340034803400345E
:1002800000340034803400348034003400340034CE
:10029000C0340034C034003400340034E03400345E
:1002A000E034003400340034C0340034C03400344E
:1002B000003400348034003480340034003400349E
:1002C000803400348034003400340034803400340E
:1002D0008034003400340034C0340034C03400347E
:1002E00000340034E0340034E034003400340034AE
:1002F000C0340034C034003400340034803400345E
:1003000080340034003400348034003480340034CD
:100310000034013480340034803401340034033438
:10032000C0340034C034033400340734E0340034C3
:10033000E034073400340F34C0340034C0340F3498
:1003400000341F348034003480341F3400343F3490
:100350008034003480343F3400347F3480340034BF
:1003600080347F340034FF34C0340034C034FF3470
:100370000034FF34E1340034E034FF340134FF341E
:10038000C0340034C034FF3400347F34803400344F
:1003900080347F3400343F348034003480343F3440
:1003A00000341F348034003480341F3400340F3460
:1003B000C0340034C0340F3400340734E034003427
:1003C000E034073400340334C0340034C034033420
:1003D000003401348034003480340134003400347B
:1003E00080340034803400340034003480340034ED
:1003F0008034003400340034C0340034C03400345D
:1004000000340034E0340034E0340034003400348C
:10041000C0340034C034003400340034803400343C
:1004200080340034003400348034003480340034AC
:10043000003400348034003480340034003400341C
:10044000C0340034C034003400340034E0340034AC
:10045000E034003400340034C0340034C03400349C
:1004600000340034803400348034003400340034EC
:10047000803400348034003400340034803400345C
:10048000803400340034F834C7340034C0340034CD
:100490000034F834E7340034E03400340034D83425
:1004A000C0340034C03400340034D83480340034D4
:1004B0008034003400341834803400348034003404
:1004C000003400348034F83487340034003400348D
:1004D000C034F834C734003400340A108A140A11C6
:1004E0008207F034013408340234F8340334003421
:1004F00000344834023448340234F83403340034CD
:1005000000340834003408340034F8340334003440
:10051000003440340034A0340034F8340034013066
:10052000C107C00A8B108A110A124728FF308316B0
:10053000860083120608B70038083706F40037082B
:10054000B800741DA52A0230B900F41DA92A033091
:10055000B900741EAD2A0430B900F41EBC2A05305F
:10056000B9004D0BB62AFF30CD00BC2A4D08FF3C28
:10057000031DBC2A0130CD000B108A110A12472836
:100580008C1EC02A1A08D00051080319E62A013A25
:100590000319ED2A033A0319F42A013A0319F92A37
:1005A000073A0319FE2A013A0319032B033A0319E8
:1005B000082B013A03190D2B0F3A0319122B013A9C
:1005C0000319172B033A03191E2B252B5008533CF4
:1005D000031DEC2A0130D100262B5008543C031D8A
:1005E000F32A0230D100262B5008BA000330D10084
:1005F000262B5008BB000430D100262B5008BC002D
:100600000530D100262B5008BD000630D100262B26
:100610005008BE000730D100262B5008BF0008301C
:10062000D100262B5008C0000930D100262B5008DD
:10063000453C031D1D2B0A30D100262B5008443C9D
:10064000031D242B0B30D100262B262B8C128A1154
:100650000A124728AC0A0C108A110A12472883167E
:10066000A301A201A10183122C088316A000230874
:10067000A7002208A6002108A5002008A400AB01BD
:10068000AA01FF30A900FF30A80083122030831692
:10069000B000AC01AD01AE01AF012708FA00260899
:1006A000F9002508F8002408F70083120310771CCE
:1006B000692B83162808AC0729080318290FAD07F2
:1006C0002A0803182A0FAE072B0803182B0FAF07B1
:1006D00083128316AF0CAE0CAD0CAC0CFA0CF90CFB
:1006E000F80CF70CB00B762B782B83128312562B59
:1006F00083127A088316A3007908A2007808A10063
:100700007708A00083121508831620078312AD0016
:10071000831621088312AE0016080318160FAE07C1
:10072000831622088312AF00003003180130AF0790
:10073000831623088312B000003003180130B0077D
:10074000AC018E018F018E010130B1000C118A11B4
:100750000A1247280130B2000B118A110A124728E9
:10076000CF250000AC01B001AF01AE01AD01B10178
:10077000B7013708B8000630B6000230B9000130C2
:10078000C100C2011F30CC000130CD00CF01CE012D
:10079000D1018A110A1622280830F8000430F70027
:1007A000F70BD02B8711D811580883168700033018
:1007B000F7008312F70BDA2BE10D0712031CE62B6F
:1007C00058165808831687008312EB2B58125808C6
:1007D0008316870083120000D815580883168700F7
:1007E0008312871DF12BF80BCE2B0430F700F70B8B
:1007F000F72B8711D8115808831687000000831241
:1008000058165808831687000330F7008312F70B39
:10081000072C0330F700F70B0B2CD815580883165C
:1008200087008312871D122CF8010330F700F70BA5
:10083000172C071A78148711D811580883168700C7
:100840008312071258125808831687008312080073
:100850000830DE007708DF00581658088316870036
:100860000330F7008312F70B332CD8155808831682
:1008700087008312871D3A2C071A0314071E0310E2
:10088000F80D0430F700F70B432CD81158088316E5
:10089000870083128711DE0B2C2C581658088316FC
:1008A00087000330F7008312F70B542C07125F0800
:1008B00003195F2C58125808831687008312000012
:1008C000D8155808831687008312871D652C0430BD
:1008D000F700F70B692C8711D81158088316870089
:1008E0000330F7008312F70B732C071258125808C5
:1008F0008316870083120800D901581658088316FA
:1009000087000430F7008312F70B842CD8155808A1
:10091000831687000330F7008312F70B8D2C071224
:1009200058125808831687000430F7008312F70B1B
:10093000972C8711D811580883168700D03083125E
:10094000E100CC23E101CC23581658088316870018
:100950000430F7008312F70BAB2CD8155808831618
:1009600087000330F7008312F70BB42C871DB62CD9
:10097000071258125808831687000430F7008312B4
:10098000F70BC02C8711D811580883168700D13077
:100990008312E100CC23F70128247808D9005812EB
:1009A00058088316870000008312D815580883164C
:1009B00087008312871DDA2C0430F700F70BDE2C3A
:1009C000E12C000058165808831687000430F70001
:1009D0008312F70BE92CD9130430F700F70BEE2C38
:1009E000F12C58165808831687000430F70083123C
:1009F000F70BF82CD8155808831687000330F7003A
:100A00008312F70B012D071258125808831687001E
:100A10000430F7008312F70B0B2D8711D8115808FB
:100A200083168700D0308312E100CC23E101CC2370
:100A30005908E100CC23581258088316870000009B
:100A40008312D8155808831687008312871D262D18
:100A50000430F700F70B2A2D2D2D000058165808EA
:100A6000831687000430F7008312F70B352D04300E
:100A7000F700F70B392D3C2D5816580883168700C0
:100A80000430F7008312F70B432DD815580883164E
:100A900087000330F7008312F70B4C2D0712581212
:100AA0005808831687000430F7008312F70B562D81
:100AB0008711D811580883168700D0308312E100BF
:100AC000CC230730E100CC231030E100CC235812B6
:100AD00058088316870000008312D815580883161B
:100AE00087008312871D722D0430F700F70B762DD7
:100AF000792D000058165808831687000430F70037
:100B00008312F70B812D8A110A1649285E08DF002F
:100B1000F030DF0503105F0CE0005F0CF700F70C0E
:100B2000F70C1F30F7057708E0075E080F396007FC
:100B3000F80008005C08F8015B020318A22D5B08AE
:100B4000F700AE2DF7010830DD00DB0DF70D5C0876
:100B500077020318F700F80DDD0BA52D0800F7014B
:100B6000F8015B0803105C18F707F70CF80CDC18A9
:100B7000F707F70CF80C5C19F707F70CF80CDC1901
:100B8000F707F70CF80C5C1AF707F70CF80CDC1AEF
:100B9000F707F70CF80C5C1BF707F70CF80CDC1BDD
:100BA000F707F70CF80C08006008E100E201E30128
:100BB000E401E8016808073C031C6E2E6308F70097
:100BC0006408F800F901FA0177080F39E500FA0125
:100BD000640CF900630CF800620CF700F90CF80CD7
:100BE000F70CF90CF80CF70CF90CF80CF70C0F30AB
:100BF000F90577080F39E6006208F7006308F80086
:100C00006408F900FA0177080F39E7006508043C29
:100C100003180C2E0330E5076608043C0318122E57
:100C20000330E6076708043C0318182E0330E70773
:100C3000EC01EB01EA016508E9006A08EC006908CB
:100C4000EB00E901EA01F101F001EF016608EE00B5
:100C5000F7016E0DF8006F0DF900700DFA00F80D38
:100C6000F90DFA0DF80DF90DFA0DF80DF90DFA0D53
:100C7000F030F8057708E9047808EA047908EB040D
:100C80007A08EC04F101F001EF016708EE0070084A
:100C9000FA006F08F9006E08F800F7017708E90418
:100CA0007808EA047908EB047A08EC046108F70094
:100CB000F801F901FA0177086904E10078086A048B
:100CC000E20079086B04E3007A086C04E400031086
:100CD000E10DE20DE30DE40DE80ADA2DFA01640CF2
:100CE000F900630CF800620CF700F90CF80CF70C33
:100CF000F90CF80CF70CF90CF80CF70C0F30F9059F
:100D000077080F39E6006208F7006308F800640806
:100D1000F900FA0177080F39E700660EE900F030B4
:100D2000E90567080F396904F8000800DF133F3050
:100D3000DD0558165808831687000430F700831223
:100D4000F70BA02ED8155808831687000330F7003C
:100D50008312F70BA92E0712581258088316870022
:100D60000430F7008312F70BB32E8711D8115808FF
:100D700083168700D0308312E100CC23E101CC231D
:100D80005F08E000D4257808E000E100CC235E088D
:100D9000E000D4257808E000E100CC235D08E00005
:100DA000D4257808E000E100CC235C08E000D425DD
:100DB0007808E000E100CC235908E000D425780849
:100DC000E000E100CC235A08E000D4257808E000D8
:100DD000E100CC235B08E000D4257808E000E100C6
:100DE000CC23581258088316870000008312D815A8
:100DF0005808831687008312871DFC2E0430F700E5
:100E0000F70B002F032F0000581658088316870091
:100E10000430F7008312F70B0B2F8A110A16172BD9
:100E20000830F800DD015C08F7007708DD06F70CF4
:100E3000F80B152F0C1E1A2FFE30831698058312FF
:100E40005D1C252F8316181483125C089900080076
:100E50000B08D9008B13831603178C170C14000092
:100E6000000083120313D91B8B1703170C087F395B
:100E7000031D3C2F03137F2F0313D90003170D0805
:100E80000313DA0003170F080313DB005908DC0013
:100E900010275A0803178D0003135B0803178F00F0
:100EA00003130B08DC008B13831603178C170C1429
:100EB0000000000083120313DC1B8B1703170C0DBB
:100EC0000E0D7F39031D662F03137F2F0313D900E7
:100ED00003170D080313DA0003170F080313DB00D1
:100EE0005908DC0010275A0803178D0003135B080C
:100EF00003178F008D0A03198F0A0313282F8A11F5
:100F00000A16202B8318872F613084008313F70182
:100F1000F801F901FA01E101E201E301E4016008ED
:100F20005F045E045D040319C52F2030E500031043
:100F3000D90DDA0DDB0DDC0DE10DE20DE30DE40D55
:100F400060086402031DAE2F5F086302031DAE2F0D
:100F50005E086202031DAE2F5D086102031CBF2FF5
:100F60005D08E1025E08031C5E0FE2025F08031CDD
:100F70005F0FE3026008031C600FE4020314F70D27
:100F8000F80DF90DFA0DE50B972F61088000840A22
:100F900062088000840A63088000840A6408800074
:060FA0008A110A16DC2D87
:101000003908023C031D4E283308D90033083C3C04
:10101000031D0B28D901D3010130D200D5010130C5
:10102000D400D7010130D6003308DB000530DC00E6
:101030008A119A258A15F708031D2728D301033042
:10104000D200D5010330D400D7010330D6003308D5
:10105000DB000F30DC008A119A258A15F708031D82
:101060003728D3010730D200D5010730D400470814
:101070005902031D3E28FC30D300D2013F0859021B
:10108000031D4528FF30D500D40140085902031D37
:101090004D28FF30D700F130D600D92B3908043C59
:1010A000031DAA283308DB000330DC008A11AF25BA
:1010B0008A1503307802FA01F9000310F90DFA0DD0
:1010C0007908DB008A11FC208A15F7005B0A8A1177
:1010D000FC208A15FA007708D2007A08D30033087A
:1010E000DB000330DC008A11AF258A15023078025C
:1010F000FA01F9000310F90DFA0D7908DB008A11E5
:10110000FC208A15F7005B0A8A11FC208A15FA0078
:101110007708D4007A08D5003308DB000330DC0000
:101120008A11AF258A1501307802FA01F9000310FF
:10113000F90DFA0D7908DB008A11FC208A15F700F9
:101140005B0A8A11FC208A15FA007708D6007A0813
:10115000D700D92B3908033C031D492B8030D5001B
:10116000D4013308343A03190729013A03191D2918
:10117000033A031934290E3A03194B29013A03198A
:101180006129033A03197829383A03198F29013A5A
:101190000319A529073A0319BC29023A0319D329CF
:1011A000013A0319E9290F3A0319002A343A0319BD
:1011B000172A1B3A0319272A013A03193E2A033A30
:1011C0000319552A063A03196B2A013A0319822A90
:1011D000033A0319992A3A3A0319AF2A013A031933
:1011E000C62A033A0319DD2A0E3A0319F32A013AF3
:1011F00003190A2B033A0319212B083A0319372B39
:10120000033A03193B2B013A03193F2B432B4308A5
:10121000DB000630DC008A11AF258A157808DB0078
:101220005B0A8A117C208A15FA005B088A117C20EF
:101230008A15D6007A08D700482B4308DB00063011
:10124000DC008A11AF258A1502307807DB005B0AC3
:101250008A117C208A15FA005B088A117C208A1585
:10126000D6007A08D700482B4308DB000630DC00A4
:101270008A11AF258A1504307807DB005B0A8A11D2
:101280007C208A15FA005B088A117C208A15D6001A
:101290007A08D700482B4408DB000630DC008A11AE
:1012A000AF258A157808DB005B0A8A117C208A1535
:1012B000FA005B088A117C208A15D6007A08D700CC
:1012C000482B4408DB000630DC008A11AF258A1564
:1012D00002307807DB005B0A8A117C208A15FA004D
:1012E0005B088A117C208A15D6007A08D700482B23
:1012F0004408DB000630DC008A11AF258A15043073
:101300007807DB005B0A8A117C208A15FA005B08EB
:101310008A117C208A15D6007A08D700482B450808
:10132000DB000630DC008A11AF258A157808DB0067
:101330005B0A8A117C208A15FA005B088A117C20DE
:101340008A15D6007A08D700482B4508DB000630FE
:10135000DC008A11AF258A1502307807DB005B0AB2
:101360008A117C208A15FA005B088A117C208A1574
:10137000D6007A08D700482B4508DB000630DC0091
:101380008A11AF258A1504307807DB005B0A8A11C1
:101390007C208A15FA005B088A117C208A15D60009
:1013A0007A08D700482B4608DB000630DC008A119B
:1013B000AF258A157808DB005B0A8A117C208A1524
:1013C000FA005B088A117C208A15D6007A08D700BB
:1013D000482B4608DB000630DC008A11AF258A1551
:1013E00002307807DB005B0A8A117C208A15FA003C
:1013F0005B088A117C208A15D6007A08D700482B12
:101400004608DB000630DC008A11AF258A1504305F
:101410007807DB005B0A8A117C208A15FA005B08DA
:101420008A117C208A15D6007A08D700482B4208FA
:101430000E3C031C1F2AD701A030D600212AD70159
:10144000D60142081F3C031D262AC201482B48082A
:10145000DB000630DC008A11AF258A1504307807DE
:10146000DB005B0A8A11BC208A15FA005B088A112E
:10147000BC208A15D2007A08D300482B4808DB002C
:101480000630DC008A11AF258A1502307807DB00B0
:101490005B0A8A11BC208A15FA005B088A11BC20FD
:1014A0008A15D2007A08D300482B4808DB000630A2
:1014B000DC008A11AF258A157808DB005B0A8A11E7
:1014C000BC208A15FA005B088A11BC208A15D2005C
:1014D0007A08D300482B4908DB000630DC008A116B
:1014E000AF258A1504307807DB005B0A8A11BC201F
:1014F0008A15FA005B088A11BC208A15D2007A0886
:10150000D300482B4908DB000630DC008A11AF25E8
:101510008A1502307807DB005B0A8A11BC208A1525
:10152000FA005B088A11BC208A15D2007A08D30021
:10153000482B4908DB000630DC008A11AF258A15EC
:101540007808DB005B0A8A11BC208A15FA005B0868
:101550008A11BC208A15D2007A08D300482B4A0889
:10156000DB000630DC008A11AF258A1504307807CD
:10157000DB005B0A8A11BC208A15FA005B088A111D
:10158000BC208A15D2007A08D300482B4A08DB0019
:101590000630DC008A11AF258A1502307807DB009F
:1015A0005B0A8A11BC208A15FA005B088A11BC20EC
:1015B0008A15D2007A08D300482B4A08DB0006308F
:1015C000DC008A11AF258A157808DB005B0A8A11D6
:1015D000BC208A15FA005B088A11BC208A15D2004B
:1015E0007A08D300482B4B08DB000630DC008A1158
:1015F000AF258A1504307807DB005B0A8A11BC200E
:101600008A15FA005B088A11BC208A15D2007A0874
:10161000D300482B4B08DB000630DC008A11AF25D5
:101620008A1502307807DB005B0A8A11BC208A1514
:10163000FA005B088A11BC208A15D2007A08D30010
:10164000482B4B08DB000630DC008A11AF258A15D9
:101650007808DB005B0A8A11BC208A15FA005B0857
:101660008A11BC208A15D2007A08D300482BD301F6
:101670004030D200482BD3014030D200482BD30158
:101680004030D200482BD701D601D301D201482BDC
:10169000D92B3908053C031DD92BD301D201D50123
:1016A000D401D701D6014C0833020E3EDA004C08B3
:1016B0000E3C031C612B5A083B3C0318612B3C3049
:1016C000DA025A080E3C031CBF2B5A080B3C0318C5
:1016D000792B03105A0DDB005B0A8A116D228A15E3
:1016E000FA005B088A116D228A15D2007A08D300AD
:1016F000BF2B5A08073C03188D2B03105A0DDB0033
:101700005B0A8A116D228A15FA005B088A116D2224
:101710008A15D4007A08D500BF2B5A08033C031859
:10172000A12B03105A0DDB005B0A8A116D228A156A
:10173000FA005B088A116D228A15D6007A08D70054
:10174000BF2B03105A0DDB005B0A8A116D228A152C
:10175000FA005B088A116D228A15D2007A08D3003C
:1017600003105A0DDB005B0A8A116D228A15FA00FC
:101770005B088A116D228A15D6007A08D700CE0A36
:101780000319CF0ACF08031DC92B4E08783C031854
:10179000CD2BCF01CE014D08CC07CC08031DD32B98
:1017A0003C30CC00D92B4C083D3C031DD92B0130DB
:0817B000CC008A110A16012E7B
:1020000003081F3983008316031787114030031319
:102010009900E6309800D03083129800FF30D80045
:10202000831603170908C039890003131F129F1272
:102030000030031788008312870188018901031388
:102040000A12B22B0A16153090005815580883163C
:102050008700831297010430970083169B019C012F
:1020600001309D000108C0390338810083128B15AF
:102070003C308316960483120B1683160C140C1531
:1020800083128B1683168C16C03083128B040A12AF
:102090007C2C0A16F030D3000F30D2000F30D50060
:1020A0000F30D400D701FF30D6005308DA005208B1
:1020B000D9005508DC005408DB005708DE0056083C
:1020C000DD00E8308316890083128910E83083161A
:1020D0008900831209111030DF00DF080319D228AC
:1020E0005D080139F700FA0177087A0403197E28A0
:1020F000E83083168900831209148328E830831698
:102100008900831209100310DE0CDD0CE830831601
:10211000890083128914E83083168900831289109C
:102120005B080139F700FA0177087A0403199E2841
:10213000E8308316890083120914A328E830831637
:102140008900831209100310DC0CDB0CE8308316C5
:10215000890083128914E83083168900831289105C
:1021600059080139F700FA0177087A040319BE28E3
:10217000E8308316890083120914C328E8308316D7
:102180008900831209100310DA0CD90CE830831689
:10219000890083128914E83083168900831289101C
:1021A000DF036D28E8308316890083120915E830B3
:1021B0008316890083120911581658088316870060
:1021C0000430F7008312F70BE328D815580883165C
:1021D00087000330F7008312F70BEC280712581220
:1021E0005808831687000430F7008312F70BF6288F
:1021F0008711D811580883168700D0308312E10068
:102200000A12CC230A16E1010A12CC230A16581628
:102210005808831687000430F7008312F70B0E2945
:10222000D8155808831687000330F7008312F70B80
:102230001729871D19290712581258088316870075
:102240000430F7008312F70B23298711D81158089F
:1022500083168700D1308312E1000A12CC230A16BC
:102260000130F7000A1228240A1678087F39D900AD
:10227000DE000A1286250A167808C0000130F70031
:102280000A1228240A1678087F39D900DE000A12BB
:1022900086250A167808BF00F7010A1228240A16B4
:1022A00078083F39D900DE000A1286250A16780818
:1022B000BE00581258088316870000008312D815F4
:1022C0005808831687008312871D64290430F7009D
:1022D000F70B68296B2900005816580883168700E9
:1022E0000430F7008312F70B732958165808831629
:1022F00087000430F7008312F70B7C29D8155808A3
:10230000831687000330F7008312F70B8529071225
:1023100058125808831687000430F7008312F70B11
:102320008F298711D811580883168700D03083125F
:10233000E1000A12CC230A160330E1000A12CC2372
:102340000A1658165808831687000430F7008312BF
:10235000F70BA829D8155808831687000330F70013
:102360008312F70BB129871DB32907125812580899
:10237000831687000430F7008312F70BBD298711FD
:10238000D811580883168700D1308312E1000A1251
:10239000CC230A160130F7000A1228240A167808FE
:1023A0000739D900DE000A1286250A167808BD0012
:1023B0000130F7000A1228240A1678083F39D9009C
:1023C000DE000A1286250A167808BA000130F700E6
:1023D0000A1228240A1678081F39D900DE000A12CA
:1023E00086250A167808BB00F7010A1228240A1667
:1023F0007808D900DE000A1286250A167808BC0083
:10240000581258088316870000008312D815580800
:10241000831687008312871D0B2A0430F700F70B01
:102420000F2A122A00005816580883168700043015
:10243000F7008312F70B1A2A3E08DB000C30DC0091
:102440000A129A250A167708C7004708DB000530EC
:10245000DC000A12AF250A167808C7003F08DB0027
:102460000C30DC000A129A250A167808C7073E08C5
:10247000DB000A30DC000A129A250A167808C3002D
:102480003E08DB000A30DC000A129A250A1677089B
:10249000C4003F08DB000A30DC000A129A250A1645
:1024A0007808C5003F08DB000A30DC000A129A25D4
:1024B0000A167708C6003A08DB000A30DC000A1268
:1024C0009A250A167808C8003A08DB000A30DC00B2
:1024D0000A129A250A167708C9003B08DB000A3061
:1024E000DC000A129A250A167808CA003B08DB00AD
:1024F0000A30DC000A129A250A167708CB00510828
:102500000B3C031D552BDA01D9010F30DC00F030F4
:10251000DB00DE01DD01E8308316890083128910BB
:10252000E83083168900831209111030DF00DF08BC
:102530000319FC2A5D080139F700FA0177087A04CB
:102540000319A82AE8308316890083120914AD2ADA
:10255000E83083168900831209100310DE0CDD0CAD
:10256000E8308316890083128914E83083168900C5
:10257000831289105B080139F700FA0177087A04A1
:102580000319C82AE8308316890083120914CD2A5A
:10259000E83083168900831209100310DC0CDB0C71
:1025A000E8308316890083128914E8308316890085
:1025B0008312891059080139F700FA0177087A0463
:1025C0000319E82AE8308316890083120914ED2ADA
:1025D000E83083168900831209100310DA0CD90C35
:1025E000E8308316890083128914E8308316890045
:1025F00083128910DF03972AE8308316890083123B
:102600000915E8308316890083120911D1013A08AF
:10261000D9003B08DA003C08DB003D08DC003E083E
:10262000DD003F08DE004008DF000A12962E0A1681
:10263000B03003178D0003308F000A120313282FC8
:102640000A160D30DC000A1210270A160A30DC00C8
:102650000A1210270A16E83083168900831289109F
:10266000E8308316890083120911E8308316890047
:10267000831209103030D900D90803194B2BE830E8
:102680008316890083128914E83083168900831227
:102690008910D9033C2BE830831689008312091571
:1026A000E830831689008312091141082C3C031D70
:1026B000B62C58165808831687000430F70083128A
:1026C000F70B602BD8155808831687000330F700E6
:1026D0008312F70B692B07125812580883168700CC
:1026E0000430F7008312F70B732B8711D8115808A9
:1026F00083168700D0308312E1000A12CC230A1619
:10270000E1010A12CC230A165816580883168700CE
:102710000430F7008312F70B8B2BD815580883165B
:1027200087000330F7008312F70B942B871D962B3D
:10273000071258125808831687000430F7008312D6
:10274000F70BA02B8711D811580883168700D130BA
:102750008312E1000A12CC230A160130F7000A1294
:1027600028240A1678087F39D900DE000A12862547
:102770000A167808C0000130F7000A1228240A1649
:1027800078087F39D900DE000A1286250A167808F3
:10279000BF00F7010A1228240A1678083F39D90029
:1027A000DE000A1286250A167808BE00581258085C
:1027B0008316870000008312D815580883168700F7
:1027C0008312871DE12B0430F700F70BE52BE82B74
:1027D000000058165808831687000430F70083124B
:1027E000F70BF02B58165808831687000430F700B3
:1027F0008312F70BF92BD81558088316870003307E
:10280000F7008312F70B022C071258125808831690
:1028100087000430F7008312F70B0C2C8711D811B6
:10282000580883168700D0308312E1000A12CC23A7
:102830000A160330E1000A12CC230A16581658086B
:10284000831687000430F7008312F70B252CD81568
:102850005808831687000330F7008312F70B2E2CDD
:10286000871D302C07125812580883168700043031
:10287000F7008312F70B3A2C8711D81158088316EA
:102880008700D1308312E1000A12CC230A160130EE
:10289000F7000A1228240A1678080739D900DE0042
:1028A0000A1286250A167808BD000130F7000A12C0
:1028B00028240A1678083F39D900DE000A12862536
:1028C0000A167808BA000130F7000A1228240A16FE
:1028D00078081F39D900DE000A1286250A16780802
:1028E000BB00F7010A1228240A167808D900DE0076
:1028F0000A1286250A167808BC0058125808831652
:10290000870000008312D8155808831687008312A9
:10291000871D882C0430F700F70B8C2C8F2C0000BF
:1029200058165808831687000430F7008312F70BF7
:10293000972C3E08DB000C30DC000A129A250A16A0
:102940007708C7004708DB000530DC000A12AF2516
:102950000A167808C7003F08DB000C30DC000A12BA
:102960009A250A167808C7070130C10040083B3C89
:102970000318992DC001BF0A3F083B3C0318752D71
:10298000BF0158165808831687000430F7008312D9
:10299000F70BC82CD8155808831687000330F700AA
:1029A0008312F70BD12C0712581258088316870090
:1029B0000430F7008312F70BDB2C8711D81158086D
:1029C00083168700D0308312E1000A12CC230A1646
:1029D000E1010A12CC230A165816580883168700FC
:1029E0000430F7008312F70BF32CD8155808831620
:1029F00087000330F7008312F70BFC2C871DFE2C99
:102A0000071258125808831687000430F700831203
:102A1000F70B082D8711D811580883168700D1307D
:102A20008312E1000A12CC230A160130F7000A12C1
:102A300028240A1678087F39D900DE000A12862574
:102A40000A167808C0000130F7000A1228240A1676
:102A500078087F39D900DE000A1286250A16780820
:102A6000BF00F7010A1228240A1678083F39D90056
:102A7000DE000A1286250A167808BE005812580889
:102A80008316870000008312D81558088316870024
:102A90008312871D492D0430F700F70B4D2D502D63
:102AA000000058165808831687000430F700831278
:102AB000F70B582D3E08DB000C30DC000A129A257B
:102AC0000A167708C7004708DB000530DC000A1249
:102AD000AF250A167808C7003F08DB000C30DC0081
:102AE0000A129A250A167808C7073E08DB000A3042
:102AF000DC000A129A250A167808C3003E08DB009B
:102B00000A30DC000A129A250A167708C4003F082A
:102B1000DB000A30DC000A129A250A167808C50084
:102B20003F08DB000A30DC000A129A250A167708F3
:102B3000C600310BBA2EB101E8308316890083122A
:102B40008910E8308316890083120911E830831652
:102B50008900831209103030D900D9080319BC2D1F
:102B6000E8308316890083128914E83083168900BF
:102B700083128910D903AD2DE830831689008312A2
:102B80000915E8308316890083120911C20A013041
:102B9000B2003C30B30083103008DC002F08DB00AB
:102BA0002E08DA002D08D900E001DF010130DE0037
:102BB000E030DD000A12822F0A167708003CD900A7
:102BC0000130DA000030031C0130DA02FA01360865
:102BD000F700F71BFA035907B4005A08B5007A0842
:102BE00003187A0FB507B108031DBA2EB3080319ED
:102BF000BA2E320BB92E34088100B2010A128A159E
:102C000000280A168A115308DA005208D90055081C
:102C1000DC005408DB005708DE005608DD00E83011
:102C20008316890083128910E83083168900831285
:102C300009111030DF00DF080319802E5D0801390B
:102C4000F700FA0177087A0403192C2EE83083166E
:102C5000890083120914312EE8308316890083120B
:102C600009100310DE0CDD0CE83083168900831296
:102C70008914E83083168900831289105B080139B2
:102C8000F700FA0177087A0403194C2EE83083160E
:102C9000890083120914512EE830831689008312AB
:102CA00009100310DC0CDB0CE8308316890083125A
:102CB0008914E83083168900831289105908013974
:102CC000F700FA0177087A0403196C2EE8308316AE
:102CD000890083120914712EE8308316890083124B
:102CE00009100310DA0CD90CE8308316890083121E
:102CF0008914E8308316890083128910DF031B2EA4
:102D0000E8308316890083120915E830831689009C
:102D1000831209113308013C0318B82EE8308316DA
:102D2000890083128910E830831689008312091103
:102D3000E83083168900831209103030D900D90891
:102D40000319AE2EE8308316890083128914E83007
:102D50008316890083128910D9039F2EE8308316C9
:102D6000890083120915E83083168900831209113E
:082D7000B303F32D7F2A630079
:04400E00E22CFF3F62
:00000001FF
;PIC16F887
;CRC=BF5E  CREATED="14-Apr-14 09:08"
