:1000000010308A0000280000FF00030E8301A100C9
:100010000A08A0008A010408A2007708A300780853
:10002000A4007908A5007A08A6007B08A70083131E
:1000300083128C308400001D1F280C195F288B1E32
:1000400023280B1962280B1E27288B1853288B1D79
:100050002B280B1850288C308400001E31280C1AD5
:1000600056288C308400801E37288C1A59288C30F2
:100070008400001C3D280C185C28220884002308FA
:10008000F7002408F8002508F9002608FA002708D8
:10009000FB0020088A00210E8300FF0E7F0E09005E
:1000A0008A110A12932A8A110A12782A8A110A12CC
:1000B000B22A8A110A12B62A8A110A12BA2A8A1197
:1000C0000A12BF2A8A110A12222B0A108A100A1158
:1000D0008207F834033408340234F83403344034EB
:1000E000003420340034F8340334C8340334483442
:1000F0000234783402344834023448340234F83458
:1001000003347834003440340034F8340334783421
:10011000023448340234C8340334F83403344834E5
:100120000234C83403340834003408340034F8345A
:100130000334F834033448340234F8340334783464
:10014000023448340234F83403340A108A100A1195
:100150008207F834033408340234F8340334F834B2
:1001600003340034013480340034C8340334483458
:10017000023478340234F8340334483402344834D6
:100180000234F834033440340034C0340334783457
:10019000023448340234C8340334783402344834E6
:1001A0000234F8340334F8340334003402340034B5
:1001B0000234F834033448340234F8340334F83465
:1001C000033448340234C8340334FB0000307A0767
:1001D0008A007B08EE3E03188A0A82000034E0346D
:1001E000D834E034003400340034C0347034C034C7
:1001F0000034003400348034003480341834003447
:1002000000348034003480341834003400348034B6
:1002100000348034F83407340034C0340034C0343F
:10022000F83407340034E0340034E0341834003457
:100230000034C0340034C034183400340034803406
:10024000003480340034003400348034003480348E
:1002500000340034003480340034803400340034FE
:100260000034C0340034C034003400340034E0348E
:100270000034E034003400340034C0340034C0347E
:1002800000340034003480340034803400340034CE
:10029000003480340034803400340034003480343E
:1002A00000348034003400340034C0340034C034AE
:1002B000003400340034E0340034E03400340034DE
:1002C0000034C0340034C03400340034003480348E
:1002D00000348034003400340034803400348034FE
:1002E000003400340134803400348034013400346C
:1002F0000334C0340034C034033400340734E034F1
:100300000034E034073400340F34C0340034C034D7
:100310000F3400341F348034003480341F340034F0
:100320003F348034003480343F3400347F348034B0
:10033000003480347F340034FF34C0340034C0349F
:10034000FF340034FF34E1340034E034FF3401344E
:10035000FF34C0340034C034FF3400347F34803480
:10036000003480347F3400343F34803400348034AF
:100370003F3400341F348034003480341F34003460
:100380000F34C0340034C0340F3400340734E03448
:100390000034E034073400340334C0340034C03453
:1003A00003340034013480340034803401340034A8
:1003B000003480340034803400340034003480341D
:1003C00000348034003400340034C0340034C0348D
:1003D000003400340034E0340034E03400340034BD
:1003E0000034C0340034C03400340034003480346D
:1003F00000348034003400340034803400348034DD
:10040000003400340034803400348034003400344C
:100410000034C0340034C034003400340034E034DC
:100420000034E034003400340034C0340034C034CC
:10043000003400340034803400348034003400341C
:10044000003480340034803400340034003480348C
:100450000034803400340034F834C7340034C034FD
:1004600000340034F834E7340034E034003400342D
:10047000D834C0340034C03400340034D83480342C
:100480000034803400340034183480340034803434
:100490000034003400348034F834873400340034BD
:1004A0000034C034F834C734003400340A108A14DD
:1004B0000A118207F034013408340234F83403346A
:1004C000003400344834023448340234F8340334FD
:1004D000003400340834003408340034F834033471
:1004E0000034003440340034A0340034F834003494
:1004F0000130C407C30A5008143C031D822A01308E
:10050000D100872A5008323C031D872AD101D10827
:10051000031D8C2AD0038F2A510B8F2AD00A8B10EF
:100520008A110A123D28FF308316860083120608BE
:10053000B40035083406E1003408B500611DA22A74
:100540000230BC00E11DA62A0330BC00611EAA2AAD
:100550000430BC00E11EAE2A0530BC000B108A112D
:100560000A123D280C128A110A123D288C128A1197
:100570000A123D28AF0A0C108A110A123D28E40124
:10058000E301E2012F08E1006408E8006308E700E6
:100590006208E6006108E500EC01EB01FF30EA00CB
:1005A000FF30E9002030F100ED01EE01EF01F00134
:1005B0006808FA006708F9006608F8006508F7009F
:1005C0000310771CF12A6908ED076A0803186A0FFF
:1005D000EE076B0803186B0FEF076C0803186C0F1E
:1005E000F007F00CEF0CEE0CED0CFA0CF90CF80C1B
:1005F000F70CF10BE02A7A08E4007908E3007808A8
:10060000E2007708E10015086107B0006208B10058
:1006100016080318160FB1076308B200003003185C
:100620000130B2076408B300003003180130B3078B
:10063000AF018E018F018E010130B6000C118A11BD
:100640000A123D280130B7000B118A110A123D2809
:10065000AF01B301B201B101B001B601B401340878
:10066000B5000630BB000230BC00CF010130C40031
:10067000C5011F30D0000130D100D201D3018A1151
:100680000A1622280830F8000430F700F70B462B32
:100690008711AE112E08831687000330F7008312EE
:1006A000F70B502BD80D0712031C5C2B2E162E08AF
:1006B000831687008312612B2E122E088316870063
:1006C00083120000AE152E08831687008312871D43
:1006D000672BF80B442B0430F700F70B6D2B8711B9
:1006E000AE112E0883168700000083122E162E08E6
:1006F000831687000330F7008312F70B7D2B03303E
:10070000F700F70B812BAE152E0883168700831296
:10071000871D882BF8010330F700F70B8D2B071A84
:1007200078148711AE112E088316870083120712E2
:100730002E122E0883168700831208000830D90075
:100740007708DA002E162E08831687000330F7008C
:100750008312F70BA92BAE152E0883168700831280
:10076000871DB02B071A0314071E0310F80D043061
:10077000F700F70BB92BAE112E08831687008312F2
:100780008711D90BA22B2E162E0883168700033053
:10079000F7008312F70BCA2B07125A080319D52B3F
:1007A0002E122E088316870083120000AE152E0825
:1007B000831687008312871DDB2B0430F700F70BAD
:1007C000DF2B8711AE112E08831687000330F70048
:1007D0008312F70BE92B07122E122E0883168700BF
:1007E00083120800D4012E162E08831687000430C9
:1007F000F7008312F70BFA2BAE152E08831687002D
:100800000330F7008312F70B032C07122E122E0869
:10081000831687000430F7008312F70B0D2C871125
:10082000AE112E0883168700D0308312D8004223E1
:10083000D80142232E162E08831687000430F700B5
:100840008312F70B212CAE152E0883168700033078
:10085000F7008312F70B2A2C871D2C2C07122E125F
:100860002E08831687000430F7008312F70B362C0E
:100870008711AE112E0883168700D1308312D8005D
:100880004223F7019E237808D4002E122E088316E7
:10089000870000008312AE152E088316870083128E
:1008A000871D502C0430F700F70B542C572C0000F8
:1008B0002E162E08831687000430F7008312F70BDC
:1008C0005F2CD4130430F700F70B642C672C2E1622
:1008D0002E08831687000430F7008312F70B6E2C66
:1008E000AE152E08831687000330F7008312F70B2E
:1008F000772C07122E122E08831687000430F7007B
:100900008312F70B812C8711AE112E0883168700F6
:10091000D0308312D8004223D80142235408D80093
:1009200042232E122E088316870000008312AE1574
:100930002E08831687008312871D9C2C0430F70035
:10094000F70BA02CA32C00002E162E088316870070
:100950000430F7008312F70BAB2C0430F700F70BD1
:10096000AF2CB22C2E162E08831687000430F70009
:100970008312F70BB92CAE152E08831687000330AF
:10098000F7008312F70BC22C07122E122E088316C3
:1009900087000430F7008312F70BCC2C8711AE11BF
:1009A0002E0883168700D0308312D80042230730E8
:1009B000D80042231030D80042232E122E0883166E
:1009C000870000008312AE152E088316870083125D
:1009D000871DE82C0430F700F70BEC2CEF2C0000FF
:1009E0002E162E08831687000430F7008312F70BAB
:1009F000F72C8A110A1635285908DA00F030DA0582
:100A000003105A0CDB005A0CF700F70CF70C1F30E0
:100A1000F7057708DB0759080F395B07F80008006E
:100A20005608F80155020318182D5508F700242D13
:100A3000F7010830D700D50DF70D560877020318D7
:100A4000F700F80DD70B1B2D0800F701F80155082A
:100A500003105618F707F70CF80CD618F707F70C21
:100A6000F80C5619F707F70CF80CD619F707F70C1E
:100A7000F80C561AF707F70CF80CD61AF707F70C0C
:100A8000F80C561BF707F70CF80CD61BF707F70CFA
:100A9000F80C080083184F2D5C3084008313F70195
:100AA000F801F901FA01DC01DD01DE01DF015B087B
:100AB0005A045904580403198D2D2030E000031006
:100AC000D40DD50DD60DD70DDC0DDD0DDE0DDF0DF2
:100AD0005B085F02031D762D5A085E02031D762D0A
:100AE00059085D02031D762D58085C02031C872DF2
:100AF0005808DC025908031C590FDD025A08031C70
:100B00005A0FDE025B08031C5B0FDF020314F70DB4
:100B1000F80DF90DFA0DE00B5F2D5C088000840ADA
:100B20005D088000840A5E088000840A5F088000F7
:060B30008A110A16042DD3
:101000003C08023C031D4E283808D40038083C3CFC
:10101000031D0B28D401A9010130A800AB01013048
:10102000AA00AD010130AC003808D5000530D6006B
:101030008A1110258A15F708031D2728A9010330F6
:10104000A800AB010330AA00AD010330AC003808A2
:10105000D5000F30D6008A1110258A15F708031D18
:101060003728A9010730A800AB010730AA004A08B9
:101070005402031D3E28FC30A900A8014208540276
:10108000031D4528FF30AB00AA0143085402031D8D
:101090004D28FF30AD00F130AC00782B3C08043C0B
:1010A000031DAA283808D5000330D6008A1125254B
:1010B0008A1503307802FA01F9000310F90DFA0DD0
:1010C0007908D5008A11E5208A15F700550A8A119A
:1010D000E5208A15FA007708A8007A08A9003808E0
:1010E000D5000330D6008A1125258A1502307802F2
:1010F000FA01F9000310F90DFA0D7908D5008A11EB
:10110000E5208A15F700550A8A11E5208A15FA00AC
:101110007708AA007A08AB003808D5000330D6005B
:101120008A1125258A1501307802FA01F900031089
:10113000F90DFA0D7908D5008A11E5208A15F70016
:10114000550A8A11E5208A15FA007708AC007A085A
:10115000AD00782B3C08033C031D492B8030AB00CD
:10116000AA013808343A03190729013A03191D293D
:10117000033A031934290E3A03194B29013A03198A
:101180006129033A03197829383A03198F29013A5A
:101190000319A529073A0319BC29023A0319D329CF
:1011A000013A0319E9290F3A0319002A343A0319BD
:1011B000172A1B3A0319272A013A03193E2A033A30
:1011C0000319552A063A03196B2A013A0319822A90
:1011D000033A0319992A3A3A0319AF2A013A031933
:1011E000C62A033A0319DD2A0E3A0319F32A013AF3
:1011F00003190A2B033A0319212B083A0319372B39
:10120000033A03193B2B013A03193F2B432B4608A2
:10121000D5000630D6008A1125258A157808D50014
:10122000550A8A1165208A15FA0055088A11652029
:101230008A15AC007A08AD00482B4608D500063068
:10124000D6008A1125258A1502307807D500550A5F
:101250008A1165208A15FA0055088A1165208A15B9
:10126000AC007A08AD00482B4608D5000630D60001
:101270008A1125258A1504307807D500550A8A1168
:1012800065208A15FA0055088A1165208A15AC0078
:101290007A08AD00482B4708D5000630D6008A11E1
:1012A00025258A157808D500550A8A1165208A15E2
:1012B000FA0055088A1165208A15AC007A08AD003D
:1012C000482B4708D5000630D6008A1125258A15F7
:1012D00002307807D500550A8A1165208A15FA0070
:1012E00055088A1165208A15AC007A08AD00482B94
:1012F0004708D5000630D6008A1125258A15043006
:101300007807D500550A8A1165208A15FA00550814
:101310008A1165208A15AC007A08AD00482B480870
:10132000D5000630D6008A1125258A157808D50003
:10133000550A8A1165208A15FA0055088A11652018
:101340008A15AC007A08AD00482B4808D500063055
:10135000D6008A1125258A1502307807D500550A4E
:101360008A1165208A15FA0055088A1165208A15A8
:10137000AC007A08AD00482B4808D5000630D600EE
:101380008A1125258A1504307807D500550A8A1157
:1013900065208A15FA0055088A1165208A15AC0067
:1013A0007A08AD00482B4908D5000630D6008A11CE
:1013B00025258A157808D500550A8A1165208A15D1
:1013C000FA0055088A1165208A15AC007A08AD002C
:1013D000482B4908D5000630D6008A1125258A15E4
:1013E00002307807D500550A8A1165208A15FA005F
:1013F00055088A1165208A15AC007A08AD00482B83
:101400004908D5000630D6008A1125258A150430F2
:101410007807D500550A8A1165208A15FA00550803
:101420008A1165208A15AC007A08AD00482B450862
:10143000093C031C1F2AAD01A030AC00212AAD01DC
:10144000AC0145081E3C031D262AC501482B4B084C
:10145000D5000630D6008A1125258A150430780774
:10146000D500550A8A11A5208A15FA0055088A1157
:10147000A5208A15A8007A08A900482B4B08D5009A
:101480000630D6008A1125258A1502307807D50046
:10149000550A8A11A5208A15FA0055088A11A52037
:1014A0008A15A8007A08A900482B4B08D5000630F9
:1014B000D6008A1125258A157808D500550A8A1183
:1014C000A5208A15FA0055088A11A5208A15A800BA
:1014D0007A08A900482B4C08D5000630D6008A119E
:1014E00025258A1504307807D500550A8A11A520CC
:1014F0008A15FA0055088A11A5208A15A8007A08CD
:10150000A900482B4C08D5000630D6008A112525A5
:101510008A1502307807D500550A8A11A5208A1548
:10152000FA0055088A11A5208A15A8007A08A90092
:10153000482B4C08D5000630D6008A1125258A157F
:101540007808D500550A8A11A5208A15FA00550891
:101550008A11A5208A15A8007A08A900482B4D08F1
:10156000D5000630D6008A1125258A150430780763
:10157000D500550A8A11A5208A15FA0055088A1146
:10158000A5208A15A8007A08A900482B4D08D50087
:101590000630D6008A1125258A1502307807D50035
:1015A000550A8A11A5208A15FA0055088A11A52026
:1015B0008A15A8007A08A900482B4D08D5000630E6
:1015C000D6008A1125258A157808D500550A8A1172
:1015D000A5208A15FA0055088A11A5208A15A800A9
:1015E0007A08A900482B4E08D5000630D6008A118B
:1015F00025258A1504307807D500550A8A11A520BB
:101600008A15FA0055088A11A5208A15A8007A08BB
:10161000A900482B4E08D5000630D6008A11252592
:101620008A1502307807D500550A8A11A5208A1537
:10163000FA0055088A11A5208A15A8007A08A90081
:10164000482B4E08D5000630D6008A1125258A156C
:101650007808D500550A8A11A5208A15FA00550880
:101660008A11A5208A15A8007A08A900482BA9018B
:101670004030A800482BA9014030A800482BA90100
:101680004030A800482BAD01AC01A901A801482BAE
:10169000782B3C08053C031D782BA901A801AB0160
:1016A000AA01AD01AC0150083802031D5C2B0130CA
:1016B000D3000E30D200622B0F3050023802031DCF
:1016C000622BD301530B782B52080E3C031C772B53
:1016D0000310520DD500550A8A1156228A15FA00B8
:1016E00055088A1156228A15AA007A08AB00D2033F
:0616F0008A110A16292DE3
:1020000003081F3983008316031787114030031319
:102010009900E6309800D03083129800FF30AE006F
:10202000831603170908C039890003131F129F1272
:102030000030031788008312870188018901031388
:102040000A12282B0A16153090002E152E0883161A
:102050008700831297010430970083169B019C012F
:1020600001309D000A128312F22B0A168316010812
:10207000C0390338810083128B153C3083169604D7
:1020800083120B1683160C140C1583128B16C0309A
:102090008B04A9010130A800C030AB00AA01FF30B9
:1020A000AD00FF30AC002908D5002808D4002B086B
:1020B000D7002A08D6002D08D9002C08D800E8300F
:1020C0008316890083128910E830831689008312F1
:1020D00009111030DA00DA080319D028580801393C
:1020E000F700FA0177087A0403197C28E830831690
:1020F0008900831209148128E8308316890083122D
:1021000009100310D90CD80CE8308316890083120B
:102110008914E83083168900831289105608013922
:10212000F700FA0177087A0403199C28E83083162F
:10213000890083120914A128E830831689008312CC
:1021400009100310D70CD60CE830831689008312CF
:102150008914E830831689008312891054080139E4
:10216000F700FA0177087A040319BC28E8308316CF
:10217000890083120914C128E8308316890083126C
:1021800009100310D50CD40CE83083168900831293
:102190008914E8308316890083128910DA036B28CA
:1021A000E8308316890083120915E8308316890008
:1021B000831209112E162E08831687000430F700AB
:1021C0008312F70BE128AE152E0883168700033023
:1021D000F7008312F70BEA2807122E122E08831637
:1021E00087000430F7008312F70BF4288711AE1133
:1021F0002E0883168700D0308312D8000A1242239B
:102200000A16D8010A1242230A162E162E08831621
:1022100087000430F7008312F70B0C29AE152E0847
:10222000831687000330F7008312F70B1529871DEB
:10223000172907122E122E08831687000430F70084
:102240008312F70B21298711AE112E088316870000
:10225000D1308312D8000A1242230A160130F70047
:102260000A129E230A1678087F39D400D9000A1270
:10227000FC240A167808C3000130F7000A129E23D6
:102280000A1678087F39D400D9000A12FC240A16ED
:102290007808C200F7010A129E230A1678083F390F
:1022A000D400D9000A12FC240A167808C1002E12A4
:1022B0002E088316870000008312AE152E088316A1
:1022C00087008312871D62290430F700F70B662907
:1022D000692900002E162E08831687000430F700A7
:1022E0008312F70B71292E162E08831687000430EF
:1022F000F7008312F70B7A29AE152E088316870094
:102300000330F7008312F70B832907122E122E08D1
:10231000831687000430F7008312F70B8D2987118D
:10232000AE112E0883168700D0308312D8000A120F
:1023300042230A160330D8000A1242230A162E1628
:102340002E08831687000430F7008312F70BA629A6
:10235000AE152E08831687000330F7008312F70BA3
:10236000AF29871DB12907122E122E088316870068
:102370000430F7008312F70BBB298711AE112E082A
:1023800083168700D1308312D8000A1242230A161E
:102390000130F7000A129E230A1678080739D40084
:1023A000D9000A12FC240A167808C0000130F70090
:1023B0000A129E230A1678083F39D400D9000A125F
:1023C000FC240A167808BD000130F7000A129E238B
:1023D0000A1678081F39D400D9000A12FC240A16FC
:1023E0007808BE00F7010A129E230A167808D40066
:1023F000D9000A12FC240A167808BF002E122E08F3
:102400008316870000008312AE152E0883168700FE
:102410008312871D092A0430F700F70B0D2A102AB2
:1024200000002E162E08831687000430F700831252
:10243000F70B182A4108D5000C30D6000A121025D7
:102440000A167708CA004A08D5000530D6000A12D5
:1024500025250A167808CA004208D5000C30D60097
:102460000A1210250A167808CA074108D5000A3052
:10247000D6000A1210250A167808C6004108D500B1
:102480000A30D6000A1210250A167708C70042083B
:10249000D5000A30D6000A1210250A167808C8009E
:1024A0004208D5000A30D6000A1210250A1677080D
:1024B000C9003D08D5000A30D6000A1210250A16B8
:1024C0007808CB003D08D5000A30D6000A12102546
:1024D0000A167708CC003E08D5000A30D6000A124A
:1024E00010250A167808CD003E08D5000A30D6001F
:1024F0000A1210250A167708CE0044082C3C031D4A
:10250000DE2B2E162E08831687000430F700831268
:10251000F70B882AAE152E08831687000330F700C4
:102520008312F70B912A07122E122E0883168700AA
:102530000430F7008312F70B9B2A8711AE112E0887
:1025400083168700D0308312D8000A1242230A165D
:10255000D8010A1242230A162E162E088316870067
:102560000430F7008312F70BB32AAE152E0883163A
:1025700087000330F7008312F70BBC2A871DBE2AA1
:1025800007122E122E08831687000430F7008312DC
:10259000F70BC82A8711AE112E0883168700D13099
:1025A0008312D8000A1242230A160130F7000A12D9
:1025B0009E230A1678087F39D400D9000A12FC2419
:1025C0000A167808C3000130F7000A129E230A1683
:1025D00078087F39D400D9000A12FC240A1678083A
:1025E000C200F7010A129E230A1678083F39D40068
:1025F000D9000A12FC240A167808C1002E122E08EF
:102600008316870000008312AE152E0883168700FC
:102610008312871D092B0430F700F70B0D2B102BAD
:1026200000002E162E08831687000430F700831250
:10263000F70B182B2E162E08831687000430F70090
:102640008312F70B212BAE152E088316870003305B
:10265000F7008312F70B2A2B07122E122E0883166F
:1026600087000430F7008312F70B342B8711AE116B
:102670002E0883168700D0308312D8000A12422316
:102680000A160330D8000A1242230A162E162E0804
:10269000831687000430F7008312F70B4D2BAE151D
:1026A0002E08831687000330F7008312F70B562B92
:1026B000871D582B07122E122E0883168700043010
:1026C000F7008312F70B622B8711AE112E088316C9
:1026D0008700D1308312D8000A1242230A16013033
:1026E000F7000A129E230A1678080739D400D90089
:1026F0000A12FC240A167808C0000130F7000A12FA
:102700009E230A1678083F39D400D9000A12FC2407
:102710000A167808BD000130F7000A129E230A1637
:1027200078081F39D400D9000A12FC240A16780848
:10273000BE00F7010A129E230A167808D400D900B9
:102740000A12FC240A167808BF002E122E088316DF
:10275000870000008312AE152E08831687008312AF
:10276000871DB02B0430F700F70BB42BB72B0000FC
:102770002E162E08831687000430F7008312F70BFD
:10278000BF2B4108D5000C30D6000A1210250A16BE
:102790007708CA004A08D5000530D6000A12252558
:1027A0000A167808CA004208D5000C30D6000A1272
:1027B00010250A167808CA070130C40043083B3CBC
:1027C0000318C12CC301C20A42083B3C03189D2CCC
:1027D000C2012E162E08831687000430F7008312DC
:1027E000F70BF02BAE152E08831687000330F70089
:1027F0008312F70BF92B07122E122E08831687006F
:102800000430F7008312F70B032C8711AE112E084A
:1028100083168700D0308312D8000A1242230A168A
:10282000D8010A1242230A162E162E088316870094
:102830000430F7008312F70B1B2CAE152E088316FD
:1028400087000330F7008312F70B242C871D262CFA
:1028500007122E122E08831687000430F700831209
:10286000F70B302C8711AE112E0883168700D1305C
:102870008312D8000A1242230A160130F7000A1206
:102880009E230A1678087F39D400D9000A12FC2446
:102890000A167808C3000130F7000A129E230A16B0
:1028A00078087F39D400D9000A12FC240A16780867
:1028B000C200F7010A129E230A1678083F39D40095
:1028C000D9000A12FC240A167808C1002E122E081C
:1028D0008316870000008312AE152E08831687002A
:1028E0008312871D712C0430F700F70B752C782CA0
:1028F00000002E162E08831687000430F70083127E
:10290000F70B802C4108D5000C30D6000A12102598
:102910000A167708CA004A08D5000530D6000A1200
:1029200025250A167808CA004208D5000C30D600C2
:102930000A1210250A167808CA074108D5000A307D
:10294000D6000A1210250A167808C6004108D500DC
:102950000A30D6000A1210250A167708C700420866
:10296000D5000A30D6000A1210250A167808C800C9
:102970004208D5000A30D6000A1210250A16770838
:10298000C900360BE22DB601E830831689008312A8
:102990008910E8308316890083120911E830831604
:1029A0008900831209103030D400D4080319E42CB4
:1029B000E8308316890083128914E8308316890071
:1029C00083128910D403D52CE83083168900831232
:1029D0000915E8308316890083120911C50A0130F0
:1029E000B7003C30B80083103308D7003208D60057
:1029F0003108D5003008D400DB01DA010130D900FC
:102A0000E030D8000A124A2D0A167708003CD4009C
:102A10000130D5000030031C0130D502FA013B081B
:102A2000F700F71BFA035407B9005508BA007A08F3
:102A300003187A0FBA07B608031DE22DB808031968
:102A4000E22D370BE12D39088100B7010A128A15F2
:102A500000280A168A112908D5002808D4002B0856
:102A6000D7002A08D6002D08D9002C08D800E83055
:102A70008316890083128910E83083168900831237
:102A800009111030DA00DA080319A82D58080139A5
:102A9000F700FA0177087A040319542DE8308316F9
:102AA000890083120914592DE83083168900831296
:102AB00009100310D90CD80CE83083168900831252
:102AC0008914E83083168900831289105608013969
:102AD000F700FA0177087A040319742DE830831699
:102AE000890083120914792DE83083168900831236
:102AF00009100310D70CD60CE83083168900831216
:102B00008914E8308316890083128910540801392A
:102B1000F700FA0177087A040319942DE830831638
:102B2000890083120914992DE830831689008312D5
:102B300009100310D50CD40CE830831689008312D9
:102B40008914E8308316890083128910DA03432D33
:102B5000E8308316890083120915E830831689004E
:102B6000831209113808013C0318E02DE830831660
:102B7000890083128910E8308316890083120911B5
:102B8000E83083168900831209103030D400D4084D
:102B90000319D62DE8308316890083128914E83092
:102BA0008316890083128910D403C72DE830831659
:102BB000890083120915E8308316890083120911F0
:082BC000B8031B2D7D2A630000
:04400E00E22CFF3F62
:00000001FF
;PIC16F887
;CRC=6628  CREATED="12-Apr-14 20:34"
